{"abi":[{"type":"constructor","inputs":[],"stateMutability":"nonpayable"},{"type":"function","name":"guardian","inputs":[],"outputs":[{"name":"","type":"address","internalType":"address"}],"stateMutability":"view"},{"type":"function","name":"isPaused","inputs":[{"name":"","type":"address","internalType":"address"}],"outputs":[{"name":"","type":"bool","internalType":"bool"}],"stateMutability":"view"},{"type":"function","name":"owner","inputs":[],"outputs":[{"name":"","type":"address","internalType":"address"}],"stateMutability":"view"},{"type":"function","name":"pauseAsset","inputs":[{"name":"asset","type":"address","internalType":"address"}],"outputs":[],"stateMutability":"nonpayable"},{"type":"function","name":"pauseProtocol","inputs":[],"outputs":[],"stateMutability":"nonpayable"},{"type":"function","name":"protocolPaused","inputs":[],"outputs":[{"name":"","type":"bool","internalType":"bool"}],"stateMutability":"view"},{"type":"function","name":"setGuardian","inputs":[{"name":"_guardian","type":"address","internalType":"address"}],"outputs":[],"stateMutability":"nonpayable"},{"type":"function","name":"setSupplyCap","inputs":[{"name":"asset","type":"address","internalType":"address"},{"name":"cap","type":"uint256","internalType":"uint256"}],"outputs":[],"stateMutability":"nonpayable"},{"type":"function","name":"supplyCaps","inputs":[{"name":"","type":"address","internalType":"address"}],"outputs":[{"name":"","type":"uint256","internalType":"uint256"}],"stateMutability":"view"},{"type":"function","name":"unpauseAsset","inputs":[{"name":"asset","type":"address","internalType":"address"}],"outputs":[],"stateMutability":"nonpayable"},{"type":"function","name":"unpauseProtocol","inputs":[],"outputs":[],"stateMutability":"nonpayable"},{"type":"function","name":"validateBorrow","inputs":[{"name":"asset","type":"address","internalType":"address"}],"outputs":[],"stateMutability":"view"},{"type":"function","name":"validateSupply","inputs":[{"name":"asset","type":"address","internalType":"address"},{"name":"newTotalSupply","type":"uint256","internalType":"uint256"}],"outputs":[],"stateMutability":"view"},{"type":"function","name":"validateWithdraw","inputs":[{"name":"asset","type":"address","internalType":"address"}],"outputs":[],"stateMutability":"view"},{"type":"event","name":"AssetPaused","inputs":[{"name":"asset","type":"address","indexed":true,"internalType":"address"},{"name":"guardian","type":"address","indexed":true,"internalType":"address"}],"anonymous":false},{"type":"event","name":"AssetUnpaused","inputs":[{"name":"asset","type":"address","indexed":true,"internalType":"address"},{"name":"owner","type":"address","indexed":true,"internalType":"address"}],"anonymous":false},{"type":"event","name":"ProtocolPaused","inputs":[{"name":"guardian","type":"address","indexed":true,"internalType":"address"}],"anonymous":false},{"type":"event","name":"ProtocolUnpaused","inputs":[{"name":"owner","type":"address","indexed":true,"internalType":"address"}],"anonymous":false},{"type":"event","name":"SupplyCapUpdated","inputs":[{"name":"asset","type":"address","indexed":true,"internalType":"address"},{"name":"newCap","type":"uint256","indexed":false,"internalType":"uint256"}],"anonymous":false}],"bytecode":{"object":"0x608080604052346036575f8054336001600160a01b0319918216811790925560018054909116909117905561066d908161003b8239f35b5f80fdfe6080806040526004361015610012575f80fd5b5f3560e01c90816302c3bcbb146104a85750806303ec0201146104045780630a27a6c1146103ff5780632442b840146103ff5780633753b14a1461036b578063425fad5814610349578063452a932014610321578063571f03e5146102ab5780635b14f1831461026e5780638a0dac4a1461021f5780638da5cb5b146101f85780639abacb4114610184578063dbf624891461010f5763f93b6be5146100b6575f80fd5b3461010b575f36600319011261010b576100da60018060a01b035f541633146105fe565b60ff1960035416600355337f2d553fb579456929d17c4cf0dc43b2f2e8e5a8f917cadcc8a5f18e9c4010b75a5f80a2005b5f80fd5b3461010b575f36600319011261010b576001546001600160a01b031633148015610171575b61013d906105b9565b600160ff196003541617600355337f3fb8cabbd30f03312e3221b5b1c7ce132ca5d72cf36143a1d6d33b11ad4eba245f80a2005b505f546001600160a01b03163314610134565b3461010b57602036600319011261010b5761019d6104dc565b6101b160018060a01b035f541633146105fe565b6001600160a01b03165f818152600260205260408120805460ff191690553391907f58f87a1afa170d4271347f7317cfc780d4aa25ad7a941fa28811a2485436ee3e9080a3005b3461010b575f36600319011261010b575f546040516001600160a01b039091168152602090f35b3461010b57602036600319011261010b576102386104dc565b61024c60018060a01b035f541633146105fe565b600180546001600160a01b0319166001600160a01b0392909216919091179055005b3461010b57602036600319011261010b576001600160a01b0361028f6104dc565b165f526002602052602060ff60405f2054166040519015158152f35b3461010b57604036600319011261010b576102c46104dc565b7f638a463c59949a284e093291dedfbadcb32ebf9007e649767344e67346ab88296020602435926102ff60018060a01b035f541633146105fe565b6001600160a01b03165f818152600483526040908190208590555193845292a2005b3461010b575f36600319011261010b576001546040516001600160a01b039091168152602090f35b3461010b575f36600319011261010b57602060ff600354166040519015158152f35b3461010b57602036600319011261010b576103846104dc565b6001546001600160a01b0316331480156103ec575b6103a2906105b9565b6001600160a01b03165f818152600260205260408120805460ff191660011790553391907f4b5964a96fddcddb8bd39033f07c8d5ad4b1d0285f87d6bc5e512922b01b814d9080a3005b505f546001600160a01b03163314610399565b6104f2565b3461010b57604036600319011261010b5761041d6104dc565b61042c60ff6003541615610540565b6001600160a01b03165f818152600260205260409020546104509060ff161561057e565b5f52600460205260405f20548061046357005b6024351161046d57005b60405162461bcd60e51b815260206004820152601360248201527214dd5c1c1b1e4810d85c08115e18d959591959606a1b6044820152606490fd5b3461010b57602036600319011261010b576020906001600160a01b036104cc6104dc565b165f526004825260405f20548152f35b600435906001600160a01b038216820361010b57565b3461010b57602036600319011261010b5761050b6104dc565b61051a60ff6003541615610540565b6001600160a01b03165f9081526002602052604090205461053e9060ff161561057e565b005b1561054757565b60405162461bcd60e51b815260206004820152600f60248201526e141c9bdd1bd8dbdb0814185d5cd959608a1b6044820152606490fd5b1561058557565b60405162461bcd60e51b815260206004820152600c60248201526b105cdcd95d0814185d5cd95960a21b6044820152606490fd5b156105c057565b60405162461bcd60e51b815260206004820152601660248201527527b7363c9023bab0b93234b0b71037b91027bbb732b960511b6044820152606490fd5b1561060557565b60405162461bcd60e51b815260206004820152600a60248201526927b7363c9027bbb732b960b11b6044820152606490fdfea26469706673582212208bba9ff20525934c1e409897c73d0f94e58139c858e14c97d05cdc899cdb213e64736f6c634300081e0033","linkReferences":{}},"methodIdentifiers":{"guardian()":"452a9320","isPaused(address)":"5b14f183","owner()":"8da5cb5b","pauseAsset(address)":"3753b14a","pauseProtocol()":"dbf62489","protocolPaused()":"425fad58","setGuardian(address)":"8a0dac4a","setSupplyCap(address,uint256)":"571f03e5","supplyCaps(address)":"02c3bcbb","unpauseAsset(address)":"9abacb41","unpauseProtocol()":"f93b6be5","validateBorrow(address)":"2442b840","validateSupply(address,uint256)":"03ec0201","validateWithdraw(address)":"0a27a6c1"},"id":25}