{"abi":[{"type":"constructor","inputs":[],"stateMutability":"nonpayable"},{"type":"function","name":"guardian","inputs":[],"outputs":[{"name":"","type":"address","internalType":"address"}],"stateMutability":"view"},{"type":"function","name":"isPaused","inputs":[{"name":"","type":"address","internalType":"address"}],"outputs":[{"name":"","type":"bool","internalType":"bool"}],"stateMutability":"view"},{"type":"function","name":"owner","inputs":[],"outputs":[{"name":"","type":"address","internalType":"address"}],"stateMutability":"view"},{"type":"function","name":"pauseAsset","inputs":[{"name":"asset","type":"address","internalType":"address"}],"outputs":[],"stateMutability":"nonpayable"},{"type":"function","name":"pauseProtocol","inputs":[],"outputs":[],"stateMutability":"nonpayable"},{"type":"function","name":"protocolPaused","inputs":[],"outputs":[{"name":"","type":"bool","internalType":"bool"}],"stateMutability":"view"},{"type":"function","name":"setGuardian","inputs":[{"name":"_guardian","type":"address","internalType":"address"}],"outputs":[],"stateMutability":"nonpayable"},{"type":"function","name":"setSupplyCap","inputs":[{"name":"asset","type":"address","internalType":"address"},{"name":"cap","type":"uint256","internalType":"uint256"}],"outputs":[],"stateMutability":"nonpayable"},{"type":"function","name":"supplyCaps","inputs":[{"name":"","type":"address","internalType":"address"}],"outputs":[{"name":"","type":"uint256","internalType":"uint256"}],"stateMutability":"view"},{"type":"function","name":"unpauseAsset","inputs":[{"name":"asset","type":"address","internalType":"address"}],"outputs":[],"stateMutability":"nonpayable"},{"type":"function","name":"unpauseProtocol","inputs":[],"outputs":[],"stateMutability":"nonpayable"},{"type":"function","name":"validateBorrow","inputs":[{"name":"asset","type":"address","internalType":"address"}],"outputs":[],"stateMutability":"view"},{"type":"function","name":"validateSupply","inputs":[{"name":"asset","type":"address","internalType":"address"},{"name":"newTotalSupply","type":"uint256","internalType":"uint256"}],"outputs":[],"stateMutability":"view"},{"type":"function","name":"validateWithdraw","inputs":[{"name":"asset","type":"address","internalType":"address"}],"outputs":[],"stateMutability":"view"},{"type":"event","name":"AssetPaused","inputs":[{"name":"asset","type":"address","indexed":true,"internalType":"address"},{"name":"guardian","type":"address","indexed":true,"internalType":"address"}],"anonymous":false},{"type":"event","name":"AssetUnpaused","inputs":[{"name":"asset","type":"address","indexed":true,"internalType":"address"},{"name":"owner","type":"address","indexed":true,"internalType":"address"}],"anonymous":false},{"type":"event","name":"ProtocolPaused","inputs":[{"name":"guardian","type":"address","indexed":true,"internalType":"address"}],"anonymous":false},{"type":"event","name":"ProtocolUnpaused","inputs":[{"name":"owner","type":"address","indexed":true,"internalType":"address"}],"anonymous":false},{"type":"event","name":"SupplyCapUpdated","inputs":[{"name":"asset","type":"address","indexed":true,"internalType":"address"},{"name":"newCap","type":"uint256","indexed":false,"internalType":"uint256"}],"anonymous":false}],"bytecode":{"object":"0x6080604052348015600e575f5ffd5b50335f5f6101000a81548173ffffffffffffffffffffffffffffffffffffffff021916908373ffffffffffffffffffffffffffffffffffffffff1602179055503360015f6101000a81548173ffffffffffffffffffffffffffffffffffffffff021916908373ffffffffffffffffffffffffffffffffffffffff1602179055506110f28061009b5f395ff3fe608060405234801561000f575f5ffd5b50600436106100e8575f3560e01c8063571f03e51161008a5780638da5cb5b116100645780638da5cb5b146102305780639abacb411461024e578063dbf624891461026a578063f93b6be514610274576100e8565b8063571f03e5146101c85780635b14f183146101e45780638a0dac4a14610214576100e8565b80632442b840116100c65780632442b840146101545780633753b14a14610170578063425fad581461018c578063452a9320146101aa576100e8565b806302c3bcbb146100ec57806303ec02011461011c5780630a27a6c114610138575b5f5ffd5b61010660048036038101906101019190610d85565b61027e565b6040516101139190610dc8565b60405180910390f35b61013660048036038101906101319190610e0b565b610293565b005b610152600480360381019061014d9190610d85565b6103fe565b005b61016e60048036038101906101699190610d85565b6104da565b005b61018a60048036038101906101859190610d85565b6105b6565b005b61019461074d565b6040516101a19190610e63565b60405180910390f35b6101b261075f565b6040516101bf9190610e8b565b60405180910390f35b6101e260048036038101906101dd9190610e0b565b610784565b005b6101fe60048036038101906101f99190610d85565b6108a6565b60405161020b9190610e63565b60405180910390f35b61022e60048036038101906102299190610d85565b6108c3565b005b610238610994565b6040516102459190610e8b565b60405180910390f35b61026860048036038101906102639190610d85565b6109b8565b005b610272610af7565b005b61027c610c3b565b005b6004602052805f5260405f205f915090505481565b60035f9054906101000a900460ff16156102e2576040517f08c379a00000000000000000000000000000000000000000000000000000000081526004016102d990610efe565b60405180910390fd5b60025f8373ffffffffffffffffffffffffffffffffffffffff1673ffffffffffffffffffffffffffffffffffffffff1681526020019081526020015f205f9054906101000a900460ff161561036c576040517f08c379a000000000000000000000000000000000000000000000000000000000815260040161036390610f66565b60405180910390fd5b5f60045f8473ffffffffffffffffffffffffffffffffffffffff1673ffffffffffffffffffffffffffffffffffffffff1681526020019081526020015f205490505f8111156103f957808211156103f8576040517f08c379a00000000000000000000000000000000000000000000000000000000081526004016103ef90610fce565b60405180910390fd5b5b505050565b60035f9054906101000a900460ff161561044d576040517f08c379a000000000000000000000000000000000000000000000000000000000815260040161044490610efe565b60405180910390fd5b60025f8273ffffffffffffffffffffffffffffffffffffffff1673ffffffffffffffffffffffffffffffffffffffff1681526020019081526020015f205f9054906101000a900460ff16156104d7576040517f08c379a00000000000000000000000000000000000000000000000000000000081526004016104ce90610f66565b60405180910390fd5b50565b60035f9054906101000a900460ff1615610529576040517f08c379a000000000000000000000000000000000000000000000000000000000815260040161052090610efe565b60405180910390fd5b60025f8273ffffffffffffffffffffffffffffffffffffffff1673ffffffffffffffffffffffffffffffffffffffff1681526020019081526020015f205f9054906101000a900460ff16156105b3576040517f08c379a00000000000000000000000000000000000000000000000000000000081526004016105aa90610f66565b60405180910390fd5b50565b60015f9054906101000a900473ffffffffffffffffffffffffffffffffffffffff1673ffffffffffffffffffffffffffffffffffffffff163373ffffffffffffffffffffffffffffffffffffffff16148061065c57505f5f9054906101000a900473ffffffffffffffffffffffffffffffffffffffff1673ffffffffffffffffffffffffffffffffffffffff163373ffffffffffffffffffffffffffffffffffffffff16145b61069b576040517f08c379a000000000000000000000000000000000000000000000000000000000815260040161069290611036565b60405180910390fd5b600160025f8373ffffffffffffffffffffffffffffffffffffffff1673ffffffffffffffffffffffffffffffffffffffff1681526020019081526020015f205f6101000a81548160ff0219169083151502179055503373ffffffffffffffffffffffffffffffffffffffff168173ffffffffffffffffffffffffffffffffffffffff167f4b5964a96fddcddb8bd39033f07c8d5ad4b1d0285f87d6bc5e512922b01b814d60405160405180910390a350565b60035f9054906101000a900460ff1681565b60015f9054906101000a900473ffffffffffffffffffffffffffffffffffffffff1681565b5f5f9054906101000a900473ffffffffffffffffffffffffffffffffffffffff1673ffffffffffffffffffffffffffffffffffffffff163373ffffffffffffffffffffffffffffffffffffffff1614610812576040517f08c379a00000000000000000000000000000000000000000000000000000000081526004016108099061109e565b60405180910390fd5b8060045f8473ffffffffffffffffffffffffffffffffffffffff1673ffffffffffffffffffffffffffffffffffffffff1681526020019081526020015f20819055508173ffffffffffffffffffffffffffffffffffffffff167f638a463c59949a284e093291dedfbadcb32ebf9007e649767344e67346ab88298260405161089a9190610dc8565b60405180910390a25050565b6002602052805f5260405f205f915054906101000a900460ff1681565b5f5f9054906101000a900473ffffffffffffffffffffffffffffffffffffffff1673ffffffffffffffffffffffffffffffffffffffff163373ffffffffffffffffffffffffffffffffffffffff1614610951576040517f08c379a00000000000000000000000000000000000000000000000000000000081526004016109489061109e565b60405180910390fd5b8060015f6101000a81548173ffffffffffffffffffffffffffffffffffffffff021916908373ffffffffffffffffffffffffffffffffffffffff16021790555050565b5f5f9054906101000a900473ffffffffffffffffffffffffffffffffffffffff1681565b5f5f9054906101000a900473ffffffffffffffffffffffffffffffffffffffff1673ffffffffffffffffffffffffffffffffffffffff163373ffffffffffffffffffffffffffffffffffffffff1614610a46576040517f08c379a0000000000000000000000000000000000000000000000000000000008152600401610a3d9061109e565b60405180910390fd5b5f60025f8373ffffffffffffffffffffffffffffffffffffffff1673ffffffffffffffffffffffffffffffffffffffff1681526020019081526020015f205f6101000a81548160ff0219169083151502179055503373ffffffffffffffffffffffffffffffffffffffff168173ffffffffffffffffffffffffffffffffffffffff167f58f87a1afa170d4271347f7317cfc780d4aa25ad7a941fa28811a2485436ee3e60405160405180910390a350565b60015f9054906101000a900473ffffffffffffffffffffffffffffffffffffffff1673ffffffffffffffffffffffffffffffffffffffff163373ffffffffffffffffffffffffffffffffffffffff161480610b9d57505f5f9054906101000a900473ffffffffffffffffffffffffffffffffffffffff1673ffffffffffffffffffffffffffffffffffffffff163373ffffffffffffffffffffffffffffffffffffffff16145b610bdc576040517f08c379a0000000000000000000000000000000000000000000000000000000008152600401610bd390611036565b60405180910390fd5b600160035f6101000a81548160ff0219169083151502179055503373ffffffffffffffffffffffffffffffffffffffff167f3fb8cabbd30f03312e3221b5b1c7ce132ca5d72cf36143a1d6d33b11ad4eba2460405160405180910390a2565b5f5f9054906101000a900473ffffffffffffffffffffffffffffffffffffffff1673ffffffffffffffffffffffffffffffffffffffff163373ffffffffffffffffffffffffffffffffffffffff1614610cc9576040517f08c379a0000000000000000000000000000000000000000000000000000000008152600401610cc09061109e565b60405180910390fd5b5f60035f6101000a81548160ff0219169083151502179055503373ffffffffffffffffffffffffffffffffffffffff167f2d553fb579456929d17c4cf0dc43b2f2e8e5a8f917cadcc8a5f18e9c4010b75a60405160405180910390a2565b5f5ffd5b5f73ffffffffffffffffffffffffffffffffffffffff82169050919050565b5f610d5482610d2b565b9050919050565b610d6481610d4a565b8114610d6e575f5ffd5b50565b5f81359050610d7f81610d5b565b92915050565b5f60208284031215610d9a57610d99610d27565b5b5f610da784828501610d71565b91505092915050565b5f819050919050565b610dc281610db0565b82525050565b5f602082019050610ddb5f830184610db9565b92915050565b610dea81610db0565b8114610df4575f5ffd5b50565b5f81359050610e0581610de1565b92915050565b5f5f60408385031215610e2157610e20610d27565b5b5f610e2e85828601610d71565b9250506020610e3f85828601610df7565b9150509250929050565b5f8115159050919050565b610e5d81610e49565b82525050565b5f602082019050610e765f830184610e54565b92915050565b610e8581610d4a565b82525050565b5f602082019050610e9e5f830184610e7c565b92915050565b5f82825260208201905092915050565b7f50726f746f636f6c2050617573656400000000000000000000000000000000005f82015250565b5f610ee8600f83610ea4565b9150610ef382610eb4565b602082019050919050565b5f6020820190508181035f830152610f1581610edc565b9050919050565b7f41737365742050617573656400000000000000000000000000000000000000005f82015250565b5f610f50600c83610ea4565b9150610f5b82610f1c565b602082019050919050565b5f6020820190508181035f830152610f7d81610f44565b9050919050565b7f537570706c7920436170204578636565646564000000000000000000000000005f82015250565b5f610fb8601383610ea4565b9150610fc382610f84565b602082019050919050565b5f6020820190508181035f830152610fe581610fac565b9050919050565b7f4f6e6c7920477561726469616e206f72204f776e6572000000000000000000005f82015250565b5f611020601683610ea4565b915061102b82610fec565b602082019050919050565b5f6020820190508181035f83015261104d81611014565b9050919050565b7f4f6e6c79204f776e6572000000000000000000000000000000000000000000005f82015250565b5f611088600a83610ea4565b915061109382611054565b602082019050919050565b5f6020820190508181035f8301526110b58161107c565b905091905056fea264697066735822122077f784e1676e1835fe308707ffe03f609f6d6ce31d4ade3731902537934b114e64736f6c634300081e0033","linkReferences":{}},"methodIdentifiers":{"guardian()":"452a9320","isPaused(address)":"5b14f183","owner()":"8da5cb5b","pauseAsset(address)":"3753b14a","pauseProtocol()":"dbf62489","protocolPaused()":"425fad58","setGuardian(address)":"8a0dac4a","setSupplyCap(address,uint256)":"571f03e5","supplyCaps(address)":"02c3bcbb","unpauseAsset(address)":"9abacb41","unpauseProtocol()":"f93b6be5","validateBorrow(address)":"2442b840","validateSupply(address,uint256)":"03ec0201","validateWithdraw(address)":"0a27a6c1"},"id":22}