{"abi":[{"type":"constructor","inputs":[{"name":"_lendingPool","type":"address","internalType":"address"}],"stateMutability":"nonpayable"},{"type":"function","name":"lendingPool","inputs":[],"outputs":[{"name":"","type":"address","internalType":"address"}],"stateMutability":"view"},{"type":"function","name":"receiveMessage","inputs":[{"name":"sourceChainId","type":"uint256","internalType":"uint256"},{"name":"payload","type":"bytes","internalType":"bytes"}],"outputs":[],"stateMutability":"nonpayable"},{"type":"function","name":"sendCrossChainDeposit","inputs":[{"name":"destinationChainId","type":"uint256","internalType":"uint256"},{"name":"asset","type":"address","internalType":"address"},{"name":"amount","type":"uint256","internalType":"uint256"}],"outputs":[],"stateMutability":"nonpayable"},{"type":"event","name":"MessageReceived","inputs":[{"name":"sourceChainId","type":"uint256","indexed":false,"internalType":"uint256"},{"name":"payload","type":"bytes","indexed":false,"internalType":"bytes"}],"anonymous":false},{"type":"event","name":"MessageSent","inputs":[{"name":"destinationChainId","type":"uint256","indexed":false,"internalType":"uint256"},{"name":"payload","type":"bytes","indexed":false,"internalType":"bytes"}],"anonymous":false}],"bytecode":{"object":"0x608060405234801561000f575f5ffd5b50604051610826380380610826833981810160405281019061003191906100d4565b805f5f6101000a81548173ffffffffffffffffffffffffffffffffffffffff021916908373ffffffffffffffffffffffffffffffffffffffff160217905550506100ff565b5f5ffd5b5f73ffffffffffffffffffffffffffffffffffffffff82169050919050565b5f6100a38261007a565b9050919050565b6100b381610099565b81146100bd575f5ffd5b50565b5f815190506100ce816100aa565b92915050565b5f602082840312156100e9576100e8610076565b5b5f6100f6848285016100c0565b91505092915050565b61071a8061010c5f395ff3fe608060405234801561000f575f5ffd5b506004361061003f575f3560e01c806304291b5614610043578063a59a99731461005f578063ae87a4631461007d575b5f5ffd5b61005d60048036038101906100589190610227565b610099565b005b6100676100f8565b60405161007491906102c3565b60405180910390f35b61009760048036038101906100929190610306565b61011c565b005b5f5f5f5f85858101906100ac91906104c9565b93509350935093507f6c3543130e60b15dd1f1f886e61a65ec337da34b356e078fcfe585b5578f39ef8787876040516100e793929190610594565b60405180910390a150505050505050565b5f5f9054906101000a900473ffffffffffffffffffffffffffffffffffffffff1681565b5f3383836040516020016101329392919061061e565b60405160208183030381529060405290507fc1e271f263065bc3b169d06081240d2ff08b66bb5ac5f5651eab1072f5571cc484826040516101749291906106b6565b60405180910390a150505050565b5f604051905090565b5f5ffd5b5f5ffd5b5f819050919050565b6101a581610193565b81146101af575f5ffd5b50565b5f813590506101c08161019c565b92915050565b5f5ffd5b5f5ffd5b5f5ffd5b5f5f83601f8401126101e7576101e66101c6565b5b8235905067ffffffffffffffff811115610204576102036101ca565b5b6020830191508360018202830111156102205761021f6101ce565b5b9250929050565b5f5f5f6040848603121561023e5761023d61018b565b5b5f61024b868287016101b2565b935050602084013567ffffffffffffffff81111561026c5761026b61018f565b5b610278868287016101d2565b92509250509250925092565b5f73ffffffffffffffffffffffffffffffffffffffff82169050919050565b5f6102ad82610284565b9050919050565b6102bd816102a3565b82525050565b5f6020820190506102d65f8301846102b4565b92915050565b6102e5816102a3565b81146102ef575f5ffd5b50565b5f81359050610300816102dc565b92915050565b5f5f5f6060848603121561031d5761031c61018b565b5b5f61032a868287016101b2565b935050602061033b868287016102f2565b925050604061034c868287016101b2565b9150509250925092565b5f61036082610284565b9050919050565b61037081610356565b811461037a575f5ffd5b50565b5f8135905061038b81610367565b92915050565b5f5ffd5b5f601f19601f8301169050919050565b7f4e487b71000000000000000000000000000000000000000000000000000000005f52604160045260245ffd5b6103db82610395565b810181811067ffffffffffffffff821117156103fa576103f96103a5565b5b80604052505050565b5f61040c610182565b905061041882826103d2565b919050565b5f67ffffffffffffffff821115610437576104366103a5565b5b61044082610395565b9050602081019050919050565b828183375f83830152505050565b5f61046d6104688461041d565b610403565b90508281526020810184848401111561048957610488610391565b5b61049484828561044d565b509392505050565b5f82601f8301126104b0576104af6101c6565b5b81356104c084826020860161045b565b91505092915050565b5f5f5f5f608085870312156104e1576104e061018b565b5b5f6104ee8782880161037d565b94505060206104ff8782880161037d565b9350506040610510878288016101b2565b925050606085013567ffffffffffffffff8111156105315761053061018f565b5b61053d8782880161049c565b91505092959194509250565b61055281610193565b82525050565b5f82825260208201905092915050565b5f6105738385610558565b935061058083858461044d565b61058983610395565b840190509392505050565b5f6040820190506105a75f830186610549565b81810360208301526105ba818486610568565b9050949350505050565b5f82825260208201905092915050565b7f4445504f534954000000000000000000000000000000000000000000000000005f82015250565b5f6106086007836105c4565b9150610613826105d4565b602082019050919050565b5f6080820190506106315f8301866102b4565b61063e60208301856102b4565b61064b6040830184610549565b818103606083015261065c816105fc565b9050949350505050565b5f81519050919050565b8281835e5f83830152505050565b5f61068882610666565b6106928185610558565b93506106a2818560208601610670565b6106ab81610395565b840191505092915050565b5f6040820190506106c95f830185610549565b81810360208301526106db818461067e565b9050939250505056fea2646970667358221220cdd705f08ac4dd188231d9ddea7e225cb893a6729dbf07fd52b3ca90ca7810f364736f6c634300081e0033","linkReferences":{}},"methodIdentifiers":{"lendingPool()":"a59a9973","receiveMessage(uint256,bytes)":"04291b56","sendCrossChainDeposit(uint256,address,uint256)":"ae87a463"},"id":20}