{"abi":[{"type":"constructor","inputs":[{"name":"_lendingPool","type":"address","internalType":"address"}],"stateMutability":"nonpayable"},{"type":"function","name":"lendingPool","inputs":[],"outputs":[{"name":"","type":"address","internalType":"address"}],"stateMutability":"view"},{"type":"function","name":"receiveMessage","inputs":[{"name":"sourceChainId","type":"uint256","internalType":"uint256"},{"name":"payload","type":"bytes","internalType":"bytes"}],"outputs":[],"stateMutability":"nonpayable"},{"type":"function","name":"sendCrossChainDeposit","inputs":[{"name":"destinationChainId","type":"uint256","internalType":"uint256"},{"name":"asset","type":"address","internalType":"address"},{"name":"amount","type":"uint256","internalType":"uint256"},{"name":"recipient","type":"address","internalType":"address"}],"outputs":[],"stateMutability":"nonpayable"},{"type":"event","name":"MessageReceived","inputs":[{"name":"sourceChainId","type":"uint256","indexed":false,"internalType":"uint256"},{"name":"payload","type":"bytes","indexed":false,"internalType":"bytes"}],"anonymous":false},{"type":"event","name":"MessageSent","inputs":[{"name":"destinationChainId","type":"uint256","indexed":false,"internalType":"uint256"},{"name":"payload","type":"bytes","indexed":false,"internalType":"bytes"}],"anonymous":false}],"bytecode":{"object":"0x608060405234801561000f575f5ffd5b506040516109f13803806109f1833981810160405281019061003191906100d4565b805f5f6101000a81548173ffffffffffffffffffffffffffffffffffffffff021916908373ffffffffffffffffffffffffffffffffffffffff160217905550506100ff565b5f5ffd5b5f73ffffffffffffffffffffffffffffffffffffffff82169050919050565b5f6100a38261007a565b9050919050565b6100b381610099565b81146100bd575f5ffd5b50565b5f815190506100ce816100aa565b92915050565b5f602082840312156100e9576100e8610076565b5b5f6100f6848285016100c0565b91505092915050565b6108e58061010c5f395ff3fe608060405234801561000f575f5ffd5b506004361061003f575f3560e01c806304291b5614610043578063a59a99731461005f578063ea83cb2a1461007d575b5f5ffd5b61005d60048036038101906100589190610322565b610099565b005b610067610174565b60405161007491906103be565b60405180910390f35b61009760048036038101906100929190610401565b610198565b005b5f5f5f5f85858101906100ac91906105d8565b93509350935093508273ffffffffffffffffffffffffffffffffffffffff1663a9059cbb85846040518363ffffffff1660e01b81526004016100ef929190610667565b6020604051808303815f875af115801561010b573d5f5f3e3d5ffd5b505050506040513d601f19601f8201168201806040525081019061012f91906106c3565b507f6c3543130e60b15dd1f1f886e61a65ec337da34b356e078fcfe585b5578f39ef8787876040516101639392919061072a565b60405180910390a150505050505050565b5f5f9054906101000a900473ffffffffffffffffffffffffffffffffffffffff1681565b8273ffffffffffffffffffffffffffffffffffffffff166323b872dd3330856040518463ffffffff1660e01b81526004016101d59392919061075a565b6020604051808303815f875af11580156101f1573d5f5f3e3d5ffd5b505050506040513d601f19601f8201168201806040525081019061021591906106c3565b505f81848460405160200161022c939291906107e9565b60405160208183030381529060405290507fc1e271f263065bc3b169d06081240d2ff08b66bb5ac5f5651eab1072f5571cc4858260405161026e929190610881565b60405180910390a15050505050565b5f604051905090565b5f5ffd5b5f5ffd5b5f819050919050565b6102a08161028e565b81146102aa575f5ffd5b50565b5f813590506102bb81610297565b92915050565b5f5ffd5b5f5ffd5b5f5ffd5b5f5f83601f8401126102e2576102e16102c1565b5b8235905067ffffffffffffffff8111156102ff576102fe6102c5565b5b60208301915083600182028301111561031b5761031a6102c9565b5b9250929050565b5f5f5f6040848603121561033957610338610286565b5b5f610346868287016102ad565b935050602084013567ffffffffffffffff8111156103675761036661028a565b5b610373868287016102cd565b92509250509250925092565b5f73ffffffffffffffffffffffffffffffffffffffff82169050919050565b5f6103a88261037f565b9050919050565b6103b88161039e565b82525050565b5f6020820190506103d15f8301846103af565b92915050565b6103e08161039e565b81146103ea575f5ffd5b50565b5f813590506103fb816103d7565b92915050565b5f5f5f5f6080858703121561041957610418610286565b5b5f610426878288016102ad565b9450506020610437878288016103ed565b9350506040610448878288016102ad565b9250506060610459878288016103ed565b91505092959194509250565b5f61046f8261037f565b9050919050565b61047f81610465565b8114610489575f5ffd5b50565b5f8135905061049a81610476565b92915050565b5f5ffd5b5f601f19601f8301169050919050565b7f4e487b71000000000000000000000000000000000000000000000000000000005f52604160045260245ffd5b6104ea826104a4565b810181811067ffffffffffffffff82111715610509576105086104b4565b5b80604052505050565b5f61051b61027d565b905061052782826104e1565b919050565b5f67ffffffffffffffff821115610546576105456104b4565b5b61054f826104a4565b9050602081019050919050565b828183375f83830152505050565b5f61057c6105778461052c565b610512565b905082815260208101848484011115610598576105976104a0565b5b6105a384828561055c565b509392505050565b5f82601f8301126105bf576105be6102c1565b5b81356105cf84826020860161056a565b91505092915050565b5f5f5f5f608085870312156105f0576105ef610286565b5b5f6105fd8782880161048c565b945050602061060e8782880161048c565b935050604061061f878288016102ad565b925050606085013567ffffffffffffffff8111156106405761063f61028a565b5b61064c878288016105ab565b91505092959194509250565b6106618161028e565b82525050565b5f60408201905061067a5f8301856103af565b6106876020830184610658565b9392505050565b5f8115159050919050565b6106a28161068e565b81146106ac575f5ffd5b50565b5f815190506106bd81610699565b92915050565b5f602082840312156106d8576106d7610286565b5b5f6106e5848285016106af565b91505092915050565b5f82825260208201905092915050565b5f61070983856106ee565b935061071683858461055c565b61071f836104a4565b840190509392505050565b5f60408201905061073d5f830186610658565b81810360208301526107508184866106fe565b9050949350505050565b5f60608201905061076d5f8301866103af565b61077a60208301856103af565b6107876040830184610658565b949350505050565b5f82825260208201905092915050565b7f4445504f534954000000000000000000000000000000000000000000000000005f82015250565b5f6107d360078361078f565b91506107de8261079f565b602082019050919050565b5f6080820190506107fc5f8301866103af565b61080960208301856103af565b6108166040830184610658565b8181036060830152610827816107c7565b9050949350505050565b5f81519050919050565b8281835e5f83830152505050565b5f61085382610831565b61085d81856106ee565b935061086d81856020860161083b565b610876816104a4565b840191505092915050565b5f6040820190506108945f830185610658565b81810360208301526108a68184610849565b9050939250505056fea264697066735822122065f5c8ac671643104ec5ea51c76189dcb2530c5a04ad0a8f728627ddaec1684c64736f6c634300081e0033","linkReferences":{}},"methodIdentifiers":{"lendingPool()":"a59a9973","receiveMessage(uint256,bytes)":"04291b56","sendCrossChainDeposit(uint256,address,uint256,address)":"ea83cb2a"},"id":17}