{"abi":[{"type":"constructor","inputs":[{"name":"_lendingPool","type":"address","internalType":"address"}],"stateMutability":"nonpayable"},{"type":"function","name":"lendingPool","inputs":[],"outputs":[{"name":"","type":"address","internalType":"address"}],"stateMutability":"view"},{"type":"function","name":"receiveMessage","inputs":[{"name":"sourceChainId","type":"uint256","internalType":"uint256"},{"name":"payload","type":"bytes","internalType":"bytes"}],"outputs":[],"stateMutability":"nonpayable"},{"type":"function","name":"sendCrossChainDeposit","inputs":[{"name":"destinationChainId","type":"uint256","internalType":"uint256"},{"name":"asset","type":"address","internalType":"address"},{"name":"amount","type":"uint256","internalType":"uint256"},{"name":"recipient","type":"address","internalType":"address"}],"outputs":[],"stateMutability":"nonpayable"},{"type":"event","name":"MessageReceived","inputs":[{"name":"sourceChainId","type":"uint256","indexed":false,"internalType":"uint256"},{"name":"payload","type":"bytes","indexed":false,"internalType":"bytes"}],"anonymous":false},{"type":"event","name":"MessageSent","inputs":[{"name":"destinationChainId","type":"uint256","indexed":false,"internalType":"uint256"},{"name":"payload","type":"bytes","indexed":false,"internalType":"bytes"}],"anonymous":false}],"bytecode":{"object":"0x608034606f57601f61046c38819003918201601f19168301916001600160401b03831184841017607357808492602094604052833981010312606f57516001600160a01b03811690819003606f575f80546001600160a01b0319169190911790556040516103e490816100888239f35b5f80fd5b634e487b7160e01b5f52604160045260245ffdfe6080806040526004361015610012575f80fd5b5f3560e01c90816304291b56146101b157508063a59a99731461018a5763ea83cb2a1461003d575f80fd5b34610186576080366003190112610186576024356001600160a01b03811690819003610186576064356001600160a01b0381169060443590829003610186576040516323b872dd60e01b815233600482015230602482015260448101829052926020846064815f855af191821561017b577fc1e271f263065bc3b169d06081240d2ff08b66bb5ac5f5651eab1072f5571cc49460609361014e575b506040519160208301948552604083015282820152608080820152600760a08201526611115413d4d25560ca1b60c082015260c0815261011960e082610374565b6040519283916004358352604060208401525180918160408501528484015e5f828201840152601f01601f19168101030190a1005b61016f9060203d602011610174575b6101678183610374565b810190610396565b6100d8565b503d61015d565b6040513d5f823e3d90fd5b5f80fd5b34610186575f366003190112610186575f546040516001600160a01b039091168152602090f35b34610186576040366003190112610186576024359067ffffffffffffffff821161018657366023830112156101865781600401359067ffffffffffffffff821161018657602483019082840193602485019436861161018657608090829003126101865761021e83610360565b9461022b60448301610360565b95608483013567ffffffffffffffff811161018657830191806043840112156101865760248301359067ffffffffffffffff821161034c57610277601f8301601f191660200187610374565b81865260448483010111610186576064975f6020838198839560448099018483013701015260405163a9059cbb60e01b81526001600160a01b0393841660048201529890940135602489015287938492165af190811561017b577f6c3543130e60b15dd1f1f886e61a65ec337da34b356e078fcfe585b5578f39ef9360609261032f575b5082604051938492600435845260406020850152816040850152848401375f828201840152601f01601f19168101030190a1005b6103479060203d602011610174576101678183610374565b6102fb565b634e487b7160e01b5f52604160045260245ffd5b35906001600160a01b038216820361018657565b90601f8019910116810190811067ffffffffffffffff82111761034c57604052565b9081602091031261018657518015158103610186579056fea26469706673582212207b009a1b4af9d6937b35ab753b2e93b68ca61e4e9e3929a4487d48c7e7d19d0264736f6c634300081e0033","linkReferences":{}},"methodIdentifiers":{"lendingPool()":"a59a9973","receiveMessage(uint256,bytes)":"04291b56","sendCrossChainDeposit(uint256,address,uint256,address)":"ea83cb2a"},"id":18}