{"abi":[{"type":"function","name":"TIMEOUT","inputs":[],"outputs":[{"name":"","type":"uint256","internalType":"uint256"}],"stateMutability":"view"},{"type":"error","name":"OraclePriceNegative","inputs":[{"name":"asset","type":"address","internalType":"address"},{"name":"price","type":"int256","internalType":"int256"}]},{"type":"error","name":"OraclePriceStale","inputs":[{"name":"asset","type":"address","internalType":"address"},{"name":"updatedAt","type":"uint256","internalType":"uint256"},{"name":"heartbeat","type":"uint256","internalType":"uint256"}]}],"bytecode":{"object":"0x6080806040523460175760719081601c823930815050f35b5f80fdfe60808060405260043610156011575f80fd5b5f3560e01c63f56f48f2146023575f80fd5b5f36600319011260375780612a3060209252f35b5f80fdfea26469706673582212208cb53b2a6d48eebb85973691610c758062b2ec817896a74d36a1d1408793eb6b64736f6c634300081e0033","linkReferences":{}},"methodIdentifiers":{"TIMEOUT()":"f56f48f2"},"id":27}