{"abi":[{"type":"function","name":"TIMEOUT","inputs":[],"outputs":[{"name":"","type":"uint256","internalType":"uint256"}],"stateMutability":"view"},{"type":"error","name":"OraclePriceNegative","inputs":[{"name":"asset","type":"address","internalType":"address"},{"name":"price","type":"int256","internalType":"int256"}]},{"type":"error","name":"OraclePriceStale","inputs":[{"name":"asset","type":"address","internalType":"address"},{"name":"updatedAt","type":"uint256","internalType":"uint256"},{"name":"heartbeat","type":"uint256","internalType":"uint256"}]}],"bytecode":{"object":"0x60b961004c600b8282823980515f1a6073146040577f4e487b71000000000000000000000000000000000000000000000000000000005f525f60045260245ffd5b305f52607381538281f3fe73000000000000000000000000000000000000000030146080604052600436106032575f3560e01c8063f56f48f2146036575b5f5ffd5b603c6050565b60405160479190606c565b60405180910390f35b612a3081565b5f819050919050565b6066816056565b82525050565b5f602082019050607d5f830184605f565b9291505056fea2646970667358221220dcc84b3b6b85bf0c4c53e9dbadc72d7e32a7c52af97f25991027e456d717977364736f6c634300081e0033","linkReferences":{}},"methodIdentifiers":{"TIMEOUT()":"f56f48f2"},"id":23}