{"abi":[{"type":"constructor","inputs":[{"name":"_oracle","type":"address","internalType":"address"}],"stateMutability":"nonpayable"},{"type":"function","name":"PRECISION","inputs":[],"outputs":[{"name":"","type":"uint256","internalType":"uint256"}],"stateMutability":"view"},{"type":"function","name":"WAD","inputs":[],"outputs":[{"name":"","type":"uint256","internalType":"uint256"}],"stateMutability":"view"},{"type":"function","name":"baseRate","inputs":[],"outputs":[{"name":"","type":"uint256","internalType":"uint256"}],"stateMutability":"view"},{"type":"function","name":"calculateInterestRates","inputs":[{"name":"asset","type":"address","internalType":"address"},{"name":"totalBorrowed","type":"uint256","internalType":"uint256"},{"name":"totalLiquidity","type":"uint256","internalType":"uint256"}],"outputs":[{"name":"liquidityRate","type":"uint256","internalType":"uint256"},{"name":"variableBorrowRate","type":"uint256","internalType":"uint256"}],"stateMutability":"view"},{"type":"function","name":"configureAsset","inputs":[{"name":"asset","type":"address","internalType":"address"},{"name":"_ltv","type":"uint256","internalType":"uint256"},{"name":"_threshold","type":"uint256","internalType":"uint256"}],"outputs":[],"stateMutability":"nonpayable"},{"type":"function","name":"getUserAccountData","inputs":[{"name":"user","type":"address","internalType":"address"}],"outputs":[{"name":"totalCollateralETH","type":"uint256","internalType":"uint256"},{"name":"totalDebtETH","type":"uint256","internalType":"uint256"}],"stateMutability":"view"},{"type":"function","name":"getUserHealthFactor","inputs":[{"name":"user","type":"address","internalType":"address"}],"outputs":[{"name":"","type":"uint256","internalType":"uint256"}],"stateMutability":"view"},{"type":"function","name":"getUtilization","inputs":[{"name":"totalBorrowed","type":"uint256","internalType":"uint256"},{"name":"totalLiquidity","type":"uint256","internalType":"uint256"}],"outputs":[{"name":"","type":"uint256","internalType":"uint256"}],"stateMutability":"pure"},{"type":"function","name":"liquidationThreshold","inputs":[{"name":"","type":"address","internalType":"address"}],"outputs":[{"name":"","type":"uint256","internalType":"uint256"}],"stateMutability":"view"},{"type":"function","name":"ltv","inputs":[{"name":"","type":"address","internalType":"address"}],"outputs":[{"name":"","type":"uint256","internalType":"uint256"}],"stateMutability":"view"},{"type":"function","name":"optimalUtilization","inputs":[],"outputs":[{"name":"","type":"uint256","internalType":"uint256"}],"stateMutability":"view"},{"type":"function","name":"oracle","inputs":[],"outputs":[{"name":"","type":"address","internalType":"contract PriceOracle"}],"stateMutability":"view"},{"type":"function","name":"pool","inputs":[],"outputs":[{"name":"","type":"address","internalType":"contract LendingPool"}],"stateMutability":"view"},{"type":"function","name":"reserveFactor","inputs":[],"outputs":[{"name":"","type":"uint256","internalType":"uint256"}],"stateMutability":"view"},{"type":"function","name":"setPool","inputs":[{"name":"_pool","type":"address","internalType":"address"}],"outputs":[],"stateMutability":"nonpayable"},{"type":"function","name":"slope1","inputs":[],"outputs":[{"name":"","type":"uint256","internalType":"uint256"}],"stateMutability":"view"},{"type":"function","name":"slope2","inputs":[],"outputs":[{"name":"","type":"uint256","internalType":"uint256"}],"stateMutability":"view"},{"type":"function","name":"validateBorrow","inputs":[{"name":"user","type":"address","internalType":"address"},{"name":"asset","type":"address","internalType":"address"},{"name":"amount","type":"uint256","internalType":"uint256"}],"outputs":[{"name":"","type":"bool","internalType":"bool"}],"stateMutability":"view"},{"type":"function","name":"validateLiquidation","inputs":[{"name":"user","type":"address","internalType":"address"},{"name":"collateralAsset","type":"address","internalType":"address"},{"name":"debtAsset","type":"address","internalType":"address"},{"name":"debtToCover","type":"uint256","internalType":"uint256"}],"outputs":[{"name":"","type":"bool","internalType":"bool"}],"stateMutability":"view"}],"bytecode":{"object":"0x608034609d57601f61069738819003918201601f19168301916001600160401b0383118484101760a157808492602094604052833981010312609d57516001600160a01b03811690819003609d575f600455668e1bc9bf040000600555670853a0d2313c0000600655670b1a2bc2ec50000060075567016345785d8a000060085560018060a01b03195f5416175f556040516105e190816100b68239f35b5f80fd5b634e487b7160e01b5f52604160045260245ffdfe60806040526004361015610011575f80fd5b5f3560e01c80630ac35529146103cb57806316f0115b146103a35780631c96d70c146103755780631f68f20a146103585780634322b7141461033b5780634437152a146102fd57806346dda358146102d45780636290cd1c146102b75780636a1460241461029557806371cbfc981461026f5780637473eea6146102375780637dc0d1d0146102105780639769d868146101da578063a62b75a8146101bd578063aaf5eb68146101a1578063b1732b2514610169578063bf92857c14610140578063d0134cb7146101235763ddd07b76146100ea575f80fd5b3461011f576100f8366104fc565b6001600160a01b039092165f90815260026020908152604080832093909355600390522055005b5f80fd5b3461011f575f36600319011261011f576020600654604051908152f35b3461011f57602036600319011261011f576101596104ba565b50604080515f81525f6020820152f35b3461011f57602036600319011261011f576001600160a01b0361018a6104ba565b165f526003602052602060405f2054604051908152f35b3461011f575f36600319011261011f5760206040516127108152f35b3461011f575f36600319011261011f576020600554604051908152f35b3461011f57608036600319011261011f576101f36104ba565b506101fc6104d0565b506102056104e6565b5060206040515f8152f35b3461011f575f36600319011261011f575f546040516001600160a01b039091168152602090f35b3461011f57602036600319011261011f576001600160a01b036102586104ba565b165f526002602052602060405f2054604051908152f35b3461011f57602036600319011261011f576102886104ba565b506040515f198152602090f35b3461011f575f36600319011261011f576020604051670de0b6b3a76400008152f35b3461011f575f36600319011261011f576020600754604051908152f35b3461011f57604036600319011261011f5760206102f5602435600435610571565b604051908152f35b3461011f57602036600319011261011f576001600160a01b0361031e6104ba565b166bffffffffffffffffffffffff60a01b60015416176001555f80f35b3461011f575f36600319011261011f576020600854604051908152f35b3461011f575f36600319011261011f576020600454604051908152f35b3461011f57606036600319011261011f5761038e6104ba565b506103976104d0565b50602060405160018152f35b3461011f575f36600319011261011f576001546040516001600160a01b039091168152602090f35b3461011f576103e36103dc366104fc565b9150610571565b6007549081811161044a57670de0b6b3a764000061043c61041e6040946104186004549161041360055488610540565b610553565b90610533565b925b6104378361043060085487610540565b0485610526565b610540565b049082519182526020820152f35b6104548282610526565b91670de0b6b3a764000003670de0b6b3a764000081116104a65761043c6104a0604094610418670de0b6b3a76400009461041361049660045460055490610533565b9360065490610540565b92610420565b634e487b7160e01b5f52601160045260245ffd5b600435906001600160a01b038216820361011f57565b602435906001600160a01b038216820361011f57565b604435906001600160a01b038216820361011f57565b606090600319011261011f576004356001600160a01b038116810361011f57906024359060443590565b919082039182116104a657565b919082018092116104a657565b818102929181159184041417156104a657565b811561055d570490565b634e487b7160e01b5f52601260045260245ffd5b9080156105a557670de0b6b3a7640000820291808304670de0b6b3a764000014901517156104a6576105a291610553565b90565b50505f9056fea2646970667358221220d385bcf7175f5686a344e79ebe3200f48c57a610339b8348756ed8978fa441b864736f6c634300081e0033","linkReferences":{}},"methodIdentifiers":{"PRECISION()":"aaf5eb68","WAD()":"6a146024","baseRate()":"1f68f20a","calculateInterestRates(address,uint256,uint256)":"0ac35529","configureAsset(address,uint256,uint256)":"ddd07b76","getUserAccountData(address)":"bf92857c","getUserHealthFactor(address)":"71cbfc98","getUtilization(uint256,uint256)":"46dda358","liquidationThreshold(address)":"b1732b25","ltv(address)":"7473eea6","optimalUtilization()":"6290cd1c","oracle()":"7dc0d1d0","pool()":"16f0115b","reserveFactor()":"4322b714","setPool(address)":"4437152a","slope1()":"a62b75a8","slope2()":"d0134cb7","validateBorrow(address,address,uint256)":"1c96d70c","validateLiquidation(address,address,address,uint256)":"9769d868"},"id":16}