{"abi":[{"type":"constructor","inputs":[{"name":"_oracle","type":"address","internalType":"address"}],"stateMutability":"nonpayable"},{"type":"function","name":"PRECISION","inputs":[],"outputs":[{"name":"","type":"uint256","internalType":"uint256"}],"stateMutability":"view"},{"type":"function","name":"WAD","inputs":[],"outputs":[{"name":"","type":"uint256","internalType":"uint256"}],"stateMutability":"view"},{"type":"function","name":"baseRate","inputs":[],"outputs":[{"name":"","type":"uint256","internalType":"uint256"}],"stateMutability":"view"},{"type":"function","name":"calculateInterestRates","inputs":[{"name":"asset","type":"address","internalType":"address"},{"name":"totalBorrowed","type":"uint256","internalType":"uint256"},{"name":"totalLiquidity","type":"uint256","internalType":"uint256"}],"outputs":[{"name":"liquidityRate","type":"uint256","internalType":"uint256"},{"name":"variableBorrowRate","type":"uint256","internalType":"uint256"}],"stateMutability":"view"},{"type":"function","name":"configureAsset","inputs":[{"name":"asset","type":"address","internalType":"address"},{"name":"_ltv","type":"uint256","internalType":"uint256"},{"name":"_threshold","type":"uint256","internalType":"uint256"}],"outputs":[],"stateMutability":"nonpayable"},{"type":"function","name":"getUserAccountData","inputs":[{"name":"user","type":"address","internalType":"address"}],"outputs":[{"name":"totalCollateralETH","type":"uint256","internalType":"uint256"},{"name":"totalDebtETH","type":"uint256","internalType":"uint256"}],"stateMutability":"view"},{"type":"function","name":"getUserHealthFactor","inputs":[{"name":"user","type":"address","internalType":"address"}],"outputs":[{"name":"","type":"uint256","internalType":"uint256"}],"stateMutability":"view"},{"type":"function","name":"getUtilization","inputs":[{"name":"totalBorrowed","type":"uint256","internalType":"uint256"},{"name":"totalLiquidity","type":"uint256","internalType":"uint256"}],"outputs":[{"name":"","type":"uint256","internalType":"uint256"}],"stateMutability":"pure"},{"type":"function","name":"liquidationThreshold","inputs":[{"name":"","type":"address","internalType":"address"}],"outputs":[{"name":"","type":"uint256","internalType":"uint256"}],"stateMutability":"view"},{"type":"function","name":"ltv","inputs":[{"name":"","type":"address","internalType":"address"}],"outputs":[{"name":"","type":"uint256","internalType":"uint256"}],"stateMutability":"view"},{"type":"function","name":"optimalUtilization","inputs":[],"outputs":[{"name":"","type":"uint256","internalType":"uint256"}],"stateMutability":"view"},{"type":"function","name":"oracle","inputs":[],"outputs":[{"name":"","type":"address","internalType":"contract PriceOracle"}],"stateMutability":"view"},{"type":"function","name":"pool","inputs":[],"outputs":[{"name":"","type":"address","internalType":"contract LendingPool"}],"stateMutability":"view"},{"type":"function","name":"reserveFactor","inputs":[],"outputs":[{"name":"","type":"uint256","internalType":"uint256"}],"stateMutability":"view"},{"type":"function","name":"setPool","inputs":[{"name":"_pool","type":"address","internalType":"address"}],"outputs":[],"stateMutability":"nonpayable"},{"type":"function","name":"slope1","inputs":[],"outputs":[{"name":"","type":"uint256","internalType":"uint256"}],"stateMutability":"view"},{"type":"function","name":"slope2","inputs":[],"outputs":[{"name":"","type":"uint256","internalType":"uint256"}],"stateMutability":"view"},{"type":"function","name":"validateBorrow","inputs":[{"name":"user","type":"address","internalType":"address"},{"name":"asset","type":"address","internalType":"address"},{"name":"amount","type":"uint256","internalType":"uint256"}],"outputs":[{"name":"","type":"bool","internalType":"bool"}],"stateMutability":"view"},{"type":"function","name":"validateLiquidation","inputs":[{"name":"user","type":"address","internalType":"address"},{"name":"collateralAsset","type":"address","internalType":"address"},{"name":"debtAsset","type":"address","internalType":"address"},{"name":"debtToCover","type":"uint256","internalType":"uint256"}],"outputs":[{"name":"","type":"bool","internalType":"bool"}],"stateMutability":"view"}],"bytecode":{"object":"0x60806040525f600455668e1bc9bf040000600555670853a0d2313c0000600655670b1a2bc2ec50000060075567016345785d8a0000600855348015610042575f5ffd5b50604051610d13380380610d1383398181016040528101906100649190610107565b805f5f6101000a81548173ffffffffffffffffffffffffffffffffffffffff021916908373ffffffffffffffffffffffffffffffffffffffff16021790555050610132565b5f5ffd5b5f73ffffffffffffffffffffffffffffffffffffffff82169050919050565b5f6100d6826100ad565b9050919050565b6100e6816100cc565b81146100f0575f5ffd5b50565b5f81519050610101816100dd565b92915050565b5f6020828403121561011c5761011b6100a9565b5b5f610129848285016100f3565b91505092915050565b610bd48061013f5f395ff3fe608060405234801561000f575f5ffd5b506004361061011f575f3560e01c806371cbfc98116100ab578063aaf5eb681161006f578063aaf5eb6814610332578063b1732b2514610350578063bf92857c14610380578063d0134cb7146103b1578063ddd07b76146103cf5761011f565b806371cbfc98146102665780637473eea6146102965780637dc0d1d0146102c65780639769d868146102e4578063a62b75a8146103145761011f565b80634322b714116100f25780634322b714146101c05780634437152a146101de57806346dda358146101fa5780636290cd1c1461022a5780636a146024146102485761011f565b80630ac355291461012357806316f0115b146101545780631c96d70c146101725780631f68f20a146101a2575b5f5ffd5b61013d600480360381019061013891906107d1565b6103eb565b60405161014b929190610830565b60405180910390f35b61015c6104f3565b60405161016991906108b2565b60405180910390f35b61018c600480360381019061018791906108cb565b610518565b6040516101999190610935565b60405180910390f35b6101aa610524565b6040516101b7919061094e565b60405180910390f35b6101c861052a565b6040516101d5919061094e565b60405180910390f35b6101f860048036038101906101f39190610967565b610530565b005b610214600480360381019061020f9190610992565b610573565b604051610221919061094e565b60405180910390f35b6102326105ab565b60405161023f919061094e565b60405180910390f35b6102506105b1565b60405161025d919061094e565b60405180910390f35b610280600480360381019061027b9190610967565b6105bd565b60405161028d919061094e565b60405180910390f35b6102b060048036038101906102ab9190610967565b610627565b6040516102bd919061094e565b60405180910390f35b6102ce61063c565b6040516102db91906109f0565b60405180910390f35b6102fe60048036038101906102f99190610a09565b610660565b60405161030b9190610935565b60405180910390f35b61031c610683565b604051610329919061094e565b60405180910390f35b61033a610689565b604051610347919061094e565b60405180910390f35b61036a60048036038101906103659190610967565b61068f565b604051610377919061094e565b60405180910390f35b61039a60048036038101906103959190610967565b6106a4565b6040516103a8929190610830565b60405180910390f35b6103b96106b1565b6040516103c6919061094e565b60405180910390f35b6103e960048036038101906103e491906107d1565b6106b7565b005b5f5f5f6103f88585610573565b9050600754811161043257600754600554826104149190610a9a565b61041e9190610b08565b60045461042b9190610b38565b9150610494565b5f600754826104419190610b6b565b90505f600754670de0b6b3a764000061045a9190610b6b565b9050806006548361046b9190610a9a565b6104759190610b08565b6005546004546104859190610b38565b61048f9190610b38565b935050505b5f670de0b6b3a7640000600854846104ac9190610a9a565b6104b69190610b08565b90505f81846104c59190610b6b565b9050670de0b6b3a764000083826104dc9190610a9a565b6104e69190610b08565b9450505050935093915050565b60015f9054906101000a900473ffffffffffffffffffffffffffffffffffffffff1681565b5f600190509392505050565b60045481565b60085481565b8060015f6101000a81548173ffffffffffffffffffffffffffffffffffffffff021916908373ffffffffffffffffffffffffffffffffffffffff16021790555050565b5f5f8203610583575f90506105a5565b81670de0b6b3a7640000846105989190610a9a565b6105a29190610b08565b90505b92915050565b60075481565b670de0b6b3a764000081565b5f5f5f6105c9846106a4565b915091505f81036105fe577fffffffffffffffffffffffffffffffffffffffffffffffffffffffffffffffff92505050610622565b80670de0b6b3a7640000836106139190610a9a565b61061d9190610b08565b925050505b919050565b6002602052805f5260405f205f915090505481565b5f5f9054906101000a900473ffffffffffffffffffffffffffffffffffffffff1681565b5f5f61066b866105bd565b9050670de0b6b3a76400008110915050949350505050565b60055481565b61271081565b6003602052805f5260405f205f915090505481565b5f5f5f5f91509150915091565b60065481565b8160025f8573ffffffffffffffffffffffffffffffffffffffff1673ffffffffffffffffffffffffffffffffffffffff1681526020019081526020015f20819055508060035f8573ffffffffffffffffffffffffffffffffffffffff1673ffffffffffffffffffffffffffffffffffffffff1681526020019081526020015f2081905550505050565b5f5ffd5b5f73ffffffffffffffffffffffffffffffffffffffff82169050919050565b5f61076d82610744565b9050919050565b61077d81610763565b8114610787575f5ffd5b50565b5f8135905061079881610774565b92915050565b5f819050919050565b6107b08161079e565b81146107ba575f5ffd5b50565b5f813590506107cb816107a7565b92915050565b5f5f5f606084860312156107e8576107e7610740565b5b5f6107f58682870161078a565b9350506020610806868287016107bd565b9250506040610817868287016107bd565b9150509250925092565b61082a8161079e565b82525050565b5f6040820190506108435f830185610821565b6108506020830184610821565b9392505050565b5f819050919050565b5f61087a61087561087084610744565b610857565b610744565b9050919050565b5f61088b82610860565b9050919050565b5f61089c82610881565b9050919050565b6108ac81610892565b82525050565b5f6020820190506108c55f8301846108a3565b92915050565b5f5f5f606084860312156108e2576108e1610740565b5b5f6108ef8682870161078a565b93505060206109008682870161078a565b9250506040610911868287016107bd565b9150509250925092565b5f8115159050919050565b61092f8161091b565b82525050565b5f6020820190506109485f830184610926565b92915050565b5f6020820190506109615f830184610821565b92915050565b5f6020828403121561097c5761097b610740565b5b5f6109898482850161078a565b91505092915050565b5f5f604083850312156109a8576109a7610740565b5b5f6109b5858286016107bd565b92505060206109c6858286016107bd565b9150509250929050565b5f6109da82610881565b9050919050565b6109ea816109d0565b82525050565b5f602082019050610a035f8301846109e1565b92915050565b5f5f5f5f60808587031215610a2157610a20610740565b5b5f610a2e8782880161078a565b9450506020610a3f8782880161078a565b9350506040610a508782880161078a565b9250506060610a61878288016107bd565b91505092959194509250565b7f4e487b71000000000000000000000000000000000000000000000000000000005f52601160045260245ffd5b5f610aa48261079e565b9150610aaf8361079e565b9250828202610abd8161079e565b91508282048414831517610ad457610ad3610a6d565b5b5092915050565b7f4e487b71000000000000000000000000000000000000000000000000000000005f52601260045260245ffd5b5f610b128261079e565b9150610b1d8361079e565b925082610b2d57610b2c610adb565b5b828204905092915050565b5f610b428261079e565b9150610b4d8361079e565b9250828201905080821115610b6557610b64610a6d565b5b92915050565b5f610b758261079e565b9150610b808361079e565b9250828203905081811115610b9857610b97610a6d565b5b9291505056fea2646970667358221220be0a12c6e9d56b9530117de381fff9d5425ccbf4c068b1d6627ce1ee901549de64736f6c634300081e0033","linkReferences":{}},"methodIdentifiers":{"PRECISION()":"aaf5eb68","WAD()":"6a146024","baseRate()":"1f68f20a","calculateInterestRates(address,uint256,uint256)":"0ac35529","configureAsset(address,uint256,uint256)":"ddd07b76","getUserAccountData(address)":"bf92857c","getUserHealthFactor(address)":"71cbfc98","getUtilization(uint256,uint256)":"46dda358","liquidationThreshold(address)":"b1732b25","ltv(address)":"7473eea6","optimalUtilization()":"6290cd1c","oracle()":"7dc0d1d0","pool()":"16f0115b","reserveFactor()":"4322b714","setPool(address)":"4437152a","slope1()":"a62b75a8","slope2()":"d0134cb7","validateBorrow(address,address,uint256)":"1c96d70c","validateLiquidation(address,address,address,uint256)":"9769d868"},"id":24}