{"abi":[{"type":"function","name":"getGreeting","inputs":[],"outputs":[{"name":"","type":"string","internalType":"string"}],"stateMutability":"view"},{"type":"function","name":"greeting","inputs":[],"outputs":[{"name":"","type":"string","internalType":"string"}],"stateMutability":"view"},{"type":"function","name":"setGreeting","inputs":[{"name":"_greeting","type":"string","internalType":"string"}],"outputs":[],"stateMutability":"nonpayable"}],"bytecode":{"object":"0x6080806040523460b9575f54600181811c9116801560b0575b6020821014609c57601f81116058575b507f48656c6c6f2c20417263204e6574776f726b21000000000000000000000000265f5561039e90816100be8239f35b5f8052601f0160051c7f290decd9548b62a8d60345a988386fc84ba6bc95484008f6362f93160ef3e563908101905b818110609257506028565b5f81556001016087565b634e487b7160e01b5f52602260045260245ffd5b90607f16906018565b5f80fdfe6080806040526004361015610012575f80fd5b5f3560e01c908163a41368621461006c57508063ef690cc01461003d5763fe50cc721461003d575f80fd5b34610068575f3660031901126100685761006461005861027d565b6040519182918261031e565b0390f35b5f80fd5b346100685760203660031901126100685760043567ffffffffffffffff811161006857366023820112156100685780600401359067ffffffffffffffff821161020f576100c3601f8301601f191660200184610223565b818352366024838301011161006857815f926024602093018386013783010152805167ffffffffffffffff811161020f576100fe5f54610245565b601f81116101a8575b50602091601f8211600114610142579181925f92610137575b50505f19600383901b1c191660019190911b175f55005b015190508280610120565b601f198216925f80525f5160206103495f395f51905f52915f5b85811061019057508360019510610178575b505050811b015f55005b01515f1960f88460031b161c1916905582808061016e565b9192602060018192868501518155019401920161015c565b5f8052601f820160051c5f5160206103495f395f51905f520190602083106101fa575b601f0160051c5f5160206103495f395f51905f5201905b8181106101ef5750610107565b5f81556001016101e2565b5f5160206103495f395f51905f5291506101cb565b634e487b7160e01b5f52604160045260245ffd5b90601f8019910116810190811067ffffffffffffffff82111761020f57604052565b90600182811c92168015610273575b602083101461025f57565b634e487b7160e01b5f52602260045260245ffd5b91607f1691610254565b604051905f825f549161028f83610245565b80835292600181169081156102ff57506001146102b5575b6102b392500383610223565b565b505f80805290915f5160206103495f395f51905f525b8183106102e35750509060206102b3928201016102a7565b60209193508060019154838589010152019101909184926102cb565b602092506102b394915060ff191682840152151560051b8201016102a7565b602060409281835280519182918282860152018484015e5f828201840152601f01601f191601019056fe290decd9548b62a8d60345a988386fc84ba6bc95484008f6362f93160ef3e563a2646970667358221220250e58f0adc91bd5aec4367bd4be7923daf7cbb09c8ab156df4f76450da0b89164736f6c634300081e0033","linkReferences":{}},"methodIdentifiers":{"getGreeting()":"fe50cc72","greeting()":"ef690cc0","setGreeting(string)":"a4136862"},"id":19}