{"abi":[{"type":"constructor","inputs":[],"stateMutability":"nonpayable"},{"type":"function","name":"RAY","inputs":[],"outputs":[{"name":"","type":"uint256","internalType":"uint256"}],"stateMutability":"view"},{"type":"function","name":"SECONDS_PER_YEAR","inputs":[],"outputs":[{"name":"","type":"uint256","internalType":"uint256"}],"stateMutability":"view"},{"type":"function","name":"WAD","inputs":[],"outputs":[{"name":"","type":"uint256","internalType":"uint256"}],"stateMutability":"view"},{"type":"function","name":"accrueInterest","inputs":[{"name":"asset","type":"address","internalType":"address"}],"outputs":[],"stateMutability":"nonpayable"},{"type":"function","name":"addAsset","inputs":[{"name":"asset","type":"address","internalType":"address"},{"name":"collateralFactor","type":"uint256","internalType":"uint256"},{"name":"liquidationThreshold","type":"uint256","internalType":"uint256"},{"name":"liquidationBonus","type":"uint256","internalType":"uint256"},{"name":"reserveFactor","type":"uint256","internalType":"uint256"}],"outputs":[],"stateMutability":"nonpayable"},{"type":"function","name":"assetConfigs","inputs":[{"name":"","type":"address","internalType":"address"}],"outputs":[{"name":"collateralFactor","type":"uint256","internalType":"uint256"},{"name":"liquidationThreshold","type":"uint256","internalType":"uint256"},{"name":"liquidationBonus","type":"uint256","internalType":"uint256"},{"name":"reserveFactor","type":"uint256","internalType":"uint256"},{"name":"isActive","type":"bool","internalType":"bool"}],"stateMutability":"view"},{"type":"function","name":"borrow","inputs":[{"name":"asset","type":"address","internalType":"address"},{"name":"amount","type":"uint256","internalType":"uint256"},{"name":"interestRateMode","type":"uint256","internalType":"uint256"},{"name":"referralCode","type":"uint16","internalType":"uint16"},{"name":"onBehalfOf","type":"address","internalType":"address"}],"outputs":[],"stateMutability":"nonpayable"},{"type":"function","name":"borrowIndex","inputs":[{"name":"","type":"address","internalType":"address"}],"outputs":[{"name":"","type":"uint256","internalType":"uint256"}],"stateMutability":"view"},{"type":"function","name":"borrowingEngine","inputs":[],"outputs":[{"name":"","type":"address","internalType":"contract BorrowingEngine"}],"stateMutability":"view"},{"type":"function","name":"getBorrowRate","inputs":[{"name":"asset","type":"address","internalType":"address"}],"outputs":[{"name":"","type":"uint256","internalType":"uint256"}],"stateMutability":"view"},{"type":"function","name":"getSupplyRate","inputs":[{"name":"asset","type":"address","internalType":"address"}],"outputs":[{"name":"","type":"uint256","internalType":"uint256"}],"stateMutability":"view"},{"type":"function","name":"getUserBalance","inputs":[{"name":"user","type":"address","internalType":"address"},{"name":"asset","type":"address","internalType":"address"}],"outputs":[{"name":"","type":"uint256","internalType":"uint256"}],"stateMutability":"view"},{"type":"function","name":"getUserDebt","inputs":[{"name":"user","type":"address","internalType":"address"},{"name":"asset","type":"address","internalType":"address"}],"outputs":[{"name":"","type":"uint256","internalType":"uint256"}],"stateMutability":"view"},{"type":"function","name":"getUtilizationRate","inputs":[{"name":"asset","type":"address","internalType":"address"}],"outputs":[{"name":"","type":"uint256","internalType":"uint256"}],"stateMutability":"view"},{"type":"function","name":"lastAccrueTime","inputs":[{"name":"","type":"address","internalType":"address"}],"outputs":[{"name":"","type":"uint256","internalType":"uint256"}],"stateMutability":"view"},{"type":"function","name":"owner","inputs":[],"outputs":[{"name":"","type":"address","internalType":"address"}],"stateMutability":"view"},{"type":"function","name":"rateModels","inputs":[{"name":"","type":"address","internalType":"address"}],"outputs":[{"name":"baseRate","type":"uint256","internalType":"uint256"},{"name":"slope1","type":"uint256","internalType":"uint256"},{"name":"slope2","type":"uint256","internalType":"uint256"},{"name":"optimalUtilization","type":"uint256","internalType":"uint256"}],"stateMutability":"view"},{"type":"function","name":"repay","inputs":[{"name":"asset","type":"address","internalType":"address"},{"name":"amount","type":"uint256","internalType":"uint256"},{"name":"onBehalfOf","type":"address","internalType":"address"}],"outputs":[],"stateMutability":"nonpayable"},{"type":"function","name":"reserves","inputs":[{"name":"","type":"address","internalType":"address"}],"outputs":[{"name":"","type":"uint256","internalType":"uint256"}],"stateMutability":"view"},{"type":"function","name":"riskManager","inputs":[],"outputs":[{"name":"","type":"address","internalType":"contract RiskManager"}],"stateMutability":"view"},{"type":"function","name":"setBorrowingEngine","inputs":[{"name":"_engine","type":"address","internalType":"address"}],"outputs":[],"stateMutability":"nonpayable"},{"type":"function","name":"setInterestRateModel","inputs":[{"name":"asset","type":"address","internalType":"address"},{"name":"baseRate","type":"uint256","internalType":"uint256"},{"name":"slope1","type":"uint256","internalType":"uint256"},{"name":"slope2","type":"uint256","internalType":"uint256"},{"name":"optimalUtilization","type":"uint256","internalType":"uint256"}],"outputs":[],"stateMutability":"nonpayable"},{"type":"function","name":"setRiskManager","inputs":[{"name":"_riskManager","type":"address","internalType":"address"}],"outputs":[],"stateMutability":"nonpayable"},{"type":"function","name":"setTreasury","inputs":[{"name":"_treasury","type":"address","internalType":"address"}],"outputs":[],"stateMutability":"nonpayable"},{"type":"function","name":"supply","inputs":[{"name":"asset","type":"address","internalType":"address"},{"name":"amount","type":"uint256","internalType":"uint256"},{"name":"onBehalfOf","type":"address","internalType":"address"},{"name":"referralCode","type":"uint16","internalType":"uint16"}],"outputs":[],"stateMutability":"nonpayable"},{"type":"function","name":"supplyIndex","inputs":[{"name":"","type":"address","internalType":"address"}],"outputs":[{"name":"","type":"uint256","internalType":"uint256"}],"stateMutability":"view"},{"type":"function","name":"supportedAssets","inputs":[{"name":"","type":"uint256","internalType":"uint256"}],"outputs":[{"name":"","type":"address","internalType":"address"}],"stateMutability":"view"},{"type":"function","name":"totalBorrowed","inputs":[{"name":"","type":"address","internalType":"address"}],"outputs":[{"name":"","type":"uint256","internalType":"uint256"}],"stateMutability":"view"},{"type":"function","name":"totalSupplied","inputs":[{"name":"","type":"address","internalType":"address"}],"outputs":[{"name":"","type":"uint256","internalType":"uint256"}],"stateMutability":"view"},{"type":"function","name":"treasury","inputs":[],"outputs":[{"name":"","type":"address","internalType":"address"}],"stateMutability":"view"},{"type":"function","name":"withdraw","inputs":[{"name":"asset","type":"address","internalType":"address"},{"name":"amount","type":"uint256","internalType":"uint256"},{"name":"to","type":"address","internalType":"address"}],"outputs":[],"stateMutability":"nonpayable"},{"type":"function","name":"withdrawReserves","inputs":[{"name":"asset","type":"address","internalType":"address"},{"name":"amount","type":"uint256","internalType":"uint256"}],"outputs":[],"stateMutability":"nonpayable"},{"type":"event","name":"Borrow","inputs":[{"name":"user","type":"address","indexed":true,"internalType":"address"},{"name":"asset","type":"address","indexed":true,"internalType":"address"},{"name":"amount","type":"uint256","indexed":false,"internalType":"uint256"}],"anonymous":false},{"type":"event","name":"InterestAccrued","inputs":[{"name":"asset","type":"address","indexed":true,"internalType":"address"},{"name":"borrowIndex","type":"uint256","indexed":false,"internalType":"uint256"},{"name":"supplyIndex","type":"uint256","indexed":false,"internalType":"uint256"},{"name":"reserves","type":"uint256","indexed":false,"internalType":"uint256"}],"anonymous":false},{"type":"event","name":"Repay","inputs":[{"name":"user","type":"address","indexed":true,"internalType":"address"},{"name":"asset","type":"address","indexed":true,"internalType":"address"},{"name":"amount","type":"uint256","indexed":false,"internalType":"uint256"}],"anonymous":false},{"type":"event","name":"ReservesWithdrawn","inputs":[{"name":"asset","type":"address","indexed":true,"internalType":"address"},{"name":"amount","type":"uint256","indexed":false,"internalType":"uint256"},{"name":"to","type":"address","indexed":true,"internalType":"address"}],"anonymous":false},{"type":"event","name":"Supply","inputs":[{"name":"user","type":"address","indexed":true,"internalType":"address"},{"name":"asset","type":"address","indexed":true,"internalType":"address"},{"name":"amount","type":"uint256","indexed":false,"internalType":"uint256"}],"anonymous":false},{"type":"event","name":"Withdraw","inputs":[{"name":"user","type":"address","indexed":true,"internalType":"address"},{"name":"asset","type":"address","indexed":true,"internalType":"address"},{"name":"amount","type":"uint256","indexed":false,"internalType":"uint256"}],"anonymous":false}],"bytecode":{"object":"0x6080604052348015600e575f5ffd5b5033600d5f6101000a81548173ffffffffffffffffffffffffffffffffffffffff021916908373ffffffffffffffffffffffffffffffffffffffff16021790555033600e5f6101000a81548173ffffffffffffffffffffffffffffffffffffffff021916908373ffffffffffffffffffffffffffffffffffffffff160217905550613b438061009c5f395ff3fe608060405234801561000f575f5ffd5b50600436106101ee575f3560e01c80637609d7f61161010d578063d66bd524116100a0578063e380fcad1161006f578063e380fcad14610619578063e478795d14610649578063e6a69ab814610665578063f0f4426014610683576101ee565b8063d66bd5241461056b578063d71275f61461059b578063e2e1ca2b146105cb578063e3386f5d146105fb576101ee565b8063a2a00ed6116100dc578063a2a00ed6146104bf578063a415bcad146104ef578063b0b927641461050b578063c68dbb371461053b576101ee565b80637609d7f6146104215780637b6aa8bd146104555780638da5cb5b146104855780639198e515146104a3576101ee565b806362ca8460116101855780636b5441a9116101545780636b5441a9146103755780636bbe56cf146103a55780636c9dc600146103d55780636ff4593414610405576101ee565b806362ca8460146102ef5780636805d6ad1461030b57806369328dec1461033b5780636a14602414610357576101ee565b8063552033c4116101c1578063552033c41461027b5780635ceae9c414610299578063617ba037146102b557806361d027b3146102d1576101ee565b80633249cff6146101f25780633b40af171461020e578063478426631461022a57806351324f1214610248575b5f5ffd5b61020c60048036038101906102079190613111565b61069f565b005b61022860048036038101906102239190613188565b610a52565b005b610232610b23565b60405161023f919061320e565b60405180910390f35b610262600480360381019061025d9190613188565b610b48565b6040516102729493929190613236565b60405180910390f35b610283610b74565b6040516102909190613279565b60405180910390f35b6102b360048036038101906102ae9190613292565b610b84565b005b6102cf60048036038101906102ca9190613319565b610ed9565b005b6102d96112e2565b6040516102e6919061338c565b60405180910390f35b61030960048036038101906103049190613188565b611307565b005b610325600480360381019061032091906133a5565b6113d9565b6040516103329190613279565b60405180910390f35b61035560048036038101906103509190613292565b6114a0565b005b61035f6118fe565b60405161036c9190613279565b60405180910390f35b61038f600480360381019061038a9190613188565b61190a565b60405161039c9190613279565b60405180910390f35b6103bf60048036038101906103ba9190613188565b611a5f565b6040516103cc9190613279565b60405180910390f35b6103ef60048036038101906103ea9190613188565b611a74565b6040516103fc9190613279565b60405180910390f35b61041f600480360381019061041a9190613111565b611a89565b005b61043b60048036038101906104369190613188565b611c32565b60405161044c9594939291906133fd565b60405180910390f35b61046f600480360381019061046a9190613188565b611c70565b60405161047c9190613279565b60405180910390f35b61048d611d27565b60405161049a919061338c565b60405180910390f35b6104bd60048036038101906104b89190613188565b611d4c565b005b6104d960048036038101906104d491906133a5565b612271565b6040516104e69190613279565b60405180910390f35b6105096004803603810190610504919061344e565b612338565b005b61052560048036038101906105209190613188565b612773565b6040516105329190613279565b60405180910390f35b610555600480360381019061055091906134c5565b612788565b604051610562919061338c565b60405180910390f35b61058560048036038101906105809190613188565b6127c3565b6040516105929190613279565b60405180910390f35b6105b560048036038101906105b09190613188565b6127d8565b6040516105c29190613279565b60405180910390f35b6105e560048036038101906105e09190613188565b6129ef565b6040516105f29190613279565b60405180910390f35b610603612a04565b6040516106109190613510565b60405180910390f35b610633600480360381019061062e9190613188565b612a28565b6040516106409190613279565b60405180910390f35b610663600480360381019061065e9190613529565b612a3d565b005b61066d612cc6565b60405161067a9190613279565b60405180910390f35b61069d60048036038101906106989190613188565b612cce565b005b600d5f9054906101000a900473ffffffffffffffffffffffffffffffffffffffff1673ffffffffffffffffffffffffffffffffffffffff163373ffffffffffffffffffffffffffffffffffffffff161461072e576040517f08c379a0000000000000000000000000000000000000000000000000000000008152600401610725906135c1565b60405180910390fd5b5f1515600c5f8773ffffffffffffffffffffffffffffffffffffffff1673ffffffffffffffffffffffffffffffffffffffff1681526020019081526020015f206004015f9054906101000a900460ff161515146107c0576040517f08c379a00000000000000000000000000000000000000000000000000000000081526004016107b790613629565b60405180910390fd5b600a85908060018154018082558091505060019003905f5260205f20015f9091909190916101000a81548173ffffffffffffffffffffffffffffffffffffffff021916908373ffffffffffffffffffffffffffffffffffffffff1602179055506b033b2e3c9fd0803ce800000060065f8773ffffffffffffffffffffffffffffffffffffffff1673ffffffffffffffffffffffffffffffffffffffff1681526020019081526020015f20819055506b033b2e3c9fd0803ce800000060075f8773ffffffffffffffffffffffffffffffffffffffff1673ffffffffffffffffffffffffffffffffffffffff1681526020019081526020015f20819055504260085f8773ffffffffffffffffffffffffffffffffffffffff1673ffffffffffffffffffffffffffffffffffffffff1681526020019081526020015f20819055506040518060a0016040528085815260200184815260200183815260200182815260200160011515815250600c5f8773ffffffffffffffffffffffffffffffffffffffff1673ffffffffffffffffffffffffffffffffffffffff1681526020019081526020015f205f820151815f01556020820151816001015560408201518160020155606082015181600301556080820151816004015f6101000a81548160ff02191690831515021790555090505060405180608001604052805f8152602001668e1bc9bf0400008152602001670853a0d2313c00008152602001670b1a2bc2ec500000815250600b5f8773ffffffffffffffffffffffffffffffffffffffff1673ffffffffffffffffffffffffffffffffffffffff1681526020019081526020015f205f820151815f01556020820151816001015560408201518160020155606082015181600301559050505050505050565b600d5f9054906101000a900473ffffffffffffffffffffffffffffffffffffffff1673ffffffffffffffffffffffffffffffffffffffff163373ffffffffffffffffffffffffffffffffffffffff1614610ae1576040517f08c379a0000000000000000000000000000000000000000000000000000000008152600401610ad8906135c1565b60405180910390fd5b805f5f6101000a81548173ffffffffffffffffffffffffffffffffffffffff021916908373ffffffffffffffffffffffffffffffffffffffff16021790555050565b60015f9054906101000a900473ffffffffffffffffffffffffffffffffffffffff1681565b600b602052805f5260405f205f91509050805f0154908060010154908060020154908060030154905084565b6b033b2e3c9fd0803ce800000081565b600c5f8473ffffffffffffffffffffffffffffffffffffffff1673ffffffffffffffffffffffffffffffffffffffff1681526020019081526020015f206004015f9054906101000a900460ff16610c10576040517f08c379a0000000000000000000000000000000000000000000000000000000008152600401610c0790613691565b60405180910390fd5b610c1983611d4c565b5f610c248285612271565b90505f818411610c345783610c36565b815b90505f8573ffffffffffffffffffffffffffffffffffffffff166323b872dd3330856040518463ffffffff1660e01b8152600401610c76939291906136af565b6020604051808303815f875af1158015610c92573d5f5f3e3d5ffd5b505050506040513d601f19601f82011682018060405250810190610cb6919061370e565b905080610cf8576040517f08c379a0000000000000000000000000000000000000000000000000000000008152600401610cef90613783565b60405180910390fd5b5f8360035f8773ffffffffffffffffffffffffffffffffffffffff1673ffffffffffffffffffffffffffffffffffffffff1681526020019081526020015f205f8973ffffffffffffffffffffffffffffffffffffffff1673ffffffffffffffffffffffffffffffffffffffff1681526020019081526020015f205484610d7e91906137ce565b610d88919061383c565b90508060035f8773ffffffffffffffffffffffffffffffffffffffff1673ffffffffffffffffffffffffffffffffffffffff1681526020019081526020015f205f8973ffffffffffffffffffffffffffffffffffffffff1673ffffffffffffffffffffffffffffffffffffffff1681526020019081526020015f205f828254610e11919061386c565b925050819055508260055f8973ffffffffffffffffffffffffffffffffffffffff1673ffffffffffffffffffffffffffffffffffffffff1681526020019081526020015f205f828254610e64919061386c565b925050819055508673ffffffffffffffffffffffffffffffffffffffff168573ffffffffffffffffffffffffffffffffffffffff167f05f2eeda0e08e4b437f487c8d7d29b14537d15e3488170dc3de5dbdf8dac468485604051610ec89190613279565b60405180910390a350505050505050565b5f8311610f1b576040517f08c379a0000000000000000000000000000000000000000000000000000000008152600401610f12906138e9565b60405180910390fd5b600c5f8573ffffffffffffffffffffffffffffffffffffffff1673ffffffffffffffffffffffffffffffffffffffff1681526020019081526020015f206004015f9054906101000a900460ff16610fa7576040517f08c379a0000000000000000000000000000000000000000000000000000000008152600401610f9e90613691565b60405180910390fd5b610fb084611d4c565b5f73ffffffffffffffffffffffffffffffffffffffff1660015f9054906101000a900473ffffffffffffffffffffffffffffffffffffffff1673ffffffffffffffffffffffffffffffffffffffff16146110d55760015f9054906101000a900473ffffffffffffffffffffffffffffffffffffffff1673ffffffffffffffffffffffffffffffffffffffff166303ec0201858560045f8973ffffffffffffffffffffffffffffffffffffffff1673ffffffffffffffffffffffffffffffffffffffff1681526020019081526020015f205461108b9190613907565b6040518363ffffffff1660e01b81526004016110a892919061393a565b5f6040518083038186803b1580156110be575f5ffd5b505afa1580156110d0573d5f5f3e3d5ffd5b505050505b5f8473ffffffffffffffffffffffffffffffffffffffff166323b872dd3330876040518463ffffffff1660e01b8152600401611113939291906136af565b6020604051808303815f875af115801561112f573d5f5f3e3d5ffd5b505050506040513d601f19601f82011682018060405250810190611153919061370e565b905080611195576040517f08c379a000000000000000000000000000000000000000000000000000000000815260040161118c90613783565b60405180910390fd5b8360025f8573ffffffffffffffffffffffffffffffffffffffff1673ffffffffffffffffffffffffffffffffffffffff1681526020019081526020015f205f8773ffffffffffffffffffffffffffffffffffffffff1673ffffffffffffffffffffffffffffffffffffffff1681526020019081526020015f205f82825461121c9190613907565b925050819055508360045f8773ffffffffffffffffffffffffffffffffffffffff1673ffffffffffffffffffffffffffffffffffffffff1681526020019081526020015f205f82825461126f9190613907565b925050819055508473ffffffffffffffffffffffffffffffffffffffff168373ffffffffffffffffffffffffffffffffffffffff167fd1cf3d156d5f8f0d50f6c122ed609cec09d35c9b9fb3fff6ea0959134dae424e866040516112d39190613279565b60405180910390a35050505050565b600e5f9054906101000a900473ffffffffffffffffffffffffffffffffffffffff1681565b600d5f9054906101000a900473ffffffffffffffffffffffffffffffffffffffff1673ffffffffffffffffffffffffffffffffffffffff163373ffffffffffffffffffffffffffffffffffffffff1614611396576040517f08c379a000000000000000000000000000000000000000000000000000000000815260040161138d906135c1565b60405180910390fd5b8060015f6101000a81548173ffffffffffffffffffffffffffffffffffffffff021916908373ffffffffffffffffffffffffffffffffffffffff16021790555050565b5f5f60025f8573ffffffffffffffffffffffffffffffffffffffff1673ffffffffffffffffffffffffffffffffffffffff1681526020019081526020015f205f8473ffffffffffffffffffffffffffffffffffffffff1673ffffffffffffffffffffffffffffffffffffffff1681526020019081526020015f205490505f8103611466575f91505061149a565b5f61147084612da0565b90506b033b2e3c9fd0803ce8000000818361148b91906137ce565b611495919061383c565b925050505b92915050565b600c5f8473ffffffffffffffffffffffffffffffffffffffff1673ffffffffffffffffffffffffffffffffffffffff1681526020019081526020015f206004015f9054906101000a900460ff1661152c576040517f08c379a000000000000000000000000000000000000000000000000000000000815260040161152390613691565b60405180910390fd5b61153583611d4c565b5f61154033856113d9565b905082811015611585576040517f08c379a000000000000000000000000000000000000000000000000000000000815260040161157c906139ab565b60405180910390fd5b5f73ffffffffffffffffffffffffffffffffffffffff1660015f9054906101000a900473ffffffffffffffffffffffffffffffffffffffff1673ffffffffffffffffffffffffffffffffffffffff16146116605760015f9054906101000a900473ffffffffffffffffffffffffffffffffffffffff1673ffffffffffffffffffffffffffffffffffffffff16630a27a6c1856040518263ffffffff1660e01b8152600401611633919061338c565b5f6040518083038186803b158015611649575f5ffd5b505afa15801561165b573d5f5f3e3d5ffd5b505050505b5f8160025f3373ffffffffffffffffffffffffffffffffffffffff1673ffffffffffffffffffffffffffffffffffffffff1681526020019081526020015f205f8773ffffffffffffffffffffffffffffffffffffffff1673ffffffffffffffffffffffffffffffffffffffff1681526020019081526020015f2054856116e691906137ce565b6116f0919061383c565b90508060025f3373ffffffffffffffffffffffffffffffffffffffff1673ffffffffffffffffffffffffffffffffffffffff1681526020019081526020015f205f8773ffffffffffffffffffffffffffffffffffffffff1673ffffffffffffffffffffffffffffffffffffffff1681526020019081526020015f205f828254611779919061386c565b925050819055508360045f8773ffffffffffffffffffffffffffffffffffffffff1673ffffffffffffffffffffffffffffffffffffffff1681526020019081526020015f205f8282546117cc919061386c565b925050819055505f8573ffffffffffffffffffffffffffffffffffffffff1663a9059cbb85876040518363ffffffff1660e01b815260040161180f92919061393a565b6020604051808303815f875af115801561182b573d5f5f3e3d5ffd5b505050506040513d601f19601f8201168201806040525081019061184f919061370e565b905080611891576040517f08c379a000000000000000000000000000000000000000000000000000000000815260040161188890613783565b60405180910390fd5b8573ffffffffffffffffffffffffffffffffffffffff163373ffffffffffffffffffffffffffffffffffffffff167f9b1bfa7fa9ee420a16e124f794c35ac9f90472acc99140eb2f6447c714cad8eb876040516118ee9190613279565b60405180910390a3505050505050565b670de0b6b3a764000081565b5f5f60045f8473ffffffffffffffffffffffffffffffffffffffff1673ffffffffffffffffffffffffffffffffffffffff1681526020019081526020015f205490505f810361195c575f915050611a5a565b5f611966846127d8565b90505f82670de0b6b3a764000060055f8873ffffffffffffffffffffffffffffffffffffffff1673ffffffffffffffffffffffffffffffffffffffff1681526020019081526020015f20546119bb91906137ce565b6119c5919061383c565b90505f600c5f8773ffffffffffffffffffffffffffffffffffffffff1673ffffffffffffffffffffffffffffffffffffffff1681526020019081526020015f20600301549050670de0b6b3a764000080611a1f91906137ce565b81670de0b6b3a7640000611a33919061386c565b8385611a3f91906137ce565b611a4991906137ce565b611a53919061383c565b9450505050505b919050565b6004602052805f5260405f205f915090505481565b6008602052805f5260405f205f915090505481565b600d5f9054906101000a900473ffffffffffffffffffffffffffffffffffffffff1673ffffffffffffffffffffffffffffffffffffffff163373ffffffffffffffffffffffffffffffffffffffff1614611b18576040517f08c379a0000000000000000000000000000000000000000000000000000000008152600401611b0f906135c1565b60405180910390fd5b600c5f8673ffffffffffffffffffffffffffffffffffffffff1673ffffffffffffffffffffffffffffffffffffffff1681526020019081526020015f206004015f9054906101000a900460ff16611ba4576040517f08c379a0000000000000000000000000000000000000000000000000000000008152600401611b9b90613691565b60405180910390fd5b604051806080016040528085815260200184815260200183815260200182815250600b5f8773ffffffffffffffffffffffffffffffffffffffff1673ffffffffffffffffffffffffffffffffffffffff1681526020019081526020015f205f820151815f01556020820151816001015560408201518160020155606082015181600301559050505050505050565b600c602052805f5260405f205f91509050805f015490806001015490806002015490806003015490806004015f9054906101000a900460ff16905085565b5f5f60045f8473ffffffffffffffffffffffffffffffffffffffff1673ffffffffffffffffffffffffffffffffffffffff1681526020019081526020015f205490505f8103611cc2575f915050611d22565b80670de0b6b3a764000060055f8673ffffffffffffffffffffffffffffffffffffffff1673ffffffffffffffffffffffffffffffffffffffff1681526020019081526020015f2054611d1491906137ce565b611d1e919061383c565b9150505b919050565b600d5f9054906101000a900473ffffffffffffffffffffffffffffffffffffffff1681565b5f60085f8373ffffffffffffffffffffffffffffffffffffffff1673ffffffffffffffffffffffffffffffffffffffff1681526020019081526020015f205442611d96919061386c565b90505f8103611da5575061226e565b5f611daf836127d8565b90505f611dbb8461190a565b90505f670de0b6b3a76400006301e13380611dd691906137ce565b6b033b2e3c9fd0803ce80000008585611def91906137ce565b611df991906137ce565b611e03919061383c565b90505f670de0b6b3a76400006301e13380611e1e91906137ce565b6b033b2e3c9fd0803ce80000008685611e3791906137ce565b611e4191906137ce565b611e4b919061383c565b90506b033b2e3c9fd0803ce8000000826b033b2e3c9fd0803ce8000000611e729190613907565b60065f8973ffffffffffffffffffffffffffffffffffffffff1673ffffffffffffffffffffffffffffffffffffffff1681526020019081526020015f2054611eba91906137ce565b611ec4919061383c565b60065f8873ffffffffffffffffffffffffffffffffffffffff1673ffffffffffffffffffffffffffffffffffffffff1681526020019081526020015f20819055506b033b2e3c9fd0803ce8000000816b033b2e3c9fd0803ce8000000611f2a9190613907565b60075f8973ffffffffffffffffffffffffffffffffffffffff1673ffffffffffffffffffffffffffffffffffffffff1681526020019081526020015f2054611f7291906137ce565b611f7c919061383c565b60075f8873ffffffffffffffffffffffffffffffffffffffff1673ffffffffffffffffffffffffffffffffffffffff1681526020019081526020015f20819055505f60055f8873ffffffffffffffffffffffffffffffffffffffff1673ffffffffffffffffffffffffffffffffffffffff1681526020019081526020015f2054111561211d575f6b033b2e3c9fd0803ce80000008360055f8a73ffffffffffffffffffffffffffffffffffffffff1673ffffffffffffffffffffffffffffffffffffffff1681526020019081526020015f205461205991906137ce565b612063919061383c565b90505f670de0b6b3a7640000600c5f8a73ffffffffffffffffffffffffffffffffffffffff1673ffffffffffffffffffffffffffffffffffffffff1681526020019081526020015f2060030154836120bb91906137ce565b6120c5919061383c565b90508060095f8a73ffffffffffffffffffffffffffffffffffffffff1673ffffffffffffffffffffffffffffffffffffffff1681526020019081526020015f205f8282546121139190613907565b9250508190555050505b4260085f8873ffffffffffffffffffffffffffffffffffffffff1673ffffffffffffffffffffffffffffffffffffffff1681526020019081526020015f20819055508573ffffffffffffffffffffffffffffffffffffffff167fbea9dfcbd95788b1634fd949c43c80348c9a8960d5837081e062bc6679b9d8fe60065f8973ffffffffffffffffffffffffffffffffffffffff1673ffffffffffffffffffffffffffffffffffffffff1681526020019081526020015f205460075f8a73ffffffffffffffffffffffffffffffffffffffff1673ffffffffffffffffffffffffffffffffffffffff1681526020019081526020015f205460095f8b73ffffffffffffffffffffffffffffffffffffffff1673ffffffffffffffffffffffffffffffffffffffff1681526020019081526020015f2054604051612260939291906139c9565b60405180910390a250505050505b50565b5f5f60035f8573ffffffffffffffffffffffffffffffffffffffff1673ffffffffffffffffffffffffffffffffffffffff1681526020019081526020015f205f8473ffffffffffffffffffffffffffffffffffffffff1673ffffffffffffffffffffffffffffffffffffffff1681526020019081526020015f205490505f81036122fe575f915050612332565b5f61230884612f10565b90506b033b2e3c9fd0803ce8000000818361232391906137ce565b61232d919061383c565b925050505b92915050565b600c5f8673ffffffffffffffffffffffffffffffffffffffff1673ffffffffffffffffffffffffffffffffffffffff1681526020019081526020015f206004015f9054906101000a900460ff166123c4576040517f08c379a00000000000000000000000000000000000000000000000000000000081526004016123bb90613691565b60405180910390fd5b6123cd85611d4c565b5f73ffffffffffffffffffffffffffffffffffffffff1660015f9054906101000a900473ffffffffffffffffffffffffffffffffffffffff1673ffffffffffffffffffffffffffffffffffffffff16146124a85760015f9054906101000a900473ffffffffffffffffffffffffffffffffffffffff1673ffffffffffffffffffffffffffffffffffffffff16632442b840866040518263ffffffff1660e01b815260040161247b919061338c565b5f6040518083038186803b158015612491575f5ffd5b505afa1580156124a3573d5f5f3e3d5ffd5b505050505b5f8573ffffffffffffffffffffffffffffffffffffffff166370a08231306040518263ffffffff1660e01b81526004016124e2919061338c565b602060405180830381865afa1580156124fd573d5f5f3e3d5ffd5b505050506040513d601f19601f820116820180604052508101906125219190613a12565b905084811015612566576040517f08c379a000000000000000000000000000000000000000000000000000000000815260040161255d90613a87565b60405180910390fd5b8460035f8473ffffffffffffffffffffffffffffffffffffffff1673ffffffffffffffffffffffffffffffffffffffff1681526020019081526020015f205f8873ffffffffffffffffffffffffffffffffffffffff1673ffffffffffffffffffffffffffffffffffffffff1681526020019081526020015f205f8282546125ed9190613907565b925050819055508460055f8873ffffffffffffffffffffffffffffffffffffffff1673ffffffffffffffffffffffffffffffffffffffff1681526020019081526020015f205f8282546126409190613907565b925050819055505f8673ffffffffffffffffffffffffffffffffffffffff1663a9059cbb84886040518363ffffffff1660e01b815260040161268392919061393a565b6020604051808303815f875af115801561269f573d5f5f3e3d5ffd5b505050506040513d601f19601f820116820180604052508101906126c3919061370e565b905080612705576040517f08c379a00000000000000000000000000000000000000000000000000000000081526004016126fc90613783565b60405180910390fd5b8673ffffffffffffffffffffffffffffffffffffffff168373ffffffffffffffffffffffffffffffffffffffff167f312a5e5e1079f5dda4e95dbbd0b908b291fd5b992ef22073643ab691572c5b52886040516127629190613279565b60405180910390a350505050505050565b6006602052805f5260405f205f915090505481565b600a8181548110612797575f80fd5b905f5260205f20015f915054906101000a900473ffffffffffffffffffffffffffffffffffffffff1681565b6009602052805f5260405f205f915090505481565b5f5f60045f8473ffffffffffffffffffffffffffffffffffffffff1673ffffffffffffffffffffffffffffffffffffffff1681526020019081526020015f205490505f810361286957600b5f8473ffffffffffffffffffffffffffffffffffffffff1673ffffffffffffffffffffffffffffffffffffffff1681526020019081526020015f205f01549150506129ea565b5f81670de0b6b3a764000060055f8773ffffffffffffffffffffffffffffffffffffffff1673ffffffffffffffffffffffffffffffffffffffff1681526020019081526020015f20546128bc91906137ce565b6128c6919061383c565b90505f600b5f8673ffffffffffffffffffffffffffffffffffffffff1673ffffffffffffffffffffffffffffffffffffffff1681526020019081526020015f206040518060800160405290815f8201548152602001600182015481526020016002820154815260200160038201548152505090508060600151821161297c57806060015181602001518361295a91906137ce565b612964919061383c565b815f01516129729190613907565b93505050506129ea565b5f81606001518361298d919061386c565b90505f8260600151670de0b6b3a76400006129a8919061386c565b9050808360400151836129bb91906137ce565b6129c5919061383c565b8360200151845f01516129d89190613907565b6129e29190613907565b955050505050505b919050565b6005602052805f5260405f205f915090505481565b5f5f9054906101000a900473ffffffffffffffffffffffffffffffffffffffff1681565b6007602052805f5260405f205f915090505481565b600d5f9054906101000a900473ffffffffffffffffffffffffffffffffffffffff1673ffffffffffffffffffffffffffffffffffffffff163373ffffffffffffffffffffffffffffffffffffffff1614612acc576040517f08c379a0000000000000000000000000000000000000000000000000000000008152600401612ac3906135c1565b60405180910390fd5b8060095f8473ffffffffffffffffffffffffffffffffffffffff1673ffffffffffffffffffffffffffffffffffffffff1681526020019081526020015f20541015612b4c576040517f08c379a0000000000000000000000000000000000000000000000000000000008152600401612b4390613aef565b60405180910390fd5b8060095f8473ffffffffffffffffffffffffffffffffffffffff1673ffffffffffffffffffffffffffffffffffffffff1681526020019081526020015f205f828254612b98919061386c565b925050819055508173ffffffffffffffffffffffffffffffffffffffff1663a9059cbb600e5f9054906101000a900473ffffffffffffffffffffffffffffffffffffffff16836040518363ffffffff1660e01b8152600401612bfb92919061393a565b6020604051808303815f875af1158015612c17573d5f5f3e3d5ffd5b505050506040513d601f19601f82011682018060405250810190612c3b919061370e565b50600e5f9054906101000a900473ffffffffffffffffffffffffffffffffffffffff1673ffffffffffffffffffffffffffffffffffffffff168273ffffffffffffffffffffffffffffffffffffffff167f6d341628237b28f97e0f602e973af6084de6e0407f64bf599bd586cbcc77ad7c83604051612cba9190613279565b60405180910390a35050565b6301e1338081565b600d5f9054906101000a900473ffffffffffffffffffffffffffffffffffffffff1673ffffffffffffffffffffffffffffffffffffffff163373ffffffffffffffffffffffffffffffffffffffff1614612d5d576040517f08c379a0000000000000000000000000000000000000000000000000000000008152600401612d54906135c1565b60405180910390fd5b80600e5f6101000a81548173ffffffffffffffffffffffffffffffffffffffff021916908373ffffffffffffffffffffffffffffffffffffffff16021790555050565b5f5f60085f8473ffffffffffffffffffffffffffffffffffffffff1673ffffffffffffffffffffffffffffffffffffffff1681526020019081526020015f205442612deb919061386c565b90505f8103612e3a5760075f8473ffffffffffffffffffffffffffffffffffffffff1673ffffffffffffffffffffffffffffffffffffffff1681526020019081526020015f2054915050612f0b565b5f612e448461190a565b90505f670de0b6b3a76400006301e13380612e5f91906137ce565b6b033b2e3c9fd0803ce80000008484612e7891906137ce565b612e8291906137ce565b612e8c919061383c565b90506b033b2e3c9fd0803ce8000000816b033b2e3c9fd0803ce8000000612eb39190613907565b60075f8873ffffffffffffffffffffffffffffffffffffffff1673ffffffffffffffffffffffffffffffffffffffff1681526020019081526020015f2054612efb91906137ce565b612f05919061383c565b93505050505b919050565b5f5f60085f8473ffffffffffffffffffffffffffffffffffffffff1673ffffffffffffffffffffffffffffffffffffffff1681526020019081526020015f205442612f5b919061386c565b90505f8103612faa5760065f8473ffffffffffffffffffffffffffffffffffffffff1673ffffffffffffffffffffffffffffffffffffffff1681526020019081526020015f205491505061307b565b5f612fb4846127d8565b90505f670de0b6b3a76400006301e13380612fcf91906137ce565b6b033b2e3c9fd0803ce80000008484612fe891906137ce565b612ff291906137ce565b612ffc919061383c565b90506b033b2e3c9fd0803ce8000000816b033b2e3c9fd0803ce80000006130239190613907565b60065f8873ffffffffffffffffffffffffffffffffffffffff1673ffffffffffffffffffffffffffffffffffffffff1681526020019081526020015f205461306b91906137ce565b613075919061383c565b93505050505b919050565b5f5ffd5b5f73ffffffffffffffffffffffffffffffffffffffff82169050919050565b5f6130ad82613084565b9050919050565b6130bd816130a3565b81146130c7575f5ffd5b50565b5f813590506130d8816130b4565b92915050565b5f819050919050565b6130f0816130de565b81146130fa575f5ffd5b50565b5f8135905061310b816130e7565b92915050565b5f5f5f5f5f60a0868803121561312a57613129613080565b5b5f613137888289016130ca565b9550506020613148888289016130fd565b9450506040613159888289016130fd565b935050606061316a888289016130fd565b925050608061317b888289016130fd565b9150509295509295909350565b5f6020828403121561319d5761319c613080565b5b5f6131aa848285016130ca565b91505092915050565b5f819050919050565b5f6131d66131d16131cc84613084565b6131b3565b613084565b9050919050565b5f6131e7826131bc565b9050919050565b5f6131f8826131dd565b9050919050565b613208816131ee565b82525050565b5f6020820190506132215f8301846131ff565b92915050565b613230816130de565b82525050565b5f6080820190506132495f830187613227565b6132566020830186613227565b6132636040830185613227565b6132706060830184613227565b95945050505050565b5f60208201905061328c5f830184613227565b92915050565b5f5f5f606084860312156132a9576132a8613080565b5b5f6132b6868287016130ca565b93505060206132c7868287016130fd565b92505060406132d8868287016130ca565b9150509250925092565b5f61ffff82169050919050565b6132f8816132e2565b8114613302575f5ffd5b50565b5f81359050613313816132ef565b92915050565b5f5f5f5f6080858703121561333157613330613080565b5b5f61333e878288016130ca565b945050602061334f878288016130fd565b9350506040613360878288016130ca565b925050606061337187828801613305565b91505092959194509250565b613386816130a3565b82525050565b5f60208201905061339f5f83018461337d565b92915050565b5f5f604083850312156133bb576133ba613080565b5b5f6133c8858286016130ca565b92505060206133d9858286016130ca565b9150509250929050565b5f8115159050919050565b6133f7816133e3565b82525050565b5f60a0820190506134105f830188613227565b61341d6020830187613227565b61342a6040830186613227565b6134376060830185613227565b61344460808301846133ee565b9695505050505050565b5f5f5f5f5f60a0868803121561346757613466613080565b5b5f613474888289016130ca565b9550506020613485888289016130fd565b9450506040613496888289016130fd565b93505060606134a788828901613305565b92505060806134b8888289016130ca565b9150509295509295909350565b5f602082840312156134da576134d9613080565b5b5f6134e7848285016130fd565b91505092915050565b5f6134fa826131dd565b9050919050565b61350a816134f0565b82525050565b5f6020820190506135235f830184613501565b92915050565b5f5f6040838503121561353f5761353e613080565b5b5f61354c858286016130ca565b925050602061355d858286016130fd565b9150509250929050565b5f82825260208201905092915050565b7f4f6e6c79204f776e6572000000000000000000000000000000000000000000005f82015250565b5f6135ab600a83613567565b91506135b682613577565b602082019050919050565b5f6020820190508181035f8301526135d88161359f565b9050919050565b7f417373657420616c7265616479206164646564000000000000000000000000005f82015250565b5f613613601383613567565b915061361e826135df565b602082019050919050565b5f6020820190508181035f83015261364081613607565b9050919050565b7f4173736574206e6f7420616374697665000000000000000000000000000000005f82015250565b5f61367b601083613567565b915061368682613647565b602082019050919050565b5f6020820190508181035f8301526136a88161366f565b9050919050565b5f6060820190506136c25f83018661337d565b6136cf602083018561337d565b6136dc6040830184613227565b949350505050565b6136ed816133e3565b81146136f7575f5ffd5b50565b5f81519050613708816136e4565b92915050565b5f6020828403121561372357613722613080565b5b5f613730848285016136fa565b91505092915050565b7f5472616e73666572206661696c656400000000000000000000000000000000005f82015250565b5f61376d600f83613567565b915061377882613739565b602082019050919050565b5f6020820190508181035f83015261379a81613761565b9050919050565b7f4e487b71000000000000000000000000000000000000000000000000000000005f52601160045260245ffd5b5f6137d8826130de565b91506137e3836130de565b92508282026137f1816130de565b91508282048414831517613808576138076137a1565b5b5092915050565b7f4e487b71000000000000000000000000000000000000000000000000000000005f52601260045260245ffd5b5f613846826130de565b9150613851836130de565b9250826138615761386061380f565b5b828204905092915050565b5f613876826130de565b9150613881836130de565b9250828203905081811115613899576138986137a1565b5b92915050565b7f416d6f756e74206d757374206265203e203000000000000000000000000000005f82015250565b5f6138d3601283613567565b91506138de8261389f565b602082019050919050565b5f6020820190508181035f830152613900816138c7565b9050919050565b5f613911826130de565b915061391c836130de565b9250828201905080821115613934576139336137a1565b5b92915050565b5f60408201905061394d5f83018561337d565b61395a6020830184613227565b9392505050565b7f496e73756666696369656e742062616c616e63650000000000000000000000005f82015250565b5f613995601483613567565b91506139a082613961565b602082019050919050565b5f6020820190508181035f8301526139c281613989565b9050919050565b5f6060820190506139dc5f830186613227565b6139e96020830185613227565b6139f66040830184613227565b949350505050565b5f81519050613a0c816130e7565b92915050565b5f60208284031215613a2757613a26613080565b5b5f613a34848285016139fe565b91505092915050565b7f496e73756666696369656e7420706f6f6c206c697175696469747900000000005f82015250565b5f613a71601b83613567565b9150613a7c82613a3d565b602082019050919050565b5f6020820190508181035f830152613a9e81613a65565b9050919050565b7f496e73756666696369656e7420726573657276657300000000000000000000005f82015250565b5f613ad9601583613567565b9150613ae482613aa5565b602082019050919050565b5f6020820190508181035f830152613b0681613acd565b905091905056fea264697066735822122040b8eed3dabd2fef18fc6a845160478120a413eea6033b3fe1231a27a73aa9f564736f6c634300081e0033","linkReferences":{}},"methodIdentifiers":{"RAY()":"552033c4","SECONDS_PER_YEAR()":"e6a69ab8","WAD()":"6a146024","accrueInterest(address)":"9198e515","addAsset(address,uint256,uint256,uint256,uint256)":"3249cff6","assetConfigs(address)":"7609d7f6","borrow(address,uint256,uint256,uint16,address)":"a415bcad","borrowIndex(address)":"b0b92764","borrowingEngine()":"e3386f5d","getBorrowRate(address)":"d71275f6","getSupplyRate(address)":"6b5441a9","getUserBalance(address,address)":"6805d6ad","getUserDebt(address,address)":"a2a00ed6","getUtilizationRate(address)":"7b6aa8bd","lastAccrueTime(address)":"6c9dc600","owner()":"8da5cb5b","rateModels(address)":"51324f12","repay(address,uint256,address)":"5ceae9c4","reserves(address)":"d66bd524","riskManager()":"47842663","setBorrowingEngine(address)":"3b40af17","setInterestRateModel(address,uint256,uint256,uint256,uint256)":"6ff45934","setRiskManager(address)":"62ca8460","setTreasury(address)":"f0f44260","supply(address,uint256,address,uint16)":"617ba037","supplyIndex(address)":"e380fcad","supportedAssets(uint256)":"c68dbb37","totalBorrowed(address)":"e2e1ca2b","totalSupplied(address)":"6bbe56cf","treasury()":"61d027b3","withdraw(address,uint256,address)":"69328dec","withdrawReserves(address,uint256)":"e478795d"},"id":27}