{"abi":[{"type":"constructor","inputs":[],"stateMutability":"nonpayable"},{"type":"function","name":"addAsset","inputs":[{"name":"asset","type":"address","internalType":"address"}],"outputs":[],"stateMutability":"nonpayable"},{"type":"function","name":"borrow","inputs":[{"name":"asset","type":"address","internalType":"address"},{"name":"amount","type":"uint256","internalType":"uint256"},{"name":"interestRateMode","type":"uint256","internalType":"uint256"},{"name":"referralCode","type":"uint16","internalType":"uint16"},{"name":"onBehalfOf","type":"address","internalType":"address"}],"outputs":[],"stateMutability":"nonpayable"},{"type":"function","name":"borrowingEngine","inputs":[],"outputs":[{"name":"","type":"address","internalType":"contract BorrowingEngine"}],"stateMutability":"view"},{"type":"function","name":"getUserBalance","inputs":[{"name":"user","type":"address","internalType":"address"},{"name":"asset","type":"address","internalType":"address"}],"outputs":[{"name":"","type":"uint256","internalType":"uint256"}],"stateMutability":"view"},{"type":"function","name":"getUserDebt","inputs":[{"name":"user","type":"address","internalType":"address"},{"name":"asset","type":"address","internalType":"address"}],"outputs":[{"name":"","type":"uint256","internalType":"uint256"}],"stateMutability":"view"},{"type":"function","name":"repay","inputs":[{"name":"asset","type":"address","internalType":"address"},{"name":"amount","type":"uint256","internalType":"uint256"},{"name":"onBehalfOf","type":"address","internalType":"address"}],"outputs":[],"stateMutability":"nonpayable"},{"type":"function","name":"riskManager","inputs":[],"outputs":[{"name":"","type":"address","internalType":"contract RiskManager"}],"stateMutability":"view"},{"type":"function","name":"setBorrowingEngine","inputs":[{"name":"_engine","type":"address","internalType":"address"}],"outputs":[],"stateMutability":"nonpayable"},{"type":"function","name":"setRiskManager","inputs":[{"name":"_riskManager","type":"address","internalType":"address"}],"outputs":[],"stateMutability":"nonpayable"},{"type":"function","name":"supply","inputs":[{"name":"asset","type":"address","internalType":"address"},{"name":"amount","type":"uint256","internalType":"uint256"},{"name":"onBehalfOf","type":"address","internalType":"address"},{"name":"referralCode","type":"uint16","internalType":"uint16"}],"outputs":[],"stateMutability":"nonpayable"},{"type":"function","name":"supportedAssets","inputs":[{"name":"","type":"uint256","internalType":"uint256"}],"outputs":[{"name":"","type":"address","internalType":"address"}],"stateMutability":"view"},{"type":"function","name":"totalBorrowed","inputs":[{"name":"","type":"address","internalType":"address"}],"outputs":[{"name":"","type":"uint256","internalType":"uint256"}],"stateMutability":"view"},{"type":"function","name":"totalSupplied","inputs":[{"name":"","type":"address","internalType":"address"}],"outputs":[{"name":"","type":"uint256","internalType":"uint256"}],"stateMutability":"view"},{"type":"function","name":"withdraw","inputs":[{"name":"asset","type":"address","internalType":"address"},{"name":"amount","type":"uint256","internalType":"uint256"},{"name":"to","type":"address","internalType":"address"}],"outputs":[],"stateMutability":"nonpayable"},{"type":"event","name":"Borrow","inputs":[{"name":"user","type":"address","indexed":true,"internalType":"address"},{"name":"asset","type":"address","indexed":true,"internalType":"address"},{"name":"amount","type":"uint256","indexed":false,"internalType":"uint256"}],"anonymous":false},{"type":"event","name":"Repay","inputs":[{"name":"user","type":"address","indexed":true,"internalType":"address"},{"name":"asset","type":"address","indexed":true,"internalType":"address"},{"name":"amount","type":"uint256","indexed":false,"internalType":"uint256"}],"anonymous":false},{"type":"event","name":"Supply","inputs":[{"name":"user","type":"address","indexed":true,"internalType":"address"},{"name":"asset","type":"address","indexed":true,"internalType":"address"},{"name":"amount","type":"uint256","indexed":false,"internalType":"uint256"}],"anonymous":false},{"type":"event","name":"Withdraw","inputs":[{"name":"user","type":"address","indexed":true,"internalType":"address"},{"name":"asset","type":"address","indexed":true,"internalType":"address"},{"name":"amount","type":"uint256","indexed":false,"internalType":"uint256"}],"anonymous":false}],"bytecode":{"object":"0x6080604052348015600e575f5ffd5b506114618061001c5f395ff3fe608060405234801561000f575f5ffd5b50600436106100e8575f3560e01c806369328dec1161008a578063a415bcad11610064578063a415bcad14610242578063c68dbb371461025e578063e2e1ca2b1461028e578063e3386f5d146102be576100e8565b806369328dec146101c65780636bbe56cf146101e2578063a2a00ed614610212576100e8565b80635ceae9c4116100c65780635ceae9c414610142578063617ba0371461015e57806362ca84601461017a5780636805d6ad14610196576100e8565b8063298410e5146100ec5780633b40af17146101085780634784266314610124575b5f5ffd5b61010660048036038101906101019190610f6b565b6102dc565b005b610122600480360381019061011d9190610f6b565b61033f565b005b61012c610381565b6040516101399190610ff1565b60405180910390f35b61015c6004803603810190610157919061103d565b6103a6565b005b610178600480360381019061017391906110c4565b610581565b005b610194600480360381019061018f9190610f6b565b610834565b005b6101b060048036038101906101ab9190611128565b610877565b6040516101bd9190611175565b60405180910390f35b6101e060048036038101906101db919061103d565b6108f9565b005b6101fc60048036038101906101f79190610f6b565b610bda565b6040516102099190611175565b60405180910390f35b61022c60048036038101906102279190611128565b610bef565b6040516102399190611175565b60405180910390f35b61025c6004803603810190610257919061118e565b610c71565b005b61027860048036038101906102739190611205565b610e99565b604051610285919061123f565b60405180910390f35b6102a860048036038101906102a39190610f6b565b610ed4565b6040516102b59190611175565b60405180910390f35b6102c6610ee9565b6040516102d39190611278565b60405180910390f35b600681908060018154018082558091505060019003905f5260205f20015f9091909190916101000a81548173ffffffffffffffffffffffffffffffffffffffff021916908373ffffffffffffffffffffffffffffffffffffffff16021790555050565b805f5f6101000a81548173ffffffffffffffffffffffffffffffffffffffff021916908373ffffffffffffffffffffffffffffffffffffffff16021790555050565b60015f9054906101000a900473ffffffffffffffffffffffffffffffffffffffff1681565b5f60035f8373ffffffffffffffffffffffffffffffffffffffff1673ffffffffffffffffffffffffffffffffffffffff1681526020019081526020015f205f8573ffffffffffffffffffffffffffffffffffffffff1673ffffffffffffffffffffffffffffffffffffffff1681526020019081526020015f205490505f8184116104305783610432565b815b90508060035f8573ffffffffffffffffffffffffffffffffffffffff1673ffffffffffffffffffffffffffffffffffffffff1681526020019081526020015f205f8773ffffffffffffffffffffffffffffffffffffffff1673ffffffffffffffffffffffffffffffffffffffff1681526020019081526020015f205f8282546104bb91906112be565b925050819055508060055f8773ffffffffffffffffffffffffffffffffffffffff1673ffffffffffffffffffffffffffffffffffffffff1681526020019081526020015f205f82825461050e91906112be565b925050819055508473ffffffffffffffffffffffffffffffffffffffff168373ffffffffffffffffffffffffffffffffffffffff167f05f2eeda0e08e4b437f487c8d7d29b14537d15e3488170dc3de5dbdf8dac4684836040516105729190611175565b60405180910390a35050505050565b5f83116105c3576040517f08c379a00000000000000000000000000000000000000000000000000000000081526004016105ba9061134b565b60405180910390fd5b5f73ffffffffffffffffffffffffffffffffffffffff1660015f9054906101000a900473ffffffffffffffffffffffffffffffffffffffff1673ffffffffffffffffffffffffffffffffffffffff16146106e85760015f9054906101000a900473ffffffffffffffffffffffffffffffffffffffff1673ffffffffffffffffffffffffffffffffffffffff166303ec0201858560045f8973ffffffffffffffffffffffffffffffffffffffff1673ffffffffffffffffffffffffffffffffffffffff1681526020019081526020015f205461069e9190611369565b6040518363ffffffff1660e01b81526004016106bb92919061139c565b5f6040518083038186803b1580156106d1575f5ffd5b505afa1580156106e3573d5f5f3e3d5ffd5b505050505b8260025f8473ffffffffffffffffffffffffffffffffffffffff1673ffffffffffffffffffffffffffffffffffffffff1681526020019081526020015f205f8673ffffffffffffffffffffffffffffffffffffffff1673ffffffffffffffffffffffffffffffffffffffff1681526020019081526020015f205f82825461076f9190611369565b925050819055508260045f8673ffffffffffffffffffffffffffffffffffffffff1673ffffffffffffffffffffffffffffffffffffffff1681526020019081526020015f205f8282546107c29190611369565b925050819055508373ffffffffffffffffffffffffffffffffffffffff168273ffffffffffffffffffffffffffffffffffffffff167fd1cf3d156d5f8f0d50f6c122ed609cec09d35c9b9fb3fff6ea0959134dae424e856040516108269190611175565b60405180910390a350505050565b8060015f6101000a81548173ffffffffffffffffffffffffffffffffffffffff021916908373ffffffffffffffffffffffffffffffffffffffff16021790555050565b5f60025f8473ffffffffffffffffffffffffffffffffffffffff1673ffffffffffffffffffffffffffffffffffffffff1681526020019081526020015f205f8373ffffffffffffffffffffffffffffffffffffffff1673ffffffffffffffffffffffffffffffffffffffff1681526020019081526020015f2054905092915050565b8160025f3373ffffffffffffffffffffffffffffffffffffffff1673ffffffffffffffffffffffffffffffffffffffff1681526020019081526020015f205f8573ffffffffffffffffffffffffffffffffffffffff1673ffffffffffffffffffffffffffffffffffffffff1681526020019081526020015f205410156109b4576040517f08c379a00000000000000000000000000000000000000000000000000000000081526004016109ab9061140d565b60405180910390fd5b5f73ffffffffffffffffffffffffffffffffffffffff1660015f9054906101000a900473ffffffffffffffffffffffffffffffffffffffff1673ffffffffffffffffffffffffffffffffffffffff1614610a8f5760015f9054906101000a900473ffffffffffffffffffffffffffffffffffffffff1673ffffffffffffffffffffffffffffffffffffffff16630a27a6c1846040518263ffffffff1660e01b8152600401610a62919061123f565b5f6040518083038186803b158015610a78575f5ffd5b505afa158015610a8a573d5f5f3e3d5ffd5b505050505b8160025f3373ffffffffffffffffffffffffffffffffffffffff1673ffffffffffffffffffffffffffffffffffffffff1681526020019081526020015f205f8573ffffffffffffffffffffffffffffffffffffffff1673ffffffffffffffffffffffffffffffffffffffff1681526020019081526020015f205f828254610b1691906112be565b925050819055508160045f8573ffffffffffffffffffffffffffffffffffffffff1673ffffffffffffffffffffffffffffffffffffffff1681526020019081526020015f205f828254610b6991906112be565b925050819055508273ffffffffffffffffffffffffffffffffffffffff163373ffffffffffffffffffffffffffffffffffffffff167f9b1bfa7fa9ee420a16e124f794c35ac9f90472acc99140eb2f6447c714cad8eb84604051610bcd9190611175565b60405180910390a3505050565b6004602052805f5260405f205f915090505481565b5f60035f8473ffffffffffffffffffffffffffffffffffffffff1673ffffffffffffffffffffffffffffffffffffffff1681526020019081526020015f205f8373ffffffffffffffffffffffffffffffffffffffff1673ffffffffffffffffffffffffffffffffffffffff1681526020019081526020015f2054905092915050565b5f73ffffffffffffffffffffffffffffffffffffffff1660015f9054906101000a900473ffffffffffffffffffffffffffffffffffffffff1673ffffffffffffffffffffffffffffffffffffffff1614610d4c5760015f9054906101000a900473ffffffffffffffffffffffffffffffffffffffff1673ffffffffffffffffffffffffffffffffffffffff16632442b840866040518263ffffffff1660e01b8152600401610d1f919061123f565b5f6040518083038186803b158015610d35575f5ffd5b505afa158015610d47573d5f5f3e3d5ffd5b505050505b8360035f8373ffffffffffffffffffffffffffffffffffffffff1673ffffffffffffffffffffffffffffffffffffffff1681526020019081526020015f205f8773ffffffffffffffffffffffffffffffffffffffff1673ffffffffffffffffffffffffffffffffffffffff1681526020019081526020015f205f828254610dd39190611369565b925050819055508360055f8773ffffffffffffffffffffffffffffffffffffffff1673ffffffffffffffffffffffffffffffffffffffff1681526020019081526020015f205f828254610e269190611369565b925050819055508473ffffffffffffffffffffffffffffffffffffffff168173ffffffffffffffffffffffffffffffffffffffff167f312a5e5e1079f5dda4e95dbbd0b908b291fd5b992ef22073643ab691572c5b5286604051610e8a9190611175565b60405180910390a35050505050565b60068181548110610ea8575f80fd5b905f5260205f20015f915054906101000a900473ffffffffffffffffffffffffffffffffffffffff1681565b6005602052805f5260405f205f915090505481565b5f5f9054906101000a900473ffffffffffffffffffffffffffffffffffffffff1681565b5f5ffd5b5f73ffffffffffffffffffffffffffffffffffffffff82169050919050565b5f610f3a82610f11565b9050919050565b610f4a81610f30565b8114610f54575f5ffd5b50565b5f81359050610f6581610f41565b92915050565b5f60208284031215610f8057610f7f610f0d565b5b5f610f8d84828501610f57565b91505092915050565b5f819050919050565b5f610fb9610fb4610faf84610f11565b610f96565b610f11565b9050919050565b5f610fca82610f9f565b9050919050565b5f610fdb82610fc0565b9050919050565b610feb81610fd1565b82525050565b5f6020820190506110045f830184610fe2565b92915050565b5f819050919050565b61101c8161100a565b8114611026575f5ffd5b50565b5f8135905061103781611013565b92915050565b5f5f5f6060848603121561105457611053610f0d565b5b5f61106186828701610f57565b935050602061107286828701611029565b925050604061108386828701610f57565b9150509250925092565b5f61ffff82169050919050565b6110a38161108d565b81146110ad575f5ffd5b50565b5f813590506110be8161109a565b92915050565b5f5f5f5f608085870312156110dc576110db610f0d565b5b5f6110e987828801610f57565b94505060206110fa87828801611029565b935050604061110b87828801610f57565b925050606061111c878288016110b0565b91505092959194509250565b5f5f6040838503121561113e5761113d610f0d565b5b5f61114b85828601610f57565b925050602061115c85828601610f57565b9150509250929050565b61116f8161100a565b82525050565b5f6020820190506111885f830184611166565b92915050565b5f5f5f5f5f60a086880312156111a7576111a6610f0d565b5b5f6111b488828901610f57565b95505060206111c588828901611029565b94505060406111d688828901611029565b93505060606111e7888289016110b0565b92505060806111f888828901610f57565b9150509295509295909350565b5f6020828403121561121a57611219610f0d565b5b5f61122784828501611029565b91505092915050565b61123981610f30565b82525050565b5f6020820190506112525f830184611230565b92915050565b5f61126282610fc0565b9050919050565b61127281611258565b82525050565b5f60208201905061128b5f830184611269565b92915050565b7f4e487b71000000000000000000000000000000000000000000000000000000005f52601160045260245ffd5b5f6112c88261100a565b91506112d38361100a565b92508282039050818111156112eb576112ea611291565b5b92915050565b5f82825260208201905092915050565b7f416d6f756e74206d757374206265203e203000000000000000000000000000005f82015250565b5f6113356012836112f1565b915061134082611301565b602082019050919050565b5f6020820190508181035f83015261136281611329565b9050919050565b5f6113738261100a565b915061137e8361100a565b925082820190508082111561139657611395611291565b5b92915050565b5f6040820190506113af5f830185611230565b6113bc6020830184611166565b9392505050565b7f496e73756666696369656e742062616c616e63650000000000000000000000005f82015250565b5f6113f76014836112f1565b9150611402826113c3565b602082019050919050565b5f6020820190508181035f830152611424816113eb565b905091905056fea2646970667358221220069e6960c5eafc87d821caf546a670de126370b206512c8fec2731b90b87251164736f6c634300081e0033","linkReferences":{}},"methodIdentifiers":{"addAsset(address)":"298410e5","borrow(address,uint256,uint256,uint16,address)":"a415bcad","borrowingEngine()":"e3386f5d","getUserBalance(address,address)":"6805d6ad","getUserDebt(address,address)":"a2a00ed6","repay(address,uint256,address)":"5ceae9c4","riskManager()":"47842663","setBorrowingEngine(address)":"3b40af17","setRiskManager(address)":"62ca8460","supply(address,uint256,address,uint16)":"617ba037","supportedAssets(uint256)":"c68dbb37","totalBorrowed(address)":"e2e1ca2b","totalSupplied(address)":"6bbe56cf","withdraw(address,uint256,address)":"69328dec"},"id":20}