{"abi":[{"type":"constructor","inputs":[],"stateMutability":"nonpayable"},{"type":"function","name":"addAsset","inputs":[{"name":"asset","type":"address","internalType":"address"}],"outputs":[],"stateMutability":"nonpayable"},{"type":"function","name":"borrow","inputs":[{"name":"asset","type":"address","internalType":"address"},{"name":"amount","type":"uint256","internalType":"uint256"},{"name":"interestRateMode","type":"uint256","internalType":"uint256"},{"name":"referralCode","type":"uint16","internalType":"uint16"},{"name":"onBehalfOf","type":"address","internalType":"address"}],"outputs":[],"stateMutability":"nonpayable"},{"type":"function","name":"borrowingEngine","inputs":[],"outputs":[{"name":"","type":"address","internalType":"contract BorrowingEngine"}],"stateMutability":"view"},{"type":"function","name":"getUserBalance","inputs":[{"name":"user","type":"address","internalType":"address"},{"name":"asset","type":"address","internalType":"address"}],"outputs":[{"name":"","type":"uint256","internalType":"uint256"}],"stateMutability":"view"},{"type":"function","name":"getUserDebt","inputs":[{"name":"user","type":"address","internalType":"address"},{"name":"asset","type":"address","internalType":"address"}],"outputs":[{"name":"","type":"uint256","internalType":"uint256"}],"stateMutability":"view"},{"type":"function","name":"repay","inputs":[{"name":"asset","type":"address","internalType":"address"},{"name":"amount","type":"uint256","internalType":"uint256"},{"name":"onBehalfOf","type":"address","internalType":"address"}],"outputs":[],"stateMutability":"nonpayable"},{"type":"function","name":"riskManager","inputs":[],"outputs":[{"name":"","type":"address","internalType":"contract RiskManager"}],"stateMutability":"view"},{"type":"function","name":"setBorrowingEngine","inputs":[{"name":"_engine","type":"address","internalType":"address"}],"outputs":[],"stateMutability":"nonpayable"},{"type":"function","name":"setRiskManager","inputs":[{"name":"_riskManager","type":"address","internalType":"address"}],"outputs":[],"stateMutability":"nonpayable"},{"type":"function","name":"supply","inputs":[{"name":"asset","type":"address","internalType":"address"},{"name":"amount","type":"uint256","internalType":"uint256"},{"name":"onBehalfOf","type":"address","internalType":"address"},{"name":"referralCode","type":"uint16","internalType":"uint16"}],"outputs":[],"stateMutability":"nonpayable"},{"type":"function","name":"supportedAssets","inputs":[{"name":"","type":"uint256","internalType":"uint256"}],"outputs":[{"name":"","type":"address","internalType":"address"}],"stateMutability":"view"},{"type":"function","name":"totalBorrowed","inputs":[{"name":"","type":"address","internalType":"address"}],"outputs":[{"name":"","type":"uint256","internalType":"uint256"}],"stateMutability":"view"},{"type":"function","name":"totalSupplied","inputs":[{"name":"","type":"address","internalType":"address"}],"outputs":[{"name":"","type":"uint256","internalType":"uint256"}],"stateMutability":"view"},{"type":"function","name":"withdraw","inputs":[{"name":"asset","type":"address","internalType":"address"},{"name":"amount","type":"uint256","internalType":"uint256"},{"name":"to","type":"address","internalType":"address"}],"outputs":[],"stateMutability":"nonpayable"},{"type":"event","name":"Borrow","inputs":[{"name":"user","type":"address","indexed":true,"internalType":"address"},{"name":"asset","type":"address","indexed":true,"internalType":"address"},{"name":"amount","type":"uint256","indexed":false,"internalType":"uint256"}],"anonymous":false},{"type":"event","name":"Repay","inputs":[{"name":"user","type":"address","indexed":true,"internalType":"address"},{"name":"asset","type":"address","indexed":true,"internalType":"address"},{"name":"amount","type":"uint256","indexed":false,"internalType":"uint256"}],"anonymous":false},{"type":"event","name":"Supply","inputs":[{"name":"user","type":"address","indexed":true,"internalType":"address"},{"name":"asset","type":"address","indexed":true,"internalType":"address"},{"name":"amount","type":"uint256","indexed":false,"internalType":"uint256"}],"anonymous":false},{"type":"event","name":"Withdraw","inputs":[{"name":"user","type":"address","indexed":true,"internalType":"address"},{"name":"asset","type":"address","indexed":true,"internalType":"address"},{"name":"amount","type":"uint256","indexed":false,"internalType":"uint256"}],"anonymous":false}],"bytecode":{"object":"0x6080604052348015600e575f5ffd5b5061185e8061001c5f395ff3fe608060405234801561000f575f5ffd5b50600436106100e8575f3560e01c806369328dec1161008a578063a415bcad11610064578063a415bcad14610242578063c68dbb371461025e578063e2e1ca2b1461028e578063e3386f5d146102be576100e8565b806369328dec146101c65780636bbe56cf146101e2578063a2a00ed614610212576100e8565b80635ceae9c4116100c65780635ceae9c414610142578063617ba0371461015e57806362ca84601461017a5780636805d6ad14610196576100e8565b8063298410e5146100ec5780633b40af17146101085780634784266314610124575b5f5ffd5b6101066004803603810190610101919061126b565b6102dc565b005b610122600480360381019061011d919061126b565b61033f565b005b61012c610381565b60405161013991906112f1565b60405180910390f35b61015c6004803603810190610157919061133d565b6103a6565b005b610178600480360381019061017391906113c4565b610642565b005b610194600480360381019061018f919061126b565b6109b6565b005b6101b060048036038101906101ab9190611428565b6109f9565b6040516101bd9190611475565b60405180910390f35b6101e060048036038101906101db919061133d565b610a7b565b005b6101fc60048036038101906101f7919061126b565b610e1b565b6040516102099190611475565b60405180910390f35b61022c60048036038101906102279190611428565b610e30565b6040516102399190611475565b60405180910390f35b61025c6004803603810190610257919061148e565b610eb2565b005b61027860048036038101906102739190611505565b611199565b604051610285919061153f565b60405180910390f35b6102a860048036038101906102a3919061126b565b6111d4565b6040516102b59190611475565b60405180910390f35b6102c66111e9565b6040516102d39190611578565b60405180910390f35b600681908060018154018082558091505060019003905f5260205f20015f9091909190916101000a81548173ffffffffffffffffffffffffffffffffffffffff021916908373ffffffffffffffffffffffffffffffffffffffff16021790555050565b805f5f6101000a81548173ffffffffffffffffffffffffffffffffffffffff021916908373ffffffffffffffffffffffffffffffffffffffff16021790555050565b60015f9054906101000a900473ffffffffffffffffffffffffffffffffffffffff1681565b5f8373ffffffffffffffffffffffffffffffffffffffff166323b872dd3330866040518463ffffffff1660e01b81526004016103e493929190611591565b6020604051808303815f875af1158015610400573d5f5f3e3d5ffd5b505050506040513d601f19601f8201168201806040525081019061042491906115fb565b905080610466576040517f08c379a000000000000000000000000000000000000000000000000000000000815260040161045d90611680565b60405180910390fd5b5f60035f8473ffffffffffffffffffffffffffffffffffffffff1673ffffffffffffffffffffffffffffffffffffffff1681526020019081526020015f205f8673ffffffffffffffffffffffffffffffffffffffff1673ffffffffffffffffffffffffffffffffffffffff1681526020019081526020015f205490505f8185116104f057846104f2565b815b90508060035f8673ffffffffffffffffffffffffffffffffffffffff1673ffffffffffffffffffffffffffffffffffffffff1681526020019081526020015f205f8873ffffffffffffffffffffffffffffffffffffffff1673ffffffffffffffffffffffffffffffffffffffff1681526020019081526020015f205f82825461057b91906116cb565b925050819055508060055f8873ffffffffffffffffffffffffffffffffffffffff1673ffffffffffffffffffffffffffffffffffffffff1681526020019081526020015f205f8282546105ce91906116cb565b925050819055508573ffffffffffffffffffffffffffffffffffffffff168473ffffffffffffffffffffffffffffffffffffffff167f05f2eeda0e08e4b437f487c8d7d29b14537d15e3488170dc3de5dbdf8dac4684836040516106329190611475565b60405180910390a3505050505050565b5f8311610684576040517f08c379a000000000000000000000000000000000000000000000000000000000815260040161067b90611748565b60405180910390fd5b5f73ffffffffffffffffffffffffffffffffffffffff1660015f9054906101000a900473ffffffffffffffffffffffffffffffffffffffff1673ffffffffffffffffffffffffffffffffffffffff16146107a95760015f9054906101000a900473ffffffffffffffffffffffffffffffffffffffff1673ffffffffffffffffffffffffffffffffffffffff166303ec0201858560045f8973ffffffffffffffffffffffffffffffffffffffff1673ffffffffffffffffffffffffffffffffffffffff1681526020019081526020015f205461075f9190611766565b6040518363ffffffff1660e01b815260040161077c929190611799565b5f6040518083038186803b158015610792575f5ffd5b505afa1580156107a4573d5f5f3e3d5ffd5b505050505b5f8473ffffffffffffffffffffffffffffffffffffffff166323b872dd3330876040518463ffffffff1660e01b81526004016107e793929190611591565b6020604051808303815f875af1158015610803573d5f5f3e3d5ffd5b505050506040513d601f19601f8201168201806040525081019061082791906115fb565b905080610869576040517f08c379a000000000000000000000000000000000000000000000000000000000815260040161086090611680565b60405180910390fd5b8360025f8573ffffffffffffffffffffffffffffffffffffffff1673ffffffffffffffffffffffffffffffffffffffff1681526020019081526020015f205f8773ffffffffffffffffffffffffffffffffffffffff1673ffffffffffffffffffffffffffffffffffffffff1681526020019081526020015f205f8282546108f09190611766565b925050819055508360045f8773ffffffffffffffffffffffffffffffffffffffff1673ffffffffffffffffffffffffffffffffffffffff1681526020019081526020015f205f8282546109439190611766565b925050819055508473ffffffffffffffffffffffffffffffffffffffff168373ffffffffffffffffffffffffffffffffffffffff167fd1cf3d156d5f8f0d50f6c122ed609cec09d35c9b9fb3fff6ea0959134dae424e866040516109a79190611475565b60405180910390a35050505050565b8060015f6101000a81548173ffffffffffffffffffffffffffffffffffffffff021916908373ffffffffffffffffffffffffffffffffffffffff16021790555050565b5f60025f8473ffffffffffffffffffffffffffffffffffffffff1673ffffffffffffffffffffffffffffffffffffffff1681526020019081526020015f205f8373ffffffffffffffffffffffffffffffffffffffff1673ffffffffffffffffffffffffffffffffffffffff1681526020019081526020015f2054905092915050565b8160025f3373ffffffffffffffffffffffffffffffffffffffff1673ffffffffffffffffffffffffffffffffffffffff1681526020019081526020015f205f8573ffffffffffffffffffffffffffffffffffffffff1673ffffffffffffffffffffffffffffffffffffffff1681526020019081526020015f20541015610b36576040517f08c379a0000000000000000000000000000000000000000000000000000000008152600401610b2d9061180a565b60405180910390fd5b5f73ffffffffffffffffffffffffffffffffffffffff1660015f9054906101000a900473ffffffffffffffffffffffffffffffffffffffff1673ffffffffffffffffffffffffffffffffffffffff1614610c115760015f9054906101000a900473ffffffffffffffffffffffffffffffffffffffff1673ffffffffffffffffffffffffffffffffffffffff16630a27a6c1846040518263ffffffff1660e01b8152600401610be4919061153f565b5f6040518083038186803b158015610bfa575f5ffd5b505afa158015610c0c573d5f5f3e3d5ffd5b505050505b8160025f3373ffffffffffffffffffffffffffffffffffffffff1673ffffffffffffffffffffffffffffffffffffffff1681526020019081526020015f205f8573ffffffffffffffffffffffffffffffffffffffff1673ffffffffffffffffffffffffffffffffffffffff1681526020019081526020015f205f828254610c9891906116cb565b925050819055508160045f8573ffffffffffffffffffffffffffffffffffffffff1673ffffffffffffffffffffffffffffffffffffffff1681526020019081526020015f205f828254610ceb91906116cb565b925050819055505f8373ffffffffffffffffffffffffffffffffffffffff1663a9059cbb83856040518363ffffffff1660e01b8152600401610d2e929190611799565b6020604051808303815f875af1158015610d4a573d5f5f3e3d5ffd5b505050506040513d601f19601f82011682018060405250810190610d6e91906115fb565b905080610db0576040517f08c379a0000000000000000000000000000000000000000000000000000000008152600401610da790611680565b60405180910390fd5b8373ffffffffffffffffffffffffffffffffffffffff163373ffffffffffffffffffffffffffffffffffffffff167f9b1bfa7fa9ee420a16e124f794c35ac9f90472acc99140eb2f6447c714cad8eb85604051610e0d9190611475565b60405180910390a350505050565b6004602052805f5260405f205f915090505481565b5f60035f8473ffffffffffffffffffffffffffffffffffffffff1673ffffffffffffffffffffffffffffffffffffffff1681526020019081526020015f205f8373ffffffffffffffffffffffffffffffffffffffff1673ffffffffffffffffffffffffffffffffffffffff1681526020019081526020015f2054905092915050565b5f73ffffffffffffffffffffffffffffffffffffffff1660015f9054906101000a900473ffffffffffffffffffffffffffffffffffffffff1673ffffffffffffffffffffffffffffffffffffffff1614610f8d5760015f9054906101000a900473ffffffffffffffffffffffffffffffffffffffff1673ffffffffffffffffffffffffffffffffffffffff16632442b840866040518263ffffffff1660e01b8152600401610f60919061153f565b5f6040518083038186803b158015610f76575f5ffd5b505afa158015610f88573d5f5f3e3d5ffd5b505050505b8360035f8373ffffffffffffffffffffffffffffffffffffffff1673ffffffffffffffffffffffffffffffffffffffff1681526020019081526020015f205f8773ffffffffffffffffffffffffffffffffffffffff1673ffffffffffffffffffffffffffffffffffffffff1681526020019081526020015f205f8282546110149190611766565b925050819055508360055f8773ffffffffffffffffffffffffffffffffffffffff1673ffffffffffffffffffffffffffffffffffffffff1681526020019081526020015f205f8282546110679190611766565b925050819055505f8573ffffffffffffffffffffffffffffffffffffffff1663a9059cbb83876040518363ffffffff1660e01b81526004016110aa929190611799565b6020604051808303815f875af11580156110c6573d5f5f3e3d5ffd5b505050506040513d601f19601f820116820180604052508101906110ea91906115fb565b90508061112c576040517f08c379a000000000000000000000000000000000000000000000000000000000815260040161112390611680565b60405180910390fd5b8573ffffffffffffffffffffffffffffffffffffffff168273ffffffffffffffffffffffffffffffffffffffff167f312a5e5e1079f5dda4e95dbbd0b908b291fd5b992ef22073643ab691572c5b52876040516111899190611475565b60405180910390a3505050505050565b600681815481106111a8575f80fd5b905f5260205f20015f915054906101000a900473ffffffffffffffffffffffffffffffffffffffff1681565b6005602052805f5260405f205f915090505481565b5f5f9054906101000a900473ffffffffffffffffffffffffffffffffffffffff1681565b5f5ffd5b5f73ffffffffffffffffffffffffffffffffffffffff82169050919050565b5f61123a82611211565b9050919050565b61124a81611230565b8114611254575f5ffd5b50565b5f8135905061126581611241565b92915050565b5f602082840312156112805761127f61120d565b5b5f61128d84828501611257565b91505092915050565b5f819050919050565b5f6112b96112b46112af84611211565b611296565b611211565b9050919050565b5f6112ca8261129f565b9050919050565b5f6112db826112c0565b9050919050565b6112eb816112d1565b82525050565b5f6020820190506113045f8301846112e2565b92915050565b5f819050919050565b61131c8161130a565b8114611326575f5ffd5b50565b5f8135905061133781611313565b92915050565b5f5f5f606084860312156113545761135361120d565b5b5f61136186828701611257565b935050602061137286828701611329565b925050604061138386828701611257565b9150509250925092565b5f61ffff82169050919050565b6113a38161138d565b81146113ad575f5ffd5b50565b5f813590506113be8161139a565b92915050565b5f5f5f5f608085870312156113dc576113db61120d565b5b5f6113e987828801611257565b94505060206113fa87828801611329565b935050604061140b87828801611257565b925050606061141c878288016113b0565b91505092959194509250565b5f5f6040838503121561143e5761143d61120d565b5b5f61144b85828601611257565b925050602061145c85828601611257565b9150509250929050565b61146f8161130a565b82525050565b5f6020820190506114885f830184611466565b92915050565b5f5f5f5f5f60a086880312156114a7576114a661120d565b5b5f6114b488828901611257565b95505060206114c588828901611329565b94505060406114d688828901611329565b93505060606114e7888289016113b0565b92505060806114f888828901611257565b9150509295509295909350565b5f6020828403121561151a5761151961120d565b5b5f61152784828501611329565b91505092915050565b61153981611230565b82525050565b5f6020820190506115525f830184611530565b92915050565b5f611562826112c0565b9050919050565b61157281611558565b82525050565b5f60208201905061158b5f830184611569565b92915050565b5f6060820190506115a45f830186611530565b6115b16020830185611530565b6115be6040830184611466565b949350505050565b5f8115159050919050565b6115da816115c6565b81146115e4575f5ffd5b50565b5f815190506115f5816115d1565b92915050565b5f602082840312156116105761160f61120d565b5b5f61161d848285016115e7565b91505092915050565b5f82825260208201905092915050565b7f5472616e73666572206661696c656400000000000000000000000000000000005f82015250565b5f61166a600f83611626565b915061167582611636565b602082019050919050565b5f6020820190508181035f8301526116978161165e565b9050919050565b7f4e487b71000000000000000000000000000000000000000000000000000000005f52601160045260245ffd5b5f6116d58261130a565b91506116e08361130a565b92508282039050818111156116f8576116f761169e565b5b92915050565b7f416d6f756e74206d757374206265203e203000000000000000000000000000005f82015250565b5f611732601283611626565b915061173d826116fe565b602082019050919050565b5f6020820190508181035f83015261175f81611726565b9050919050565b5f6117708261130a565b915061177b8361130a565b92508282019050808211156117935761179261169e565b5b92915050565b5f6040820190506117ac5f830185611530565b6117b96020830184611466565b9392505050565b7f496e73756666696369656e742062616c616e63650000000000000000000000005f82015250565b5f6117f4601483611626565b91506117ff826117c0565b602082019050919050565b5f6020820190508181035f830152611821816117e8565b905091905056fea26469706673582212206936b3116b187b916c5cb97bfafbdebde0e5d1217ff2bee9c223ed6a6129a12064736f6c634300081e0033","linkReferences":{}},"methodIdentifiers":{"addAsset(address)":"298410e5","borrow(address,uint256,uint256,uint16,address)":"a415bcad","borrowingEngine()":"e3386f5d","getUserBalance(address,address)":"6805d6ad","getUserDebt(address,address)":"a2a00ed6","repay(address,uint256,address)":"5ceae9c4","riskManager()":"47842663","setBorrowingEngine(address)":"3b40af17","setRiskManager(address)":"62ca8460","supply(address,uint256,address,uint16)":"617ba037","supportedAssets(uint256)":"c68dbb37","totalBorrowed(address)":"e2e1ca2b","totalSupplied(address)":"6bbe56cf","withdraw(address,uint256,address)":"69328dec"},"id":19}