{"abi":[{"type":"constructor","inputs":[],"stateMutability":"nonpayable"},{"type":"function","name":"addAsset","inputs":[{"name":"asset","type":"address","internalType":"address"}],"outputs":[],"stateMutability":"nonpayable"},{"type":"function","name":"borrow","inputs":[{"name":"asset","type":"address","internalType":"address"},{"name":"amount","type":"uint256","internalType":"uint256"},{"name":"interestRateMode","type":"uint256","internalType":"uint256"},{"name":"referralCode","type":"uint16","internalType":"uint16"},{"name":"onBehalfOf","type":"address","internalType":"address"}],"outputs":[],"stateMutability":"nonpayable"},{"type":"function","name":"borrowingEngine","inputs":[],"outputs":[{"name":"","type":"address","internalType":"contract BorrowingEngine"}],"stateMutability":"view"},{"type":"function","name":"getUserBalance","inputs":[{"name":"user","type":"address","internalType":"address"},{"name":"asset","type":"address","internalType":"address"}],"outputs":[{"name":"","type":"uint256","internalType":"uint256"}],"stateMutability":"view"},{"type":"function","name":"getUserDebt","inputs":[{"name":"user","type":"address","internalType":"address"},{"name":"asset","type":"address","internalType":"address"}],"outputs":[{"name":"","type":"uint256","internalType":"uint256"}],"stateMutability":"view"},{"type":"function","name":"owner","inputs":[],"outputs":[{"name":"","type":"address","internalType":"address"}],"stateMutability":"view"},{"type":"function","name":"repay","inputs":[{"name":"asset","type":"address","internalType":"address"},{"name":"amount","type":"uint256","internalType":"uint256"},{"name":"onBehalfOf","type":"address","internalType":"address"}],"outputs":[],"stateMutability":"nonpayable"},{"type":"function","name":"rescueFunds","inputs":[{"name":"asset","type":"address","internalType":"address"},{"name":"amount","type":"uint256","internalType":"uint256"}],"outputs":[],"stateMutability":"nonpayable"},{"type":"function","name":"riskManager","inputs":[],"outputs":[{"name":"","type":"address","internalType":"contract RiskManager"}],"stateMutability":"view"},{"type":"function","name":"setBorrowingEngine","inputs":[{"name":"_engine","type":"address","internalType":"address"}],"outputs":[],"stateMutability":"nonpayable"},{"type":"function","name":"setRiskManager","inputs":[{"name":"_riskManager","type":"address","internalType":"address"}],"outputs":[],"stateMutability":"nonpayable"},{"type":"function","name":"setTreasury","inputs":[{"name":"_treasury","type":"address","internalType":"address"}],"outputs":[],"stateMutability":"nonpayable"},{"type":"function","name":"supply","inputs":[{"name":"asset","type":"address","internalType":"address"},{"name":"amount","type":"uint256","internalType":"uint256"},{"name":"onBehalfOf","type":"address","internalType":"address"},{"name":"referralCode","type":"uint16","internalType":"uint16"}],"outputs":[],"stateMutability":"nonpayable"},{"type":"function","name":"supportedAssets","inputs":[{"name":"","type":"uint256","internalType":"uint256"}],"outputs":[{"name":"","type":"address","internalType":"address"}],"stateMutability":"view"},{"type":"function","name":"totalBorrowed","inputs":[{"name":"","type":"address","internalType":"address"}],"outputs":[{"name":"","type":"uint256","internalType":"uint256"}],"stateMutability":"view"},{"type":"function","name":"totalSupplied","inputs":[{"name":"","type":"address","internalType":"address"}],"outputs":[{"name":"","type":"uint256","internalType":"uint256"}],"stateMutability":"view"},{"type":"function","name":"treasury","inputs":[],"outputs":[{"name":"","type":"address","internalType":"address"}],"stateMutability":"view"},{"type":"function","name":"withdraw","inputs":[{"name":"asset","type":"address","internalType":"address"},{"name":"amount","type":"uint256","internalType":"uint256"},{"name":"to","type":"address","internalType":"address"}],"outputs":[],"stateMutability":"nonpayable"},{"type":"event","name":"Borrow","inputs":[{"name":"user","type":"address","indexed":true,"internalType":"address"},{"name":"asset","type":"address","indexed":true,"internalType":"address"},{"name":"amount","type":"uint256","indexed":false,"internalType":"uint256"}],"anonymous":false},{"type":"event","name":"Repay","inputs":[{"name":"user","type":"address","indexed":true,"internalType":"address"},{"name":"asset","type":"address","indexed":true,"internalType":"address"},{"name":"amount","type":"uint256","indexed":false,"internalType":"uint256"}],"anonymous":false},{"type":"event","name":"Supply","inputs":[{"name":"user","type":"address","indexed":true,"internalType":"address"},{"name":"asset","type":"address","indexed":true,"internalType":"address"},{"name":"amount","type":"uint256","indexed":false,"internalType":"uint256"}],"anonymous":false},{"type":"event","name":"Withdraw","inputs":[{"name":"user","type":"address","indexed":true,"internalType":"address"},{"name":"asset","type":"address","indexed":true,"internalType":"address"},{"name":"amount","type":"uint256","indexed":false,"internalType":"uint256"}],"anonymous":false}],"bytecode":{"object":"0x6080604052348015600e575f5ffd5b503360075f6101000a81548173ffffffffffffffffffffffffffffffffffffffff021916908373ffffffffffffffffffffffffffffffffffffffff1602179055503360085f6101000a81548173ffffffffffffffffffffffffffffffffffffffff021916908373ffffffffffffffffffffffffffffffffffffffff160217905550611e9a8061009c5f395ff3fe608060405234801561000f575f5ffd5b5060043610610114575f3560e01c80636bbe56cf116100a0578063a415bcad1161006f578063a415bcad146102c6578063c68dbb37146102e2578063e2e1ca2b14610312578063e3386f5d14610342578063f0f442601461036057610114565b80636bbe56cf1461022c57806378e3214f1461025c5780638da5cb5b14610278578063a2a00ed61461029657610114565b8063617ba037116100e7578063617ba0371461018a57806361d027b3146101a657806362ca8460146101c45780636805d6ad146101e057806369328dec1461021057610114565b8063298410e5146101185780633b40af171461013457806347842663146101505780635ceae9c41461016e575b5f5ffd5b610132600480360381019061012d9190611734565b61037c565b005b61014e60048036038101906101499190611734565b6103df565b005b6101586104b0565b60405161016591906117ba565b60405180910390f35b61018860048036038101906101839190611806565b6104d5565b005b6101a4600480360381019061019f919061188d565b610771565b005b6101ae610ae5565b6040516101bb9190611900565b60405180910390f35b6101de60048036038101906101d99190611734565b610b0a565b005b6101fa60048036038101906101f59190611919565b610bdc565b6040516102079190611966565b60405180910390f35b61022a60048036038101906102259190611806565b610c5e565b005b61024660048036038101906102419190611734565b610ffe565b6040516102539190611966565b60405180910390f35b6102766004803603810190610271919061197f565b611013565b005b610280611143565b60405161028d9190611900565b60405180910390f35b6102b060048036038101906102ab9190611919565b611168565b6040516102bd9190611966565b60405180910390f35b6102e060048036038101906102db91906119bd565b6111ea565b005b6102fc60048036038101906102f79190611a34565b611590565b6040516103099190611900565b60405180910390f35b61032c60048036038101906103279190611734565b6115cb565b6040516103399190611966565b60405180910390f35b61034a6115e0565b6040516103579190611a7f565b60405180910390f35b61037a60048036038101906103759190611734565b611604565b005b600681908060018154018082558091505060019003905f5260205f20015f9091909190916101000a81548173ffffffffffffffffffffffffffffffffffffffff021916908373ffffffffffffffffffffffffffffffffffffffff16021790555050565b60075f9054906101000a900473ffffffffffffffffffffffffffffffffffffffff1673ffffffffffffffffffffffffffffffffffffffff163373ffffffffffffffffffffffffffffffffffffffff161461046e576040517f08c379a000000000000000000000000000000000000000000000000000000000815260040161046590611af2565b60405180910390fd5b805f5f6101000a81548173ffffffffffffffffffffffffffffffffffffffff021916908373ffffffffffffffffffffffffffffffffffffffff16021790555050565b60015f9054906101000a900473ffffffffffffffffffffffffffffffffffffffff1681565b5f8373ffffffffffffffffffffffffffffffffffffffff166323b872dd3330866040518463ffffffff1660e01b815260040161051393929190611b10565b6020604051808303815f875af115801561052f573d5f5f3e3d5ffd5b505050506040513d601f19601f820116820180604052508101906105539190611b7a565b905080610595576040517f08c379a000000000000000000000000000000000000000000000000000000000815260040161058c90611bef565b60405180910390fd5b5f60035f8473ffffffffffffffffffffffffffffffffffffffff1673ffffffffffffffffffffffffffffffffffffffff1681526020019081526020015f205f8673ffffffffffffffffffffffffffffffffffffffff1673ffffffffffffffffffffffffffffffffffffffff1681526020019081526020015f205490505f81851161061f5784610621565b815b90508060035f8673ffffffffffffffffffffffffffffffffffffffff1673ffffffffffffffffffffffffffffffffffffffff1681526020019081526020015f205f8873ffffffffffffffffffffffffffffffffffffffff1673ffffffffffffffffffffffffffffffffffffffff1681526020019081526020015f205f8282546106aa9190611c3a565b925050819055508060055f8873ffffffffffffffffffffffffffffffffffffffff1673ffffffffffffffffffffffffffffffffffffffff1681526020019081526020015f205f8282546106fd9190611c3a565b925050819055508573ffffffffffffffffffffffffffffffffffffffff168473ffffffffffffffffffffffffffffffffffffffff167f05f2eeda0e08e4b437f487c8d7d29b14537d15e3488170dc3de5dbdf8dac4684836040516107619190611966565b60405180910390a3505050505050565b5f83116107b3576040517f08c379a00000000000000000000000000000000000000000000000000000000081526004016107aa90611cb7565b60405180910390fd5b5f73ffffffffffffffffffffffffffffffffffffffff1660015f9054906101000a900473ffffffffffffffffffffffffffffffffffffffff1673ffffffffffffffffffffffffffffffffffffffff16146108d85760015f9054906101000a900473ffffffffffffffffffffffffffffffffffffffff1673ffffffffffffffffffffffffffffffffffffffff166303ec0201858560045f8973ffffffffffffffffffffffffffffffffffffffff1673ffffffffffffffffffffffffffffffffffffffff1681526020019081526020015f205461088e9190611cd5565b6040518363ffffffff1660e01b81526004016108ab929190611d08565b5f6040518083038186803b1580156108c1575f5ffd5b505afa1580156108d3573d5f5f3e3d5ffd5b505050505b5f8473ffffffffffffffffffffffffffffffffffffffff166323b872dd3330876040518463ffffffff1660e01b815260040161091693929190611b10565b6020604051808303815f875af1158015610932573d5f5f3e3d5ffd5b505050506040513d601f19601f820116820180604052508101906109569190611b7a565b905080610998576040517f08c379a000000000000000000000000000000000000000000000000000000000815260040161098f90611bef565b60405180910390fd5b8360025f8573ffffffffffffffffffffffffffffffffffffffff1673ffffffffffffffffffffffffffffffffffffffff1681526020019081526020015f205f8773ffffffffffffffffffffffffffffffffffffffff1673ffffffffffffffffffffffffffffffffffffffff1681526020019081526020015f205f828254610a1f9190611cd5565b925050819055508360045f8773ffffffffffffffffffffffffffffffffffffffff1673ffffffffffffffffffffffffffffffffffffffff1681526020019081526020015f205f828254610a729190611cd5565b925050819055508473ffffffffffffffffffffffffffffffffffffffff168373ffffffffffffffffffffffffffffffffffffffff167fd1cf3d156d5f8f0d50f6c122ed609cec09d35c9b9fb3fff6ea0959134dae424e86604051610ad69190611966565b60405180910390a35050505050565b60085f9054906101000a900473ffffffffffffffffffffffffffffffffffffffff1681565b60075f9054906101000a900473ffffffffffffffffffffffffffffffffffffffff1673ffffffffffffffffffffffffffffffffffffffff163373ffffffffffffffffffffffffffffffffffffffff1614610b99576040517f08c379a0000000000000000000000000000000000000000000000000000000008152600401610b9090611af2565b60405180910390fd5b8060015f6101000a81548173ffffffffffffffffffffffffffffffffffffffff021916908373ffffffffffffffffffffffffffffffffffffffff16021790555050565b5f60025f8473ffffffffffffffffffffffffffffffffffffffff1673ffffffffffffffffffffffffffffffffffffffff1681526020019081526020015f205f8373ffffffffffffffffffffffffffffffffffffffff1673ffffffffffffffffffffffffffffffffffffffff1681526020019081526020015f2054905092915050565b8160025f3373ffffffffffffffffffffffffffffffffffffffff1673ffffffffffffffffffffffffffffffffffffffff1681526020019081526020015f205f8573ffffffffffffffffffffffffffffffffffffffff1673ffffffffffffffffffffffffffffffffffffffff1681526020019081526020015f20541015610d19576040517f08c379a0000000000000000000000000000000000000000000000000000000008152600401610d1090611d79565b60405180910390fd5b5f73ffffffffffffffffffffffffffffffffffffffff1660015f9054906101000a900473ffffffffffffffffffffffffffffffffffffffff1673ffffffffffffffffffffffffffffffffffffffff1614610df45760015f9054906101000a900473ffffffffffffffffffffffffffffffffffffffff1673ffffffffffffffffffffffffffffffffffffffff16630a27a6c1846040518263ffffffff1660e01b8152600401610dc79190611900565b5f6040518083038186803b158015610ddd575f5ffd5b505afa158015610def573d5f5f3e3d5ffd5b505050505b8160025f3373ffffffffffffffffffffffffffffffffffffffff1673ffffffffffffffffffffffffffffffffffffffff1681526020019081526020015f205f8573ffffffffffffffffffffffffffffffffffffffff1673ffffffffffffffffffffffffffffffffffffffff1681526020019081526020015f205f828254610e7b9190611c3a565b925050819055508160045f8573ffffffffffffffffffffffffffffffffffffffff1673ffffffffffffffffffffffffffffffffffffffff1681526020019081526020015f205f828254610ece9190611c3a565b925050819055505f8373ffffffffffffffffffffffffffffffffffffffff1663a9059cbb83856040518363ffffffff1660e01b8152600401610f11929190611d08565b6020604051808303815f875af1158015610f2d573d5f5f3e3d5ffd5b505050506040513d601f19601f82011682018060405250810190610f519190611b7a565b905080610f93576040517f08c379a0000000000000000000000000000000000000000000000000000000008152600401610f8a90611bef565b60405180910390fd5b8373ffffffffffffffffffffffffffffffffffffffff163373ffffffffffffffffffffffffffffffffffffffff167f9b1bfa7fa9ee420a16e124f794c35ac9f90472acc99140eb2f6447c714cad8eb85604051610ff09190611966565b60405180910390a350505050565b6004602052805f5260405f205f915090505481565b60075f9054906101000a900473ffffffffffffffffffffffffffffffffffffffff1673ffffffffffffffffffffffffffffffffffffffff163373ffffffffffffffffffffffffffffffffffffffff16146110a2576040517f08c379a000000000000000000000000000000000000000000000000000000000815260040161109990611af2565b60405180910390fd5b8173ffffffffffffffffffffffffffffffffffffffff1663a9059cbb60075f9054906101000a900473ffffffffffffffffffffffffffffffffffffffff16836040518363ffffffff1660e01b81526004016110fe929190611d08565b6020604051808303815f875af115801561111a573d5f5f3e3d5ffd5b505050506040513d601f19601f8201168201806040525081019061113e9190611b7a565b505050565b60075f9054906101000a900473ffffffffffffffffffffffffffffffffffffffff1681565b5f60035f8473ffffffffffffffffffffffffffffffffffffffff1673ffffffffffffffffffffffffffffffffffffffff1681526020019081526020015f205f8373ffffffffffffffffffffffffffffffffffffffff1673ffffffffffffffffffffffffffffffffffffffff1681526020019081526020015f2054905092915050565b5f73ffffffffffffffffffffffffffffffffffffffff1660015f9054906101000a900473ffffffffffffffffffffffffffffffffffffffff1673ffffffffffffffffffffffffffffffffffffffff16146112c55760015f9054906101000a900473ffffffffffffffffffffffffffffffffffffffff1673ffffffffffffffffffffffffffffffffffffffff16632442b840866040518263ffffffff1660e01b81526004016112989190611900565b5f6040518083038186803b1580156112ae575f5ffd5b505afa1580156112c0573d5f5f3e3d5ffd5b505050505b5f8573ffffffffffffffffffffffffffffffffffffffff166370a08231306040518263ffffffff1660e01b81526004016112ff9190611900565b602060405180830381865afa15801561131a573d5f5f3e3d5ffd5b505050506040513d601f19601f8201168201806040525081019061133e9190611dab565b905084811015611383576040517f08c379a000000000000000000000000000000000000000000000000000000000815260040161137a90611e46565b60405180910390fd5b8460035f8473ffffffffffffffffffffffffffffffffffffffff1673ffffffffffffffffffffffffffffffffffffffff1681526020019081526020015f205f8873ffffffffffffffffffffffffffffffffffffffff1673ffffffffffffffffffffffffffffffffffffffff1681526020019081526020015f205f82825461140a9190611cd5565b925050819055508460055f8873ffffffffffffffffffffffffffffffffffffffff1673ffffffffffffffffffffffffffffffffffffffff1681526020019081526020015f205f82825461145d9190611cd5565b925050819055505f8673ffffffffffffffffffffffffffffffffffffffff1663a9059cbb84886040518363ffffffff1660e01b81526004016114a0929190611d08565b6020604051808303815f875af11580156114bc573d5f5f3e3d5ffd5b505050506040513d601f19601f820116820180604052508101906114e09190611b7a565b905080611522576040517f08c379a000000000000000000000000000000000000000000000000000000000815260040161151990611bef565b60405180910390fd5b8673ffffffffffffffffffffffffffffffffffffffff168373ffffffffffffffffffffffffffffffffffffffff167f312a5e5e1079f5dda4e95dbbd0b908b291fd5b992ef22073643ab691572c5b528860405161157f9190611966565b60405180910390a350505050505050565b6006818154811061159f575f80fd5b905f5260205f20015f915054906101000a900473ffffffffffffffffffffffffffffffffffffffff1681565b6005602052805f5260405f205f915090505481565b5f5f9054906101000a900473ffffffffffffffffffffffffffffffffffffffff1681565b60075f9054906101000a900473ffffffffffffffffffffffffffffffffffffffff1673ffffffffffffffffffffffffffffffffffffffff163373ffffffffffffffffffffffffffffffffffffffff1614611693576040517f08c379a000000000000000000000000000000000000000000000000000000000815260040161168a90611af2565b60405180910390fd5b8060085f6101000a81548173ffffffffffffffffffffffffffffffffffffffff021916908373ffffffffffffffffffffffffffffffffffffffff16021790555050565b5f5ffd5b5f73ffffffffffffffffffffffffffffffffffffffff82169050919050565b5f611703826116da565b9050919050565b611713816116f9565b811461171d575f5ffd5b50565b5f8135905061172e8161170a565b92915050565b5f60208284031215611749576117486116d6565b5b5f61175684828501611720565b91505092915050565b5f819050919050565b5f61178261177d611778846116da565b61175f565b6116da565b9050919050565b5f61179382611768565b9050919050565b5f6117a482611789565b9050919050565b6117b48161179a565b82525050565b5f6020820190506117cd5f8301846117ab565b92915050565b5f819050919050565b6117e5816117d3565b81146117ef575f5ffd5b50565b5f81359050611800816117dc565b92915050565b5f5f5f6060848603121561181d5761181c6116d6565b5b5f61182a86828701611720565b935050602061183b868287016117f2565b925050604061184c86828701611720565b9150509250925092565b5f61ffff82169050919050565b61186c81611856565b8114611876575f5ffd5b50565b5f8135905061188781611863565b92915050565b5f5f5f5f608085870312156118a5576118a46116d6565b5b5f6118b287828801611720565b94505060206118c3878288016117f2565b93505060406118d487828801611720565b92505060606118e587828801611879565b91505092959194509250565b6118fa816116f9565b82525050565b5f6020820190506119135f8301846118f1565b92915050565b5f5f6040838503121561192f5761192e6116d6565b5b5f61193c85828601611720565b925050602061194d85828601611720565b9150509250929050565b611960816117d3565b82525050565b5f6020820190506119795f830184611957565b92915050565b5f5f60408385031215611995576119946116d6565b5b5f6119a285828601611720565b92505060206119b3858286016117f2565b9150509250929050565b5f5f5f5f5f60a086880312156119d6576119d56116d6565b5b5f6119e388828901611720565b95505060206119f4888289016117f2565b9450506040611a05888289016117f2565b9350506060611a1688828901611879565b9250506080611a2788828901611720565b9150509295509295909350565b5f60208284031215611a4957611a486116d6565b5b5f611a56848285016117f2565b91505092915050565b5f611a6982611789565b9050919050565b611a7981611a5f565b82525050565b5f602082019050611a925f830184611a70565b92915050565b5f82825260208201905092915050565b7f4f6e6c79204f776e6572000000000000000000000000000000000000000000005f82015250565b5f611adc600a83611a98565b9150611ae782611aa8565b602082019050919050565b5f6020820190508181035f830152611b0981611ad0565b9050919050565b5f606082019050611b235f8301866118f1565b611b3060208301856118f1565b611b3d6040830184611957565b949350505050565b5f8115159050919050565b611b5981611b45565b8114611b63575f5ffd5b50565b5f81519050611b7481611b50565b92915050565b5f60208284031215611b8f57611b8e6116d6565b5b5f611b9c84828501611b66565b91505092915050565b7f5472616e73666572206661696c656400000000000000000000000000000000005f82015250565b5f611bd9600f83611a98565b9150611be482611ba5565b602082019050919050565b5f6020820190508181035f830152611c0681611bcd565b9050919050565b7f4e487b71000000000000000000000000000000000000000000000000000000005f52601160045260245ffd5b5f611c44826117d3565b9150611c4f836117d3565b9250828203905081811115611c6757611c66611c0d565b5b92915050565b7f416d6f756e74206d757374206265203e203000000000000000000000000000005f82015250565b5f611ca1601283611a98565b9150611cac82611c6d565b602082019050919050565b5f6020820190508181035f830152611cce81611c95565b9050919050565b5f611cdf826117d3565b9150611cea836117d3565b9250828201905080821115611d0257611d01611c0d565b5b92915050565b5f604082019050611d1b5f8301856118f1565b611d286020830184611957565b9392505050565b7f496e73756666696369656e742062616c616e63650000000000000000000000005f82015250565b5f611d63601483611a98565b9150611d6e82611d2f565b602082019050919050565b5f6020820190508181035f830152611d9081611d57565b9050919050565b5f81519050611da5816117dc565b92915050565b5f60208284031215611dc057611dbf6116d6565b5b5f611dcd84828501611d97565b91505092915050565b7f496e73756666696369656e7420506f6f6c204c69717569646974793a205375705f8201527f706c792061737365747320666972737421000000000000000000000000000000602082015250565b5f611e30603183611a98565b9150611e3b82611dd6565b604082019050919050565b5f6020820190508181035f830152611e5d81611e24565b905091905056fea26469706673582212206f049b86c2503e1ad4b5821e9f12c37c078d24055f47e7ca09530476663d574564736f6c634300081e0033","linkReferences":{}},"methodIdentifiers":{"addAsset(address)":"298410e5","borrow(address,uint256,uint256,uint16,address)":"a415bcad","borrowingEngine()":"e3386f5d","getUserBalance(address,address)":"6805d6ad","getUserDebt(address,address)":"a2a00ed6","owner()":"8da5cb5b","repay(address,uint256,address)":"5ceae9c4","rescueFunds(address,uint256)":"78e3214f","riskManager()":"47842663","setBorrowingEngine(address)":"3b40af17","setRiskManager(address)":"62ca8460","setTreasury(address)":"f0f44260","supply(address,uint256,address,uint16)":"617ba037","supportedAssets(uint256)":"c68dbb37","totalBorrowed(address)":"e2e1ca2b","totalSupplied(address)":"6bbe56cf","treasury()":"61d027b3","withdraw(address,uint256,address)":"69328dec"},"id":19}