{"abi":[{"type":"constructor","inputs":[],"stateMutability":"nonpayable"},{"type":"function","name":"RAY","inputs":[],"outputs":[{"name":"","type":"uint256","internalType":"uint256"}],"stateMutability":"view"},{"type":"function","name":"SECONDS_PER_YEAR","inputs":[],"outputs":[{"name":"","type":"uint256","internalType":"uint256"}],"stateMutability":"view"},{"type":"function","name":"WAD","inputs":[],"outputs":[{"name":"","type":"uint256","internalType":"uint256"}],"stateMutability":"view"},{"type":"function","name":"accrueInterest","inputs":[{"name":"asset","type":"address","internalType":"address"}],"outputs":[],"stateMutability":"nonpayable"},{"type":"function","name":"addAsset","inputs":[{"name":"asset","type":"address","internalType":"address"},{"name":"collateralFactor","type":"uint256","internalType":"uint256"},{"name":"liquidationThreshold","type":"uint256","internalType":"uint256"},{"name":"liquidationBonus","type":"uint256","internalType":"uint256"},{"name":"reserveFactor","type":"uint256","internalType":"uint256"},{"name":"supplyCap","type":"uint256","internalType":"uint256"},{"name":"borrowCap","type":"uint256","internalType":"uint256"},{"name":"eModeCategory","type":"uint8","internalType":"uint8"}],"outputs":[],"stateMutability":"nonpayable"},{"type":"function","name":"assetConfigs","inputs":[{"name":"","type":"address","internalType":"address"}],"outputs":[{"name":"collateralFactor","type":"uint256","internalType":"uint256"},{"name":"liquidationThreshold","type":"uint256","internalType":"uint256"},{"name":"liquidationBonus","type":"uint256","internalType":"uint256"},{"name":"reserveFactor","type":"uint256","internalType":"uint256"},{"name":"supplyCap","type":"uint256","internalType":"uint256"},{"name":"borrowCap","type":"uint256","internalType":"uint256"},{"name":"eModeCategory","type":"uint8","internalType":"uint8"},{"name":"isActive","type":"bool","internalType":"bool"}],"stateMutability":"view"},{"type":"function","name":"borrow","inputs":[{"name":"asset","type":"address","internalType":"address"},{"name":"amount","type":"uint256","internalType":"uint256"},{"name":"interestRateMode","type":"uint256","internalType":"uint256"},{"name":"referralCode","type":"uint16","internalType":"uint16"},{"name":"onBehalfOf","type":"address","internalType":"address"}],"outputs":[],"stateMutability":"nonpayable"},{"type":"function","name":"borrowIndex","inputs":[{"name":"","type":"address","internalType":"address"}],"outputs":[{"name":"","type":"uint256","internalType":"uint256"}],"stateMutability":"view"},{"type":"function","name":"borrowingEngine","inputs":[],"outputs":[{"name":"","type":"address","internalType":"contract BorrowingEngine"}],"stateMutability":"view"},{"type":"function","name":"calculateUserHealthFactor","inputs":[{"name":"user","type":"address","internalType":"address"}],"outputs":[{"name":"","type":"uint256","internalType":"uint256"}],"stateMutability":"view"},{"type":"function","name":"eModeCategories","inputs":[{"name":"","type":"uint8","internalType":"uint8"}],"outputs":[{"name":"ltv","type":"uint16","internalType":"uint16"},{"name":"liquidationThreshold","type":"uint16","internalType":"uint16"},{"name":"liquidationBonus","type":"uint16","internalType":"uint16"},{"name":"label","type":"string","internalType":"string"}],"stateMutability":"view"},{"type":"function","name":"flashLoan","inputs":[{"name":"receiverAddress","type":"address","internalType":"address"},{"name":"asset","type":"address","internalType":"address"},{"name":"amount","type":"uint256","internalType":"uint256"},{"name":"params","type":"bytes","internalType":"bytes"}],"outputs":[],"stateMutability":"nonpayable"},{"type":"function","name":"getBorrowRate","inputs":[{"name":"asset","type":"address","internalType":"address"}],"outputs":[{"name":"","type":"uint256","internalType":"uint256"}],"stateMutability":"view"},{"type":"function","name":"getSupplyRate","inputs":[{"name":"asset","type":"address","internalType":"address"}],"outputs":[{"name":"","type":"uint256","internalType":"uint256"}],"stateMutability":"view"},{"type":"function","name":"getUserAccountData","inputs":[{"name":"user","type":"address","internalType":"address"}],"outputs":[{"name":"totalCollateralUSD","type":"uint256","internalType":"uint256"},{"name":"totalDebtUSD","type":"uint256","internalType":"uint256"},{"name":"availableBorrowsUSD","type":"uint256","internalType":"uint256"},{"name":"currentLiquidationThreshold","type":"uint256","internalType":"uint256"},{"name":"ltv","type":"uint256","internalType":"uint256"},{"name":"healthFactor","type":"uint256","internalType":"uint256"}],"stateMutability":"view"},{"type":"function","name":"getUserBalance","inputs":[{"name":"user","type":"address","internalType":"address"},{"name":"asset","type":"address","internalType":"address"}],"outputs":[{"name":"","type":"uint256","internalType":"uint256"}],"stateMutability":"view"},{"type":"function","name":"getUserDebt","inputs":[{"name":"user","type":"address","internalType":"address"},{"name":"asset","type":"address","internalType":"address"}],"outputs":[{"name":"","type":"uint256","internalType":"uint256"}],"stateMutability":"view"},{"type":"function","name":"getUtilizationRate","inputs":[{"name":"asset","type":"address","internalType":"address"}],"outputs":[{"name":"","type":"uint256","internalType":"uint256"}],"stateMutability":"view"},{"type":"function","name":"lastAccrueTime","inputs":[{"name":"","type":"address","internalType":"address"}],"outputs":[{"name":"","type":"uint256","internalType":"uint256"}],"stateMutability":"view"},{"type":"function","name":"liquidate","inputs":[{"name":"collateralAsset","type":"address","internalType":"address"},{"name":"debtAsset","type":"address","internalType":"address"},{"name":"user","type":"address","internalType":"address"},{"name":"debtToCover","type":"uint256","internalType":"uint256"},{"name":"receiveAToken","type":"bool","internalType":"bool"}],"outputs":[],"stateMutability":"nonpayable"},{"type":"function","name":"owner","inputs":[],"outputs":[{"name":"","type":"address","internalType":"address"}],"stateMutability":"view"},{"type":"function","name":"priceOracle","inputs":[],"outputs":[{"name":"","type":"address","internalType":"contract IPriceOracle"}],"stateMutability":"view"},{"type":"function","name":"rateModels","inputs":[{"name":"","type":"address","internalType":"address"}],"outputs":[{"name":"baseRate","type":"uint256","internalType":"uint256"},{"name":"slope1","type":"uint256","internalType":"uint256"},{"name":"slope2","type":"uint256","internalType":"uint256"},{"name":"optimalUtilization","type":"uint256","internalType":"uint256"}],"stateMutability":"view"},{"type":"function","name":"repay","inputs":[{"name":"asset","type":"address","internalType":"address"},{"name":"amount","type":"uint256","internalType":"uint256"},{"name":"onBehalfOf","type":"address","internalType":"address"}],"outputs":[],"stateMutability":"nonpayable"},{"type":"function","name":"reserves","inputs":[{"name":"","type":"address","internalType":"address"}],"outputs":[{"name":"","type":"uint256","internalType":"uint256"}],"stateMutability":"view"},{"type":"function","name":"riskManager","inputs":[],"outputs":[{"name":"","type":"address","internalType":"contract RiskManager"}],"stateMutability":"view"},{"type":"function","name":"setBorrowingEngine","inputs":[{"name":"_engine","type":"address","internalType":"address"}],"outputs":[],"stateMutability":"nonpayable"},{"type":"function","name":"setEModeCategory","inputs":[{"name":"categoryId","type":"uint8","internalType":"uint8"},{"name":"ltv","type":"uint16","internalType":"uint16"},{"name":"liquidationThreshold","type":"uint16","internalType":"uint16"},{"name":"liquidationBonus","type":"uint16","internalType":"uint16"},{"name":"label","type":"string","internalType":"string"}],"outputs":[],"stateMutability":"nonpayable"},{"type":"function","name":"setInterestRateModel","inputs":[{"name":"asset","type":"address","internalType":"address"},{"name":"baseRate","type":"uint256","internalType":"uint256"},{"name":"slope1","type":"uint256","internalType":"uint256"},{"name":"slope2","type":"uint256","internalType":"uint256"},{"name":"optimalUtilization","type":"uint256","internalType":"uint256"}],"outputs":[],"stateMutability":"nonpayable"},{"type":"function","name":"setPriceOracle","inputs":[{"name":"_priceOracle","type":"address","internalType":"address"}],"outputs":[],"stateMutability":"nonpayable"},{"type":"function","name":"setRiskManager","inputs":[{"name":"_riskManager","type":"address","internalType":"address"}],"outputs":[],"stateMutability":"nonpayable"},{"type":"function","name":"setTreasury","inputs":[{"name":"_treasury","type":"address","internalType":"address"}],"outputs":[],"stateMutability":"nonpayable"},{"type":"function","name":"setUserEMode","inputs":[{"name":"categoryId","type":"uint8","internalType":"uint8"}],"outputs":[],"stateMutability":"nonpayable"},{"type":"function","name":"supply","inputs":[{"name":"asset","type":"address","internalType":"address"},{"name":"amount","type":"uint256","internalType":"uint256"},{"name":"onBehalfOf","type":"address","internalType":"address"},{"name":"referralCode","type":"uint16","internalType":"uint16"}],"outputs":[],"stateMutability":"nonpayable"},{"type":"function","name":"supplyIndex","inputs":[{"name":"","type":"address","internalType":"address"}],"outputs":[{"name":"","type":"uint256","internalType":"uint256"}],"stateMutability":"view"},{"type":"function","name":"supportedAssets","inputs":[{"name":"","type":"uint256","internalType":"uint256"}],"outputs":[{"name":"","type":"address","internalType":"address"}],"stateMutability":"view"},{"type":"function","name":"totalBorrowed","inputs":[{"name":"","type":"address","internalType":"address"}],"outputs":[{"name":"","type":"uint256","internalType":"uint256"}],"stateMutability":"view"},{"type":"function","name":"totalSupplied","inputs":[{"name":"","type":"address","internalType":"address"}],"outputs":[{"name":"","type":"uint256","internalType":"uint256"}],"stateMutability":"view"},{"type":"function","name":"treasury","inputs":[],"outputs":[{"name":"","type":"address","internalType":"address"}],"stateMutability":"view"},{"type":"function","name":"userEModeCategory","inputs":[{"name":"","type":"address","internalType":"address"}],"outputs":[{"name":"","type":"uint8","internalType":"uint8"}],"stateMutability":"view"},{"type":"function","name":"withdraw","inputs":[{"name":"asset","type":"address","internalType":"address"},{"name":"amount","type":"uint256","internalType":"uint256"},{"name":"to","type":"address","internalType":"address"}],"outputs":[],"stateMutability":"nonpayable"},{"type":"function","name":"withdrawReserves","inputs":[{"name":"asset","type":"address","internalType":"address"},{"name":"amount","type":"uint256","internalType":"uint256"}],"outputs":[],"stateMutability":"nonpayable"},{"type":"event","name":"Borrow","inputs":[{"name":"user","type":"address","indexed":true,"internalType":"address"},{"name":"asset","type":"address","indexed":true,"internalType":"address"},{"name":"amount","type":"uint256","indexed":false,"internalType":"uint256"}],"anonymous":false},{"type":"event","name":"FlashLoan","inputs":[{"name":"target","type":"address","indexed":true,"internalType":"address"},{"name":"initiator","type":"address","indexed":true,"internalType":"address"},{"name":"asset","type":"address","indexed":true,"internalType":"address"},{"name":"amount","type":"uint256","indexed":false,"internalType":"uint256"},{"name":"premium","type":"uint256","indexed":false,"internalType":"uint256"}],"anonymous":false},{"type":"event","name":"InterestAccrued","inputs":[{"name":"asset","type":"address","indexed":true,"internalType":"address"},{"name":"borrowIndex","type":"uint256","indexed":false,"internalType":"uint256"},{"name":"supplyIndex","type":"uint256","indexed":false,"internalType":"uint256"},{"name":"reserves","type":"uint256","indexed":false,"internalType":"uint256"}],"anonymous":false},{"type":"event","name":"LiquidationCall","inputs":[{"name":"collateralAsset","type":"address","indexed":true,"internalType":"address"},{"name":"debtAsset","type":"address","indexed":true,"internalType":"address"},{"name":"user","type":"address","indexed":true,"internalType":"address"},{"name":"debtToCover","type":"uint256","indexed":false,"internalType":"uint256"},{"name":"liquidatedCollateralAmount","type":"uint256","indexed":false,"internalType":"uint256"},{"name":"liquidator","type":"address","indexed":false,"internalType":"address"},{"name":"receiveAToken","type":"bool","indexed":false,"internalType":"bool"}],"anonymous":false},{"type":"event","name":"Repay","inputs":[{"name":"user","type":"address","indexed":true,"internalType":"address"},{"name":"asset","type":"address","indexed":true,"internalType":"address"},{"name":"amount","type":"uint256","indexed":false,"internalType":"uint256"}],"anonymous":false},{"type":"event","name":"ReservesWithdrawn","inputs":[{"name":"asset","type":"address","indexed":true,"internalType":"address"},{"name":"amount","type":"uint256","indexed":false,"internalType":"uint256"},{"name":"to","type":"address","indexed":true,"internalType":"address"}],"anonymous":false},{"type":"event","name":"Supply","inputs":[{"name":"user","type":"address","indexed":true,"internalType":"address"},{"name":"asset","type":"address","indexed":true,"internalType":"address"},{"name":"amount","type":"uint256","indexed":false,"internalType":"uint256"}],"anonymous":false},{"type":"event","name":"Withdraw","inputs":[{"name":"user","type":"address","indexed":true,"internalType":"address"},{"name":"asset","type":"address","indexed":true,"internalType":"address"},{"name":"amount","type":"uint256","indexed":false,"internalType":"uint256"}],"anonymous":false}],"bytecode":{"object":"0x60808060405234603c5760108054336001600160a01b03199182168117909255601180549091169091179055600160125561315790816100418239f35b5f80fdfe6080806040526004361015610012575f80fd5b5f905f3560e01c908163096b6eab14612384575080632630c12f1461235c57806328530a47146122cc57806334a461ea14611fd15780633b40af1714611f825780634784266314611f5a57806351324f1214611f00578063530e784f14611eb0578063552033c414611e8b5780635ceae9c414611d495780635cffe9de1461192d578063617ba037146116d757806361d027b3146116ae57806362ca84601461165c57806365a6c12214610fee5780636805d6ad14610fc157806369328dec14610dbb5780636a14602414610d985780636b5441a914610d745780636bbe56cf14610d3b5780636c9dc60014610d025780636ff4593414610c585780637301df9414610c1b5780637609d7f614610b8f5780637b6aa8bd14610b6b5780638da5cb5b14610b425780639198e51514610b22578063a2a00ed614610af5578063a415bcad14610809578063ad1983391461059d578063b0b9276414610564578063bf92857c1461051b578063c68dbb37146104d7578063d66bd5241461049e578063d71275f61461047a578063db251ed61461044e578063e2e1ca2b14610415578063e3386f5d146103ee578063e380fcad146103b5578063e478795d1461025f578063e6a69ab8146102405763f0f44260146101ec575f80fd5b3461023d57602036600319011261023d57610205612559565b61021a60018060a01b03601054163314612601565b60018060a01b03166bffffffffffffffffffffffff60a01b601154161760115580f35b80fd5b503461023d578060031936011261023d5760206040516301e133808152f35b503461023d57604036600319011261023d57610279612559565b6024359061029260018060a01b03601054163314612601565b6001600160a01b0316808352600a6020526040832054821161037857808352600a602052604083206102c5838254612700565b905560115460405163a9059cbb60e01b81526001600160a01b0390911660048201526024810183905260208160448187865af1801561036d57610340575b506011546040519283526001600160a01b0316917f6d341628237b28f97e0f602e973af6084de6e0407f64bf599bd586cbcc77ad7c90602090a380f35b6103619060203d602011610366575b61035981836124f8565b810190612679565b610303565b503d61034f565b6040513d86823e3d90fd5b60405162461bcd60e51b8152602060048201526015602482015274496e73756666696369656e7420726573657276657360581b6044820152606490fd5b503461023d57602036600319011261023d576020906040906001600160a01b036103dd612559565b168152600883522054604051908152f35b503461023d578060031936011261023d57546040516001600160a01b039091168152602090f35b503461023d57602036600319011261023d576020906040906001600160a01b0361043d612559565b168152600683522054604051908152f35b503461023d57602036600319011261023d57602061047261046d612559565b612f2f565b604051908152f35b503461023d57602036600319011261023d576020610472610499612559565b612e0e565b503461023d57602036600319011261023d576020906040906001600160a01b036104c6612559565b168152600a83522054604051908152f35b503461023d57602036600319011261023d5760043590600b5482101561023d576020610502836125d5565b905460405160039290921b1c6001600160a01b03168152f35b503461023d57602036600319011261023d5760c061053f61053a612559565b612b06565b93604093919351958652602086015260408501526060840152608083015260a0820152f35b503461023d57602036600319011261023d576020906040906001600160a01b0361058c612559565b168152600783522054604051908152f35b503461023d5761010036600319011261023d576105b8612559565b60e4359060ff8216809203610805576105dc60018060a01b03601054163314612601565b6001600160a01b0316808352600d602052604083206006015490919060081c60ff166107ca57600b54680100000000000000008110156107b6578060016106269201600b556125d5565b81549060031b9084821b9160018060a01b03901b19161790558183526007602052676765c793fa10079d601b1b60408420558183526008602052676765c793fa10079d601b1b6040842055818352600960205264ffffffffff42166040842055604051610100810181811067ffffffffffffffff8211176107a257604052602435815260ff80600660208401936044358552604081016064358152606082016084358152608083019060a435825260a084019260c435845260c08501998a5260e085019860018a528b8d52600d60205260408d2095518655516001860155516002850155516003840155516004830155516005820155019351161660ff1983541617825551151561ff0082549160081b169061ff00191617905560036040519161074f836124dc565b83835260208301668e1bc9bf04000081526040840190670853a0d2313c000082526060850192670b1a2bc2ec50000084528652600c60205260408620945185555160018501555160028401555191015580f35b634e487b7160e01b85526041600452602485fd5b634e487b7160e01b84526041600452602484fd5b60405162461bcd60e51b8152602060048201526013602482015272105cdcd95d08185b1c9958591e481859191959606a1b6044820152606490fd5b8280fd5b503461023d5760a036600319011261023d57610823612559565b60243561082e61251a565b506084356001600160a01b03811691828203610ae2576001600160a01b038416808652600d60205260408620600601549094610878916108739060081c60ff1661263a565b61287e565b60015485906001600160a01b031680610a9f575b50849052600d602052600560408620015480610a43575b506040516370a0823160e01b8152306004820152602081602481885afa8015610a3857829187916109ff575b50106109ba57602081610946938588526004835260408820875f52835260405f206108fb83825461270d565b9055868852600683526040882061091383825461270d565b905560405163a9059cbb60e01b81526001600160a01b039091166004820152602481019190915292839081906044820190565b038188885af19081156109af576109886020927f312a5e5e1079f5dda4e95dbbd0b908b291fd5b992ef22073643ab691572c5b52948891610992575b50612691565b604051908152a380f35b6109a99150843d86116103665761035981836124f8565b5f610982565b6040513d87823e3d90fd5b60405162461bcd60e51b815260206004820152601b60248201527f496e73756666696369656e7420706f6f6c206c697175696469747900000000006044820152606490fd5b9150506020813d602011610a30575b81610a1b602093836124f8565b81010312610a2c578190515f6108cf565b5f80fd5b3d9150610a0e565b6040513d88823e3d90fd5b8486526006602052610a5982604088205461270d565b11610a64575f6108a3565b60405162461bcd60e51b8152602060048201526013602482015272109bdc9c9bddc818d85c08195e18d959591959606a1b6044820152606490fd5b803b15610af157816024916040519283809262910ae160e61b82528a60048301525afa8015610ae6571561088c5781610ad7916124f8565b610ae257845f61088c565b8480fd5b6040513d84823e3d90fd5b5080fd5b503461023d57604036600319011261023d576020610472610b14612559565b610b1c61256f565b90612ac1565b503461023d57602036600319011261023d57610b3f610873612559565b80f35b503461023d578060031936011261023d576010546040516001600160a01b039091168152602090f35b503461023d57602036600319011261023d576020610472610b8a612559565b612826565b503461023d57602036600319011261023d57610100906040906001600160a01b03610bb8612559565b168152600d6020522060ff815491600181015490600281015460038201546004830154916006600585015494015494604051978852602088015260408701526060860152608085015260a084015281811660c084015260081c16151560e0820152f35b503461023d57602036600319011261023d5760209060ff906040906001600160a01b03610c46612559565b168152600f8452205416604051908152f35b503461023d5760a036600319011261023d57610c72612559565b610c8760018060a01b03601054163314612601565b6001600160a01b0316808252600d6020526040822060060154610caf9060081c60ff1661263a565b600360405191610cbe836124dc565b602435835260208301604435815260408401906064358252606085019260843584528652600c60205260408620945185555160018501555160028401555191015580f35b503461023d57602036600319011261023d576020906040906001600160a01b03610d2a612559565b168152600983522054604051908152f35b503461023d57602036600319011261023d576020906040906001600160a01b03610d63612559565b168152600583522054604051908152f35b503461023d57602036600319011261023d576020610472610d93612559565b61276f565b503461023d578060031936011261023d576020604051670de0b6b3a76400008152f35b503461023d57610dca3661259b565b6001600160a01b038316808552600d60205260408520600601549093610e0891610df99060081c60ff1661263a565b610e028161287e565b3361271a565b90828210610f85576001548392906001600160a01b031680610f22575b5091602091610e54610ebe943389526003855260408920885f528552610e4f60405f2054856126cf565b6126e2565b3388526003845260408820875f528452610e7360405f20918254612700565b90558587526005835260408720610e8b838254612700565b905560405163a9059cbb60e01b81526001600160a01b039091166004820152602481019190915291829081906044820190565b038187875af1801561036d57610eda918591610f095750612691565b6040519081527f9b1bfa7fa9ee420a16e124f794c35ac9f90472acc99140eb2f6447c714cad8eb60203392a380f35b6109a9915060203d6020116103665761035981836124f8565b925085833b1561023d578060249460405195868092630a27a6c160e01b82528a60048301525afa938415610f78578594610f5d575b50610e25565b8192945090610f6b916124f8565b610ae2578291855f610f57565b50604051903d90823e3d90fd5b60405162461bcd60e51b8152602060048201526014602482015273496e73756666696369656e742062616c616e636560601b6044820152606490fd5b503461023d57604036600319011261023d576020610472610fe0612559565b610fe861256f565b9061271a565b503461023d5760a036600319011261023d57611008612559565b61101061256f565b611018612585565b9160643592608435908115928315809303611658576001600160a01b038116808852600d602052604088206006015490949060081c60ff161561161b576001600160a01b038616808952600d602052604089206006015490969060081c60ff16156115de576001600160a01b03841697338914611599576110988461287e565b6110a18261287e565b6110aa85612f2f565b91676765c793fa10079d601b1b831015611561576110c89086612ac1565b918215611525576110ea6110e4670de0b6b3a764000092612f7a565b846126cf565b04908181111561151d5750925b60025460405163b3596f0760e01b81526004810189905291906001600160a01b0316602083602481845afa928315611512578c936114de575b508b60208b60246040518095819363b3596f0760e01b835260048301525afa918215610f78578a9082936114a6575b506111986111916111a596610e4f6002604087670de0b6b3a76400009761119f9a9952600d602052200154958c6126cf565b92836126cf565b049061270d565b9561271a565b848110611461576040516323b872dd60e01b8152336004820152306024820152604481018590526020816064818e8d5af1908115611456578b91611437575b50156113fb5761121161126d928a8c52600460205260408c208a5f52602052610e4f60405f2054876126cf565b898b52600460205260408b20895f5260205261123260405f20918254612700565b9055878a52600660205260408a2061124b858254612700565b9055888a52600360205260408a20875f52602052610e4f60405f2054866126cf565b878952600360205260408920865f5260205261128e60405f20918254612700565b90558488526005602052604088206112a7848254612700565b9055156113955760405163a9059cbb60e01b8152336004820152602481018390526020816044818b895af190811561138a57889161136b575b5015611326577fe413a321e8681d831f4dbccbca790d2952b56f977908e45be37335533e005286926080925b60405192835260208301523360408301526060820152a480f35b60405162461bcd60e51b815260206004820152601a60248201527f436f6c6c61746572616c207472616e73666572206661696c65640000000000006044820152606490fd5b611384915060203d6020116103665761035981836124f8565b5f6112e0565b6040513d8a823e3d90fd5b7fe413a321e8681d831f4dbccbca790d2952b56f977908e45be37335533e00528692608092338952600360205260408920865f5260205260405f206113db82825461270d565b90558589526005602052604089206113f482825461270d565b905561130c565b60405162461bcd60e51b81526020600482015260146024820152731119589d081d1c985b9cd9995c8819985a5b195960621b6044820152606490fd5b611450915060203d6020116103665761035981836124f8565b5f6111e4565b6040513d8d823e3d90fd5b60405162461bcd60e51b815260206004820152601760248201527f496e73756666696369656e7420636f6c6c61746572616c0000000000000000006044820152606490fd5b925050506020813d6020116114d6575b816114c3602093836124f8565b81010312610a2c57518b8961119861115f565b3d91506114b6565b9092506020813d60201161150a575b816114fa602093836124f8565b81010312610a2c5751915f611130565b3d91506114ed565b6040513d8e823e3d90fd5b9050926110f7565b60405162461bcd60e51b81526020600482015260146024820152734e6f206465627420746f206c697175696461746560601b6044820152606490fd5b60405162461bcd60e51b815260206004820152601060248201526f4865616c746820666163746f72204f4b60801b6044820152606490fd5b60405162461bcd60e51b815260206004820152601960248201527f43616e6e6f74206c697175696461746520796f757273656c66000000000000006044820152606490fd5b60405162461bcd60e51b815260206004820152601560248201527444656274206173736574206e6f742061637469766560581b6044820152606490fd5b60405162461bcd60e51b8152602060048201526015602482015274436f6c6c61746572616c206e6f742061637469766560581b6044820152606490fd5b8680fd5b503461023d57602036600319011261023d57611676612559565b61168b60018060a01b03601054163314612601565b60018060a01b03166bffffffffffffffffffffffff60a01b600154161760015580f35b503461023d578060031936011261023d576011546040516001600160a01b039091168152602090f35b5034610a2c576080366003190112610a2c576116f1612559565b6024356116fc612585565b61170461251a565b5081156118f35760018060a01b03831692835f52600d60205261173360ff600660405f20015460081c1661263a565b61173c8161287e565b6001546001600160a01b03169081611876575b5050828452600d60205260046040852001548061181a575b506040516323b872dd60e01b8152336004820152306024820152604481018390529060208260648188885af19081156109af576117ce6020927fd1cf3d156d5f8f0d50f6c122ed609cec09d35c9b9fb3fff6ea0959134dae424e9488916109925750612691565b60018060a01b0316928386526003825260408620855f52825260405f206117f682825461270d565b9055848652600582526040862061180e82825461270d565b9055604051908152a380f35b838552600560205261183083604087205461270d565b1161183b575f611767565b60405162461bcd60e51b815260206004820152601360248201527214dd5c1c1b1e4818d85c08195e18d959591959606a1b6044820152606490fd5b845f52600560205261188c8460405f205461270d565b823b15610a2c576040516303ec020160e01b81526001600160a01b039290921660048301526024820152905f90829060449082905afa80156118e8576118d3575b8061174f565b6118e09194505f906124f8565b5f925f6118cd565b6040513d5f823e3d90fd5b60405162461bcd60e51b81526020600482015260126024820152710416d6f756e74206d757374206265203e20360741b6044820152606490fd5b34610a2c576080366003190112610a2c57611946612559565b61194e61256f565b6044359060643567ffffffffffffffff8111610a2c5761197290369060040161252b565b939091600260125414611d0457600260125560018060a01b031693845f52600d6020526119ab60ff600660405f20015460081c1661263a565b8315611cbf5760098402848104600903611cab576127109004916119cf838661270d565b916040516370a0823160e01b81523060048201526020816024818b5afa9081156118e8575f91611c79575b508611611c3b5760405163a9059cbb60e01b81526001600160a01b0383166004820152602481018790526020816044815f8c5af180156118e857611a44915f91611c1c5750612691565b60208160c460018060a01b038516976040519485938492631b11d0ff60e01b84528d60048501528c60248501528a604485015233606485015260a060848501528160a4850152848401375f838284010152601f801991011681010301815f895af19081156118e8575f91611bfd575b5015611bb8576040516323b872dd60e01b81526001600160a01b0391909116600482015230602482015260448101919091526020816064815f895af19081156118e8575f91611b99575b5015611b5457835f52600a60205260405f20611b1a82825461270d565b905560405192835260208301527f3659d15bd4bb92ab352a8d35bc3119ec6e7e0ab48e4d46201c8a28e02b6a8a8660403393a46001601255005b60405162461bcd60e51b815260206004820152601a60248201527f466c6173686c6f616e2072657061796d656e74206661696c65640000000000006044820152606490fd5b611bb2915060203d6020116103665761035981836124f8565b85611afd565b60405162461bcd60e51b815260206004820152601a60248201527f466c6173686c6f616e20657865637574696f6e206661696c65640000000000006044820152606490fd5b611c16915060203d6020116103665761035981836124f8565b87611ab3565b611c35915060203d6020116103665761035981836124f8565b89610982565b60405162461bcd60e51b8152602060048201526016602482015275496e73756666696369656e74206c697175696469747960501b6044820152606490fd5b90506020813d602011611ca3575b81611c94602093836124f8565b81010312610a2c5751886119fa565b3d9150611c87565b634e487b7160e01b5f52601160045260245ffd5b60405162461bcd60e51b815260206004820152601d60248201527f416d6f756e74206d7573742062652067726561746572207468616e20300000006044820152606490fd5b60405162461bcd60e51b815260206004820152601f60248201527f5265656e7472616e637947756172643a207265656e7472616e742063616c6c006044820152606490fd5b34610a2c57611d573661259b565b611d9160018060a01b03841693845f52600d602052611d8260ff600660405f20015460081c1661263a565b611d8b8161287e565b82612ac1565b9182811115611e865750815b6040516323b872dd60e01b815233600482015230602482015260448101829052906020826064815f895af180156118e8577f05f2eeda0e08e4b437f487c8d7d29b14537d15e3488170dc3de5dbdf8dac468493611e06611e2d926020955f91611e6f5750612691565b60018060a01b031694855f526004845260405f20875f528452610e4f60405f2054846126cf565b845f526004835260405f20865f528352611e4c60405f20918254612700565b9055845f526006825260405f20611e64828254612700565b9055604051908152a3005b611c359150863d88116103665761035981836124f8565b611d9d565b34610a2c575f366003190112610a2c576020604051676765c793fa10079d601b1b8152f35b34610a2c576020366003190112610a2c57611ec9612559565b611ede60018060a01b03601054163314612601565b600280546001600160a01b0319166001600160a01b0392909216919091179055005b34610a2c576020366003190112610a2c576001600160a01b03611f21612559565b165f52600c602052608060405f208054906001810154906003600282015491015491604051938452602084015260408301526060820152f35b34610a2c575f366003190112610a2c576001546040516001600160a01b039091168152602090f35b34610a2c576020366003190112610a2c57611f9b612559565b611fb060018060a01b03601054163314612601565b5f80546001600160a01b0319166001600160a01b0392909216919091179055005b34610a2c5760a0366003190112610a2c57611fea612494565b6024359061ffff8216809203610a2c576044359161ffff8316809303610a2c5761201261251a565b926084359367ffffffffffffffff8511610a2c5761203660ff95369060040161252b565b95909461204e60018060a01b03601054163314612601565b16801561229157612710841161225e5761271083116122255760405193612074856124dc565b84526020840192835261ffff604085019216825267ffffffffffffffff861161221157604051956120af601f8201601f1916602001886124f8565b8087523681870111610a2c576020815f92600198838b013788010152606084019586525f52600e60205261ffff60405f2093511665ffff0000000063ffff00008554945160101b16925160201b169265ffffffffffff1916171717815501905190815167ffffffffffffffff81116122115761212b82546124a4565b601f81116121cc575b50602092601f821160011461217057928192935f92612165575b50505f19600383901b1c191660019190911b179055005b01519050838061214e565b601f19821693835f52805f20915f5b8681106121b4575083600195961061219c575b505050811b019055005b01515f1960f88460031b161c19169055838080612192565b9192602060018192868501518155019401920161217f565b825f5260205f20601f830160051c81019160208410612207575b601f0160051c01905b8181106121fc5750612134565b5f81556001016121ef565b90915081906121e6565b634e487b7160e01b5f52604160045260245ffd5b60405162461bcd60e51b8152602060048201526011602482015270125b9d985b1a59081d1a1c995cda1bdb19607a1b6044820152606490fd5b60405162461bcd60e51b815260206004820152600b60248201526a24b73b30b634b210262a2b60a91b6044820152606490fd5b60405162461bcd60e51b8152602060048201526013602482015272125b9d985b1a590818d85d1959dbdc9e481251606a1b6044820152606490fd5b34610a2c576020366003190112610a2c5760ff6122e7612494565b1680612308575b335f52600f60205260405f209060ff198254161790555f80f35b805f52600e602052612320600160405f2001546124a4565b6122ee5760405162461bcd60e51b815260206004820152601060248201526f496e76616c69642063617465676f727960801b6044820152606490fd5b34610a2c575f366003190112610a2c576002546040516001600160a01b039091168152602090f35b34610a2c576020366003190112610a2c5760ff61239f612494565b165f52600e60205260405f2090600182549201905f8254926123c0846124a4565b9081845260208401946001811690815f14612477575060011461243a575b61ffff60a08787876123f2818903826124f8565b6040519483818795168552818160101c16602086015260201c166040840152608060608401525180918160808501528484015e5f828201840152601f01601f19168101030190f35b5f908152602081209092505b81831061245d5750508101602001816123f26123de565b600181602092949394548385880101520191019190612446565b60ff191686525050151560051b82016020019050816123f26123de565b6004359060ff82168203610a2c57565b90600182811c921680156124d2575b60208310146124be57565b634e487b7160e01b5f52602260045260245ffd5b91607f16916124b3565b6080810190811067ffffffffffffffff82111761221157604052565b90601f8019910116810190811067ffffffffffffffff82111761221157604052565b6064359061ffff82168203610a2c57565b9181601f84011215610a2c5782359167ffffffffffffffff8311610a2c5760208381860195010111610a2c57565b600435906001600160a01b0382168203610a2c57565b602435906001600160a01b0382168203610a2c57565b604435906001600160a01b0382168203610a2c57565b6060906003190112610a2c576004356001600160a01b0381168103610a2c5790602435906044356001600160a01b0381168103610a2c5790565b600b548110156125ed57600b5f5260205f2001905f90565b634e487b7160e01b5f52603260045260245ffd5b1561260857565b60405162461bcd60e51b815260206004820152600a60248201526927b7363c9027bbb732b960b11b6044820152606490fd5b1561264157565b60405162461bcd60e51b815260206004820152601060248201526f4173736574206e6f742061637469766560801b6044820152606490fd5b90816020910312610a2c57518015158103610a2c5790565b1561269857565b60405162461bcd60e51b815260206004820152600f60248201526e151c985b9cd9995c8819985a5b1959608a1b6044820152606490fd5b81810292918115918404141715611cab57565b81156126ec570490565b634e487b7160e01b5f52601260045260245ffd5b91908203918211611cab57565b91908201809211611cab57565b6001600160a01b039081165f9081526003602090815260408083209385168352929052205490811561276957676765c793fa10079d601b1b9161275f61276592612fa4565b906126cf565b0490565b50505f90565b6001600160a01b0381165f818152600560205260409020549091811561281f5761279890612e0e565b91805f52600660205260405f2054670de0b6b3a7640000810290808204670de0b6b3a76400001490151715611cab576127ea926127d4916126e2565b905f52600d602052600360405f200154926126cf565b90670de0b6b3a76400000390670de0b6b3a76400008211611cab576ec097ce7bc90715b34b9f100000000091612765916126cf565b5050505f90565b6001600160a01b03165f81815260056020526040902054908115612769575f52600660205260405f205490670de0b6b3a7640000820291808304670de0b6b3a76400001490151715611cab5761287b916126e2565b90565b60018060a01b03811690815f52600960205261289e60405f205442612700565b8015612abc576128c0816128ba6128b485612e0e565b9461276f565b936126cf565b90676765c793fa10079d601b1b820291808304676765c793fa10079d601b1b1490151715611cab576a1a1601fc4ea7109e0000006128ff9204926126cf565b676765c793fa10079d601b1b810290808204676765c793fa10079d601b1b1490151715611cab576a1a1601fc4ea7109e0000009004825f52600760205260405f205482676765c793fa10079d601b1b019081676765c793fa10079d601b1b11611cab57676765c793fa10079d601b1b91612978916126cf565b04835f52600760205260405f2055825f52600860205260405f205490676765c793fa10079d601b1b019081676765c793fa10079d601b1b11611cab57676765c793fa10079d601b1b916129ca916126cf565b04825f52600860205260405f2055815f52600660205260405f2054612a57575b50805f5260096020524260405f2055805f5260076020527fbea9dfcbd95788b1634fd949c43c80348c9a8960d5837081e062bc6679b9d8fe606060405f2054835f52600860205260405f2054845f52600a60205260405f20549060405192835260208301526040820152a2565b612a9c676765c793fa10079d601b1b612a85670de0b6b3a764000093855f52600660205260405f20546126cf565b04835f52600d602052600360405f200154906126cf565b04815f52600a602052612ab460405f2091825461270d565b90555f6129ea565b505050565b6001600160a01b039081165f9081526004602090815260408083209385168352929052205490811561276957676765c793fa10079d601b1b9161275f61276592613065565b6002545f92839283928392906001600160a01b03168015612dd857600b545f93849290835b838110612bce575050505080612b9a575b508291858111612b88575b85612b5257505f1990565b80612b5c57505f90565b676765c793fa10079d601b1b8102908104676765c793fa10079d601b1b03611cab578561287b916126e2565b9350612b948585612700565b93612b47565b909250670de0b6b3a7640000820290828204670de0b6b3a76400001483151715611cab57612bc7916126e2565b915f612b3c565b612bd7816125d5565b905460039190911b1c6001600160a01b0316612bf3818461271a565b80612c96575b50612c048184612ac1565b80612c14575b5050600101612b2b565b60409b929b519163b3596f0760e01b83526004830152602082602481885afa9182156118e8575f92612c5e575b5091620f4240611198612c56936001956126cf565b99905f612c0a565b9150916020823d8211612c8e575b81612c79602093836124f8565b81010312610a2c5790519091620f4240612c41565b3d9150612c6c565b60405163b3596f0760e01b8152600481018390529698919690602082602481895afa9182156118e8575f92612da3575b50612cd8612ce092620f4240926126cf565b04809d61270d565b9b60018060a01b0384165f52600f60205260ff60405f20541680151580612d88575b15612d5f575f52600e60205261ffff60405f205460101c16655af3107a4000810290808204655af3107a40001490151715611cab57612d5892670de0b6b3a7640000611198612d52935b856126cf565b9861270d565b945f612bf9565b50612d52612d5892885f52600d602052670de0b6b3a7640000611198600160405f200154612d4c565b50875f52600d6020528060ff600660405f2001541614612d02565b91506020823d8211612dd0575b81612dbd602093836124f8565b81010312610a2c57905190612cd8612cc6565b3d9150612db0565b60405162461bcd60e51b815260206004820152600e60248201526d13dc9858db19481b9bdd081cd95d60921b6044820152606490fd5b6001600160a01b03165f818152600560205260409020548015612f1f57815f52600660205260405f205490670de0b6b3a7640000820291808304670de0b6b3a76400001490151715611cab57612e63916126e2565b905f52600c60205260405f209060405190612e7d826124dc565b82548252600183015491602081019283526003600285015494604083019586520154936060820194808652808411155f14612ed757505092612ec9612ed19261287b95519451906126cf565b9051906126e2565b9061270d565b612ee391949293612700565b9351670de0b6b3a76400000390670de0b6b3a76400008211611cab5761287b94612f17610e4f92612ed1955190519061270d565b9451906126cf565b505f52600c60205260405f205490565b612f3890612b06565b505050508015612f7357811561276957676765c793fa10079d601b1b8202918204676765c793fa10079d601b1b03611cab5761287b916126e2565b50505f1990565b6b0311d253316c79d37600000011612f98576706f05b59d3b2000090565b670de0b6b3a764000090565b60018060a01b03811690815f526009602052612fc460405f205442612700565b801561305457612fd6612fdb9261276f565b6126cf565b676765c793fa10079d601b1b810290808204676765c793fa10079d601b1b1490151715611cab576a1a1601fc4ea7109e0000009004905f52600860205260405f205490676765c793fa10079d601b1b019081676765c793fa10079d601b1b11611cab57676765c793fa10079d601b1b91612765916126cf565b50505f52600860205260405f205490565b60018060a01b03811690815f52600960205261308560405f205442612700565b801561311057612fd661309792612e0e565b676765c793fa10079d601b1b810290808204676765c793fa10079d601b1b1490151715611cab576a1a1601fc4ea7109e0000009004905f52600760205260405f205490676765c793fa10079d601b1b019081676765c793fa10079d601b1b11611cab57676765c793fa10079d601b1b91612765916126cf565b50505f52600760205260405f20549056fea2646970667358221220e58b641c043ecb4a270cd2408497f85d4af825779f7c5b65f99202b9e363be8064736f6c634300081e0033","linkReferences":{}},"methodIdentifiers":{"RAY()":"552033c4","SECONDS_PER_YEAR()":"e6a69ab8","WAD()":"6a146024","accrueInterest(address)":"9198e515","addAsset(address,uint256,uint256,uint256,uint256,uint256,uint256,uint8)":"ad198339","assetConfigs(address)":"7609d7f6","borrow(address,uint256,uint256,uint16,address)":"a415bcad","borrowIndex(address)":"b0b92764","borrowingEngine()":"e3386f5d","calculateUserHealthFactor(address)":"db251ed6","eModeCategories(uint8)":"096b6eab","flashLoan(address,address,uint256,bytes)":"5cffe9de","getBorrowRate(address)":"d71275f6","getSupplyRate(address)":"6b5441a9","getUserAccountData(address)":"bf92857c","getUserBalance(address,address)":"6805d6ad","getUserDebt(address,address)":"a2a00ed6","getUtilizationRate(address)":"7b6aa8bd","lastAccrueTime(address)":"6c9dc600","liquidate(address,address,address,uint256,bool)":"65a6c122","owner()":"8da5cb5b","priceOracle()":"2630c12f","rateModels(address)":"51324f12","repay(address,uint256,address)":"5ceae9c4","reserves(address)":"d66bd524","riskManager()":"47842663","setBorrowingEngine(address)":"3b40af17","setEModeCategory(uint8,uint16,uint16,uint16,string)":"34a461ea","setInterestRateModel(address,uint256,uint256,uint256,uint256)":"6ff45934","setPriceOracle(address)":"530e784f","setRiskManager(address)":"62ca8460","setTreasury(address)":"f0f44260","setUserEMode(uint8)":"28530a47","supply(address,uint256,address,uint16)":"617ba037","supplyIndex(address)":"e380fcad","supportedAssets(uint256)":"c68dbb37","totalBorrowed(address)":"e2e1ca2b","totalSupplied(address)":"6bbe56cf","treasury()":"61d027b3","userEModeCategory(address)":"7301df94","withdraw(address,uint256,address)":"69328dec","withdrawReserves(address,uint256)":"e478795d"},"id":23}