{"abi":[{"type":"constructor","inputs":[],"stateMutability":"nonpayable"},{"type":"function","name":"chainlinkBroken","inputs":[{"name":"","type":"address","internalType":"address"}],"outputs":[{"name":"","type":"bool","internalType":"bool"}],"stateMutability":"view"},{"type":"function","name":"chainlinkPrices","inputs":[{"name":"","type":"address","internalType":"address"}],"outputs":[{"name":"","type":"uint256","internalType":"uint256"}],"stateMutability":"view"},{"type":"function","name":"getAssetPrice","inputs":[{"name":"asset","type":"address","internalType":"address"}],"outputs":[{"name":"","type":"uint256","internalType":"uint256"}],"stateMutability":"view"},{"type":"function","name":"owner","inputs":[],"outputs":[{"name":"","type":"address","internalType":"address"}],"stateMutability":"view"},{"type":"function","name":"pythBroken","inputs":[{"name":"","type":"address","internalType":"address"}],"outputs":[{"name":"","type":"bool","internalType":"bool"}],"stateMutability":"view"},{"type":"function","name":"pythPrices","inputs":[{"name":"","type":"address","internalType":"address"}],"outputs":[{"name":"","type":"uint256","internalType":"uint256"}],"stateMutability":"view"},{"type":"function","name":"setChainlinkPrice","inputs":[{"name":"asset","type":"address","internalType":"address"},{"name":"price","type":"uint256","internalType":"uint256"},{"name":"isBroken","type":"bool","internalType":"bool"}],"outputs":[],"stateMutability":"nonpayable"},{"type":"function","name":"setPythPrice","inputs":[{"name":"asset","type":"address","internalType":"address"},{"name":"price","type":"uint256","internalType":"uint256"},{"name":"isBroken","type":"bool","internalType":"bool"}],"outputs":[],"stateMutability":"nonpayable"},{"type":"function","name":"setTwapPrice","inputs":[{"name":"asset","type":"address","internalType":"address"},{"name":"price","type":"uint256","internalType":"uint256"}],"outputs":[],"stateMutability":"nonpayable"},{"type":"function","name":"twapPrices","inputs":[{"name":"","type":"address","internalType":"address"}],"outputs":[{"name":"","type":"uint256","internalType":"uint256"}],"stateMutability":"view"},{"type":"event","name":"PriceUpdated","inputs":[{"name":"asset","type":"address","indexed":true,"internalType":"address"},{"name":"price","type":"uint256","indexed":false,"internalType":"uint256"}],"anonymous":false}],"bytecode":{"object":"0x6080604052348015600e575f5ffd5b503360015f6101000a81548173ffffffffffffffffffffffffffffffffffffffff021916908373ffffffffffffffffffffffffffffffffffffffff160217905550610b798061005c5f395ff3fe608060405234801561000f575f5ffd5b506004361061009c575f3560e01c806393c83f531161006457806393c83f531461017e578063b3596f07146101ae578063bc46d885146101de578063d76a8662146101fa578063db291b90146102165761009c565b8063013bd8f1146100a057806310fd6134146100d05780637d3448ae146101005780638da5cb5b146101305780638e2cbfbd1461014e575b5f5ffd5b6100ba60048036038101906100b59190610932565b610232565b6040516100c79190610977565b60405180910390f35b6100ea60048036038101906100e59190610932565b61024f565b6040516100f791906109a8565b60405180910390f35b61011a60048036038101906101159190610932565b610264565b60405161012791906109a8565b60405180910390f35b610138610279565b60405161014591906109d0565b60405180910390f35b61016860048036038101906101639190610932565b61029e565b60405161017591906109a8565b60405180910390f35b61019860048036038101906101939190610932565b6102b3565b6040516101a59190610977565b60405180910390f35b6101c860048036038101906101c39190610932565b6102d0565b6040516101d591906109a8565b60405180910390f35b6101f860048036038101906101f39190610a3d565b6105ab565b005b610214600480360381019061020f9190610a8d565b6106d5565b005b610230600480360381019061022b9190610a3d565b6107aa565b005b6005602052805f5260405f205f915054906101000a900460ff1681565b6006602052805f5260405f205f915090505481565b6002602052805f5260405f205f915090505481565b60015f9054906101000a900473ffffffffffffffffffffffffffffffffffffffff1681565b6004602052805f5260405f205f915090505481565b6003602052805f5260405f205f915054906101000a900460ff1681565b5f60035f8373ffffffffffffffffffffffffffffffffffffffff1673ffffffffffffffffffffffffffffffffffffffff1681526020019081526020015f205f9054906101000a900460ff1615801561036457505f60025f8473ffffffffffffffffffffffffffffffffffffffff1673ffffffffffffffffffffffffffffffffffffffff1681526020019081526020015f2054115b156103ae5760025f8373ffffffffffffffffffffffffffffffffffffffff1673ffffffffffffffffffffffffffffffffffffffff1681526020019081526020015f205490506105a6565b60055f8373ffffffffffffffffffffffffffffffffffffffff1673ffffffffffffffffffffffffffffffffffffffff1681526020019081526020015f205f9054906101000a900460ff1615801561044157505f60045f8473ffffffffffffffffffffffffffffffffffffffff1673ffffffffffffffffffffffffffffffffffffffff1681526020019081526020015f2054115b1561048b5760045f8373ffffffffffffffffffffffffffffffffffffffff1673ffffffffffffffffffffffffffffffffffffffff1681526020019081526020015f205490506105a6565b5f60065f8473ffffffffffffffffffffffffffffffffffffffff1673ffffffffffffffffffffffffffffffffffffffff1681526020019081526020015f205411156105155760065f8373ffffffffffffffffffffffffffffffffffffffff1673ffffffffffffffffffffffffffffffffffffffff1681526020019081526020015f205490506105a6565b5f5f5f8473ffffffffffffffffffffffffffffffffffffffff1673ffffffffffffffffffffffffffffffffffffffff1681526020019081526020015f2054111561059d575f5f8373ffffffffffffffffffffffffffffffffffffffff1673ffffffffffffffffffffffffffffffffffffffff1681526020019081526020015f205490506105a6565b64174876e80090505b919050565b60015f9054906101000a900473ffffffffffffffffffffffffffffffffffffffff1673ffffffffffffffffffffffffffffffffffffffff163373ffffffffffffffffffffffffffffffffffffffff161461063a576040517f08c379a000000000000000000000000000000000000000000000000000000000815260040161063190610b25565b60405180910390fd5b8160025f8573ffffffffffffffffffffffffffffffffffffffff1673ffffffffffffffffffffffffffffffffffffffff1681526020019081526020015f20819055508060035f8573ffffffffffffffffffffffffffffffffffffffff1673ffffffffffffffffffffffffffffffffffffffff1681526020019081526020015f205f6101000a81548160ff021916908315150217905550505050565b60015f9054906101000a900473ffffffffffffffffffffffffffffffffffffffff1673ffffffffffffffffffffffffffffffffffffffff163373ffffffffffffffffffffffffffffffffffffffff1614610764576040517f08c379a000000000000000000000000000000000000000000000000000000000815260040161075b90610b25565b60405180910390fd5b8060065f8473ffffffffffffffffffffffffffffffffffffffff1673ffffffffffffffffffffffffffffffffffffffff1681526020019081526020015f20819055505050565b60015f9054906101000a900473ffffffffffffffffffffffffffffffffffffffff1673ffffffffffffffffffffffffffffffffffffffff163373ffffffffffffffffffffffffffffffffffffffff1614610839576040517f08c379a000000000000000000000000000000000000000000000000000000000815260040161083090610b25565b60405180910390fd5b8160045f8573ffffffffffffffffffffffffffffffffffffffff1673ffffffffffffffffffffffffffffffffffffffff1681526020019081526020015f20819055508060055f8573ffffffffffffffffffffffffffffffffffffffff1673ffffffffffffffffffffffffffffffffffffffff1681526020019081526020015f205f6101000a81548160ff021916908315150217905550505050565b5f5ffd5b5f73ffffffffffffffffffffffffffffffffffffffff82169050919050565b5f610901826108d8565b9050919050565b610911816108f7565b811461091b575f5ffd5b50565b5f8135905061092c81610908565b92915050565b5f60208284031215610947576109466108d4565b5b5f6109548482850161091e565b91505092915050565b5f8115159050919050565b6109718161095d565b82525050565b5f60208201905061098a5f830184610968565b92915050565b5f819050919050565b6109a281610990565b82525050565b5f6020820190506109bb5f830184610999565b92915050565b6109ca816108f7565b82525050565b5f6020820190506109e35f8301846109c1565b92915050565b6109f281610990565b81146109fc575f5ffd5b50565b5f81359050610a0d816109e9565b92915050565b610a1c8161095d565b8114610a26575f5ffd5b50565b5f81359050610a3781610a13565b92915050565b5f5f5f60608486031215610a5457610a536108d4565b5b5f610a618682870161091e565b9350506020610a72868287016109ff565b9250506040610a8386828701610a29565b9150509250925092565b5f5f60408385031215610aa357610aa26108d4565b5b5f610ab08582860161091e565b9250506020610ac1858286016109ff565b9150509250929050565b5f82825260208201905092915050565b7f4f6e6c79206f776e6572000000000000000000000000000000000000000000005f82015250565b5f610b0f600a83610acb565b9150610b1a82610adb565b602082019050919050565b5f6020820190508181035f830152610b3c81610b03565b905091905056fea264697066735822122043fddd1b72539d9a3454550b0b2d27405565fa80c37964c90203f24a9e1c378064736f6c634300081e0033","linkReferences":{}},"methodIdentifiers":{"chainlinkBroken(address)":"93c83f53","chainlinkPrices(address)":"7d3448ae","getAssetPrice(address)":"b3596f07","owner()":"8da5cb5b","pythBroken(address)":"013bd8f1","pythPrices(address)":"8e2cbfbd","setChainlinkPrice(address,uint256,bool)":"bc46d885","setPythPrice(address,uint256,bool)":"db291b90","setTwapPrice(address,uint256)":"d76a8662","twapPrices(address)":"10fd6134"},"id":23}