{"abi":[{"type":"constructor","inputs":[],"stateMutability":"nonpayable"},{"type":"function","name":"chainlinkBroken","inputs":[{"name":"","type":"address","internalType":"address"}],"outputs":[{"name":"","type":"bool","internalType":"bool"}],"stateMutability":"view"},{"type":"function","name":"chainlinkPrices","inputs":[{"name":"","type":"address","internalType":"address"}],"outputs":[{"name":"","type":"uint256","internalType":"uint256"}],"stateMutability":"view"},{"type":"function","name":"getAssetPrice","inputs":[{"name":"asset","type":"address","internalType":"address"}],"outputs":[{"name":"","type":"uint256","internalType":"uint256"}],"stateMutability":"view"},{"type":"function","name":"owner","inputs":[],"outputs":[{"name":"","type":"address","internalType":"address"}],"stateMutability":"view"},{"type":"function","name":"pythBroken","inputs":[{"name":"","type":"address","internalType":"address"}],"outputs":[{"name":"","type":"bool","internalType":"bool"}],"stateMutability":"view"},{"type":"function","name":"pythPrices","inputs":[{"name":"","type":"address","internalType":"address"}],"outputs":[{"name":"","type":"uint256","internalType":"uint256"}],"stateMutability":"view"},{"type":"function","name":"setChainlinkPrice","inputs":[{"name":"asset","type":"address","internalType":"address"},{"name":"price","type":"uint256","internalType":"uint256"},{"name":"isBroken","type":"bool","internalType":"bool"}],"outputs":[],"stateMutability":"nonpayable"},{"type":"function","name":"setPythPrice","inputs":[{"name":"asset","type":"address","internalType":"address"},{"name":"price","type":"uint256","internalType":"uint256"},{"name":"isBroken","type":"bool","internalType":"bool"}],"outputs":[],"stateMutability":"nonpayable"},{"type":"function","name":"setTwapPrice","inputs":[{"name":"asset","type":"address","internalType":"address"},{"name":"price","type":"uint256","internalType":"uint256"}],"outputs":[],"stateMutability":"nonpayable"},{"type":"function","name":"twapPrices","inputs":[{"name":"","type":"address","internalType":"address"}],"outputs":[{"name":"","type":"uint256","internalType":"uint256"}],"stateMutability":"view"},{"type":"event","name":"PriceUpdated","inputs":[{"name":"asset","type":"address","indexed":true,"internalType":"address"},{"name":"price","type":"uint256","indexed":false,"internalType":"uint256"}],"anonymous":false}],"bytecode":{"object":"0x60808060405234602757600180546001600160a01b03191633179055610486908161002c8239f35b5f80fdfe6080806040526004361015610012575f80fd5b5f3560e01c908163013bd8f1146102c55750806310fd61341461028d5780637d3448ae146102555780638da5cb5b1461022d5780638e2cbfbd146101f557806393c83f53146101b8578063b3596f071461018d578063bc46d88514610134578063d76a8662146100e95763db291b901461008a575f80fd5b346100e5576100e361009b36610314565b916100b160018060a01b03600154163314610417565b60018060a01b031690815f52600460205260405f20555f52600560205260405f209060ff801983541691151516179055565b005b5f80fd5b346100e55760403660031901126100e5576101026102fe565b61011760018060a01b03600154163314610417565b6001600160a01b03165f9081526006602052604090206024359055005b346100e5576100e361014536610314565b9161015b60018060a01b03600154163314610417565b60018060a01b031690815f52600260205260405f20555f52600360205260405f209060ff801983541691151516179055565b346100e55760203660031901126100e55760206101b06101ab6102fe565b610347565b604051908152f35b346100e55760203660031901126100e5576001600160a01b036101d96102fe565b165f526003602052602060ff60405f2054166040519015158152f35b346100e55760203660031901126100e5576001600160a01b036102166102fe565b165f526004602052602060405f2054604051908152f35b346100e5575f3660031901126100e5576001546040516001600160a01b039091168152602090f35b346100e55760203660031901126100e5576001600160a01b036102766102fe565b165f526002602052602060405f2054604051908152f35b346100e55760203660031901126100e5576001600160a01b036102ae6102fe565b165f526006602052602060405f2054604051908152f35b346100e55760203660031901126100e5576020906001600160a01b036102e96102fe565b165f526005825260ff60405f20541615158152f35b600435906001600160a01b03821682036100e557565b60609060031901126100e5576004356001600160a01b03811681036100e557906024359060443580151581036100e55790565b6001600160a01b03165f8181526003602052604090205460ff161580610402575b6103f357805f52600560205260ff60405f20541615806103de575b6103cf57805f52600660205260405f20546103c057805f525f60205260405f20546103b2575064174876e80090565b5f525f60205260405f205490565b5f52600660205260405f205490565b5f52600460205260405f205490565b50805f52600460205260405f20541515610383565b5f52600260205260405f205490565b50805f52600260205260405f20541515610368565b1561041e57565b60405162461bcd60e51b815260206004820152600a60248201526927b7363c9037bbb732b960b11b6044820152606490fdfea26469706673582212204d538ce745330bd44d5d23d5eb476fc41b8b00bded476cac03ff095e1d19c1aa64736f6c634300081e0033","linkReferences":{}},"methodIdentifiers":{"chainlinkBroken(address)":"93c83f53","chainlinkPrices(address)":"7d3448ae","getAssetPrice(address)":"b3596f07","owner()":"8da5cb5b","pythBroken(address)":"013bd8f1","pythPrices(address)":"8e2cbfbd","setChainlinkPrice(address,uint256,bool)":"bc46d885","setPythPrice(address,uint256,bool)":"db291b90","setTwapPrice(address,uint256)":"d76a8662","twapPrices(address)":"10fd6134"},"id":24}